:020000040800F2
:1000000000C00020A5030008F10D0008F50D000850
:10001000F90D0008FD0D0008010E0008EF1400089E
:10002000EF140008EF140008EF140008EF140008A4
:10003000EF140008EF140008EF1400080115000881
:10004000EF140008EF140008EF140008EF14000884
:10005000EF140008EF140008450E0008650E0008B4
:10006000850E0008A50E0008C50E00089D0C0008AE
:10007000B50C0008CD0C0008E90C0008050D0008BF
:10008000210D00083D0D0008A90A0008EF14000822
:1000900079200008EF140008EF140008E50E0008AE
:1000A000E5170008091800082D1800086518000851
:1000B000B91800082919000899190008FD1100084D
:1000C000151200080912000821120008EF14000898
:1000D000EF140008E51D0008351E0008851E000805
:1000E000290F0008EF140008EF140008C11A0008D7
:1000F000E51A0008091B0008411B0008010B000855
:10010000EF140008EF140008091A0008EF140008A3
:10011000D51E0008251F0008791A00089D1A00083E
:10012000590D0008710D0008890D0008A50D000883
:1001300010B5054C237833B9044B13B10448AFF321
:1001400000800123237010BD40100020000000003B
:10015000D8A8020808B5034B1BB103490348AFF305
:10016000008008BD0000000044100020D8A802084C
:1001700010B512490A2309220968114800F0EAF96A
:1001800010490323022209680F4800F0E3F90F49E0
:100190001B231A2209680E4800F0DCF90D492B23B5
:1001A0002A2209680C4800F0D5F9BDE810400B4937
:1001B00032232C2209680A4800F0CCB984020020BE
:1001C0005C10002088020020741000208C020020A7
:1001D0008C1000207C020020A4100020800200204F
:1001E000BC10002010B5044600F0E0FC034B204694
:1001F000BDE81040197800F041BC00BF1600002097
:10020000F8B50446056801F0D7F9002223685B01C0
:1002100003F184431A6080232B600123AB622A61BF
:10022000EA606B61637973B1012B0FD001222368FF
:100230005B0103F18443C3F8802223685B0103F16F
:1002400084431A60F8BD4FF400436B644FF6FF72AD
:1002500000252368DA626E1CF7B23946204601F0A9
:10026000C0F9E8B148F6FF72236817F0010F03F1F7
:10027000340343F8252014BF6FF0FF026FF47F4270
:1002800023684FEA650503F1180353F8251001EAC6
:10029000020114BF68224FF4D0420A4343F82520DC
:1002A000042E3546D7D1C1E77047000038B5002588
:1002B000264A274C1368022043F01003136000F015
:1002C00055FE002001F008F865602368182023F42B
:1002D0000023236001F00CF8102001F009F800F071
:1002E00043F8A560102000F0F7FF102001F00EF891
:1002F0000028FAD000F039F8164801F013F8182059
:1003000000F0EAFF182001F001F80028FAD00220DE
:1003100000F0D2FF00214FF0006000F0B1FF0E4866
:1003200001F0E6F800F038F80C4B188800F026FCD5
:100330000B4800F027FC0B4801F018F900F02EF8EC
:1003400000F02DF8FFF7B0FF38BD00BF00200240DD
:10035000001002400C0000203F1901001400002092
:10036000E5010008010200087047002108B50846B1
:1003700001F018F84FF48061012001F013F800211A
:10038000022001F00FF82D2001F01CF8BDE8084014
:100390000021032001F006B800F0FCBD704700F01A
:1003A00038BE000001498D460149084700C00020C1
:1003B000B503000808B5114B1A68114B9A4213D1C6
:1003C000104B114A934213D323F048FB00221146ED
:1003D000104602F0A1FD0D4B7BB123F0DBF852F883
:1003E000041B043343F8041C09498B42F7D3E7E7A5
:1003F0000022043343F8042CE3E7FEE7D0000308AF
:100400000000002040100020002600209535020842
:100410004010002010B50D4B1A680AB90C4A1A603A
:100420001A680C49891A814204DB09494442511A6D
:10043000A14207DA23F0A8F80C234FF0FF32036043
:10044000104610BD10441860FAE700BFD410002019
:1004500000260020107B0328002070474FF4005333
:1004600000204B607047012070474FF0FF3070470D
:100470000020704710B50C46FFF7FAFF20700120EE
:1004800010BD704770B515460C468E18B44201D1A8
:10049000284670BD14F8010BFFF7F3FFF6E7FEE7FF
:1004A000C38882889B1AC2888188914282BF028950
:1004B00001329B1898B2704710B50369044658681A
:1004C000FFF7EEFF88B123695B689A88196892B2DA
:1004D000885C99881A89C0B292B28A420FBF002202
:1004E0009A88013292B29A8010BD4FF0FF30FBE73C
:1004F00008B503695868FFF7D3FF08BD03695B6857
:100500009988DA8892B28A421FBF9A881B6892B291
:10051000985C14BFC0B24FF0FF3070470269916819
:100520008888CB889BB28342FAD1126813685B0635
:10053000FCD5704713B504698DF8071001220DF141
:100540000701204601F071FB0028F7D0012002B01E
:1005500010BD000030B54FF0000C4FF47A75C0E9C3
:1005600001C5034D016105600275437530BD00BFD3
:1005700048BE02082DE9F74303690446DB68884654
:100580008B42914625D3067D134D3601AB19477D2D
:10059000586818B10022597B01F0DAF8206901F09F
:1005A000F9FA39016A18127BAB19CDF804901B7B5C
:1005B000695800932069AB5901F0B3FB20694246AA
:1005C000002101F0D4FB206903B0BDE8F04301F045
:1005D00007BB03B0BDE8F08310BB02080022FFF7A1
:1005E000C9BF0000044B02791B789A4202BF034B3B
:1005F0001B681860704700BFF8100020FC10002036
:10060000002310B50446036072B6054B193119700A
:10061000044B1860044800F0A9FF62B6204610BDE4
:10062000F8100020FC100020E505000800220368F7
:100630001B685B0103F184431A6070470122036861
:100640001B685B0103F184431A607047036801393A
:100650001B6889B29962704703681A68D36A9BB2B3
:10066000994228BF19465162704738B561B90122D5
:1006700003681B68996203681B68DA6203681B6879
:10068000DC6AA4B2204638BD48224A434FF6FF71C7
:10069000B2FBF1F1013189B202EB5102B2FBF1F28E
:1006A00094B2FFF7D3FF036892B21B68DA62E9E7FE
:1006B000C9B2006800F0AEBF012203681B685B018D
:1006C00003F18443C3F880227047000008B501217C
:1006D0001048FFF795FF02210F48FFF791FF032114
:1006E0000E48FFF78DFF04210D48FFF789FF052114
:1006F0000C48FFF785FF06210B48FFF781FF072114
:100700000A48FFF77DFFBDE8084008210848FFF7C9
:1007100077BF00BFD8100020DC100020E0100020C0
:10072000E4100020E8100020EC100020F010002061
:10073000F4100020F8B506460C4615468F18A7425F
:1007400006D0336814F8011B1B6830469847F6E75B
:100750002846F8BD70B505460C46084649B124F058
:1007600039FA2B68024621462846BDE870409B684E
:10077000184770BD0368C9B21B68184703685B68F7
:10078000184738B50D210546FFF7F4FF0A21044646
:100790002846FFF7EFFF204438BD38B50546FFF780
:1007A000EDFF04462846FFF7ECFF204438BD2DE955
:1007B00070439046994690B058EA090306469DF862
:1007C000585007D13021FFF7D5FF0125284610B03A
:1007D000BDE870830024404649462A46002318F0AD
:1007E00085FB8046894601340DEB040303F8012C98
:1007F00058EA0903EFD10025013C1DF804103046EA
:10080000092994BF3031373149B2FFF7B3FF0544AE
:10081000002CF1D1DAE72DE9F0411D46002A75F1EF
:10082000000307461446069E05DA2D21FFF7A2FFB6
:10083000644265EB4505F6B2069622462B463846DD
:10084000BDE8F041FFF7B3BF07B5CB1700920A46EA
:10085000FFF7E1FF03B05DF804FB38B50546FFF78D
:10086000F3FF04462846FFF78CFF204438BD07B548
:10087000CB1700920A46FFF7CEFF03B05DF804FBEA
:1008800037B5CB1700920A460546FFF7C4FF04466A
:100890002846FFF776FF204403B030BD07B5D2B23B
:1008A000009200230A46FFF782FF03B05DF804FBC5
:1008B00037B5D2B2009200230A460546FFF777FF0C
:1008C00004462846FFF75DFF204403B030BD00001A
:1008D0002DE9F34717461E4682460022002338467C
:1008E000314617F047FF9DF828504FF00104F8B14A
:1008F00043A3D3E900233846314617F031FF00B94E
:100900000446E4B20022002338463146C4B117F051
:1009100013FF18B12D215046FFF72CFF04463C4928
:100920005046FFF72BFF0444204602B0BDE8F08795
:1009300035A3D3E900233846314617F007FFDEE739
:1009400017F0FAFE30B12D215046FFF713FF044691
:1009500006F100464FF0000800202E495FFA88F3A8
:100960009D4206D900222C4B17F09EFD08F101088C
:10097000F4E73A46334617F0B7FA06460F4618F042
:10098000CDFA0A230246009380460B46504689461C
:10099000FFF741FF0444002DC6D04046494617F0FA
:1009A0002BFC02460B463046394617F09BFA0646AA
:1009B0000F4650461949FFF7E1FE0444013DEDB2F0
:1009C000FF2DB1D0144B00223046394617F042FCBF
:1009D0000F46064617F0D8FE0A22014680465046CA
:1009E000FFF732FF0444404617F0CAFB02460B46AD
:1009F0003046394617F076FA06460F46DEE700BF66
:100A0000800350726C92DF43800350726C92DFC39C
:100A100064BE02080000E03F0000244037D902080D
:100A20009DF800100091FFF753BF000030B5044659
:100A30000D4687B0064901A823F0B8FE22462B4692
:100A400001A90A9823F0B2FE0A9807B030BD00BF92
:100A500073BE0208704710B50446007900F070FCC0
:100A60002079BDE8104000F083BC026841F4801199
:100A7000936823F46023194391607047002330B5D5
:100A80001C461D4603EB4302072B01FA02F203F159
:100A90000103D8BF15430A2B44EA0204F2D10368CC
:100AA000DD6003681C6130BD70B5144C23681B68A1
:100AB0001D68A90707D51A6822F002021A60236888
:100AC0009B6803B198476A0709D523681A681368B9
:100AD00023F00403136023681B6903B19847EB07F5
:100AE0000BD523681A68136823F001031360236889
:100AF000DB6813B1BDE87040184770BD1C000020D2
:100B000070B5144C23681B681D68A90707D51A68BF
:100B100022F002021A6023689B6803B198476A07B3
:100B200009D523681A68136823F004031360236847
:100B30001B6903B19847EB070BD523681A68136844
:100B400023F0010313602368DB6813B1BDE8704034
:100B5000184770BD24000020012203685B0103F1E7
:100B6000844303F58673191F1A6018680028FCD1A6
:100B700043F8042C0B68002BFCD17047014604207D
:100B800000F010BC10B50446054B1868A047054B93
:100B90001868A047044B18682346BDE81040184762
:100BA0001C000020200000202400002010B5044676
:100BB000FFF751FF20464FF46021FFF756FF012257
:100BC000236820465B0103F18443C3F85021236866
:100BD0005B0103F18443C3F80021BDE81040FFF737
:100BE000BBBF007900F0ACBB142301395943006846
:100BF0000830435823F4405343EA023242507047CE
:100C0000036814200833013900FB01314A60704742
:100C100000EBC10340F8312093F90430002B08DBCE
:100C20000122591103F01F0302FA03F3014A42F8AB
:100C30002130704700E100E014220368013902FB13
:100C400001310123490101F18441C1F800317047AC
:100C500014220368013902FB01310023490101F12B
:100C60008441C1F8003170472DE9F04114251C463C
:100C700090464B1E5D430668FFF7EAFF9DF81C3067
:100C8000240244EA8324089B08361C43069B7719F8
:100C90007451FB60C7F80880BDE8F08110B5044BC3
:100CA0001C68A3681BB19847012223685A6010BDD5
:100CB0006000002010B5044B1C6823691BB19847E5
:100CC000102223685A6010BD6000002010B5054B4B
:100CD0001C68A36923B198474FF4807223685A6057
:100CE00010BD00BF6000002010B5054B1C68236AD2
:100CF00023B198474FF4805223685A6010BD00BF5B
:100D00006000002010B5054B1C68A36A23B198470A
:100D10004FF4803223685A6010BD00BF600000208D
:100D200010B5054B1C68236B23B198474FF4801214
:100D300023685A6010BD00BF6000002010B5054B4D
:100D40001C68A36B23B198474FF0807223685A60E8
:100D500010BD00BF6000002010B5044B1C68A368E4
:100D60001BB19847012223685A6010BD640000201F
:100D700010B5044B1C6823691BB1984710222368E7
:100D80005A6010BD6400002010B5054B1C68A369B3
:100D900023B198474FF4807223685A6010BD00BF9A
:100DA0006400002038B5104C636CD8070BD523685D
:100DB000D90408D50D4B1D682B6A23B198474FF411
:100DC00080522B685A60A36DDA070BD52368DB03CA
:100DD00008D5064B1C68A36A23B198474FF48032AC
:100DE00023685A6038BD00BF000402406400002040
:100DF000012007E0022005E0032003E0042001E0D9
:100E00000520FFE70D4A0121116072B60C4A00214E
:100E10001160074902B4084902B486B005498E46FC
:100E2000704700BFAFF30080AFF30080AFF30080E6
:100E300000000061F9FFFFFFE52E000814ED00E05F
:100E400010E000E008B5054A136833B150689847D0
:100E50000122034B5A6100BF00BF08BD00110020F2
:100E60000004014008B5054A936833B1D06898473B
:100E70000222034B5A6100BF00BF08BD00110020D1
:100E80000004014008B5054A136933B15069984719
:100E90000422034B5A6100BF00BF08BD00110020AF
:100EA0000004014008B5054A936933B1D0699847F9
:100EB0000822034B5A6100BF00BF08BD001100208B
:100EC0000004014008B5054A136A33B1506A9847D7
:100ED0001022034B5A6100BF00BF08BD0011002063
:100EE000000401402DE9F041002705240C4DD5F800
:100EF00014800126A64018EA060F08D0094BE1002D
:100F000053F834201AB10B445868904737430134E2
:100F10000A2CEED16F6100BF00BFBDE8F08100BFB9
:100F200000040140001100202DE9F04100270A24AF
:100F30000C4DD5F814800126A64018EA060F08D0FB
:100F4000094BE10053F834201AB10B44586890471C
:100F500037430134102CEED16F6100BF00BFBDE8F4
:100F6000F08100BF0004014000110020034A136813
:100F700023F0070318431060704700BF00200240B1
:100F800010B50446007900F0DBF92079BDE8104087
:100F900000F0EEB908B50748FFF7F2FF0648FFF783
:100FA000EFFF0648FFF7ECFFBDE808400448FFF7F5
:100FB000E7BF00BFD8000020E0000020E8000020CC
:100FC000F000002070B50F250368CE0801F007007F
:100FD000840053F82600092A05FA04F520EA0505DD
:100FE00014BF10460820A0402843082A43F82600D2
:100FF00007D10120DA6800FA01F122EA0101D96083
:1010000070BD092AFCD10122D86802FA01F101431E
:10101000F5E708B5032000F093F9BDE80840032088
:1010200000F0A6B903681A6812F4985FFBD11A6839
:1010300042F480721A60704703681A6812F4985F6D
:10104000FBD11A6842F400721A600268136813F444
:10105000985FFBD17047000070B502684568516920
:1010600092695A4AAE781268CB07044606F0010628
:10107000C26014D50023EB8000F0D8F822685368D2
:1010800043F48063536026B12268136843F480639D
:10109000136000212B88226846EA4303136111F094
:1010A0000A0F10D0AB88002E45D0012B0AD1226840
:1010B0002046136823F480631360A38B012B37D978
:1010C000FFF7B0FF002101F08402802A03D1A38B37
:1010D000002B49D1002101F08402842A0DD1A18B7B
:1010E0002046002954D0FFF79DFF22685369D90795
:1010F000FCD5002163680C3363604B0661D523681F
:10110000AA681969EB88581CE880D154AB88EA8832
:10111000591E8A424BD122682046136823F480630B
:101120001360A38B022B3ED9BDE87040FFF77ABF56
:10113000FFF782FFC6E7012B08D9EB88A9685A1C84
:10114000EA802268CB5C13613146BCE7002BFBD1FF
:101150002046FFF771FF2268536823F40073536041
:10116000022384F82330ADE7EB88A9685A1CEA8093
:101170002268CB5C1361EA88AB889A42AAD12268C4
:10118000536823F480635360A38B013BA383A1E7DF
:10119000FFF752FF2268536823F400735360022361
:1011A00084F82330A9E7BDE87040FFF745BF9A42B5
:1011B00007D1A38B013B9BB2A3831BB9022384F805
:1011C000233070BD63680C336360FAE79C25002010
:1011D00008B50268536903F47063836000235361A8
:1011E00002689361FFF728FF0268536823F4E06305
:1011F0005360FF2380F8233008BD00000148FFF74B
:101200002BBF00BFF80000200148FFF725BF00BF3B
:101210001C0100200148FFF7DBBF00BFF8000020E1
:101220000148FFF7D5BF00BF1C01002010B50446E0
:10123000002190F9210000F00FF894F9220000211C
:10124000BDE8104000F008B84AF6AA22014B1A6027
:10125000704700BF003000400028A8BF00F1604088
:101260004FEA0111B8BF054BC9B2B5BF00F00F007E
:1012700000F56140195480F80013704714ED00E048
:1012800010B5002421F0604121F07F01064A01439E
:10129000916060B20F210134FFF7DEFF3C2CF8D1E2
:1012A000F02382F8233010BD00ED00E0014B13F86D
:1012B0001000704798BE0208064B5A6822F00302DD
:1012C00002435A6080005A6802F00C028242FAD14E
:1012D000704700BF00100240030AC2B2012003F1B0
:1012E000804303F504331968904008431860704741
:1012F0000121030A03F1804303F504331A68C0B2E5
:1013000001FA00F022EA000018607047030A03F1B6
:10131000804303F504331A680223C0B203FA00F0D5
:1013200010407047054A0168536823F474130B4357
:10133000416809680B435360704700BF00100240CA
:1013400010B50446FFF7B2FF074B53F820200748BB
:1013500000EB4400437803EBC20301229B0003F13E
:1013600084431A6010BD00BF4001002098BE0208EF
:1013700010B50446FFF79AFF084B53F820200848A1
:1013800000EB4400437803EBC20301229B0003F10E
:1013900084431A6000221A6010BD00BF580100206B
:1013A00098BE020810B5054A054C536854F8200051
:1013B00023EA00030B43536010BD00BF001002403E
:1013C00084BE020810B50446FFF770FF074B53F8C0
:1013D0002020074800EB4400437803EBC2030022BF
:1013E0009B0003F184431A6010BD00BF4C01002034
:1013F00098BE020801EBC000800000F1844002604A
:10140000704710B504460079FFF79AFF2079BDE8D0
:101410001040FFF7ADBF012206210068FFF7EABFC9
:10142000002206210068FFF7E5BF10B50C460168F1
:1014300003464A6822F0E0024A600268126862408D
:1014400012F4205F01D0FFF7EBFF1A681846146012
:10145000BDE81040FFF7DFBF134343F00403194317
:10146000FFF7E3BF0122006811460430FFF7C2BF57
:101470000068002201210430FFF7BCBF0068012290
:1014800000210430FFF7B6BF002203685B0103F1BF
:101490008443C3F880207047F8B51046069C9DF839
:1014A0001C709DF820609DF8245081B10B223946B4
:1014B0002046FFF787FD042231462046FFF782FDD4
:1014C0000B2229462046BDE8F840FFF77BBD1946B0
:1014D0000422FFF777FD042239462046FFF772FD0C
:1014E0000B2231462046FFF76DFD0422E9E7FEE7B7
:1014F0000722024B58601A60704700BF10E000E0FE
:10150000044A136801331360034B1B6803B1184787
:10151000704700BF9C2500208011002011F0010FB2
:1015200070B501F1FF340DBF082500256FF0FF01F4
:101530006FF47F410068C4F34004183050F8246011
:1015400013433140AB400B4340F8243070BD026878
:101550004B1E02F1404220329B0003EBC2030122EA
:101560009B0003F184431A607047000010B50446E5
:101570000948A0470948A0470948A0470948A0478B
:101580000948A0470948A0470948A0472346BDE8A5
:1015900010400848184700BF84010020AC0100201B
:1015A000D0010020F4010020180200203C0200209D
:1015B000480200205402002010B504460079FFF7CD
:1015C000BFFE2079BDE81040FFF7D2BE00230268BD
:1015D00013600268D3604279012A9CBF02681362DB
:1015E000704703791E2B10D9212B0ED0202B0ED93A
:1015F000222B01D0252B04D102298CBF00200120F1
:1016000070474B1E584258417047012070470020D8
:10161000704700008B1C40F82320012342798B4047
:1016200010B5DB43EAB1012A41F65F6218BF01221F
:101630001340012204682361036803F140430C3323
:1016400001EBC3039B0003F184431A6042790379E1
:101650003ABB072915D8DFE801F007151515151A4B
:101660001A1F41F6FF62E3E71A2B0CBF19232C2344
:101670000122590903F01F0302FA03F3254A42F835
:10168000213010BD1A2B0CBF1B232E23F0E71A2B81
:101690000CBF1A232D23EBE71A2B0CBF18232B2387
:1016A000E6E71B3B0C2BECD801A252F823F000BF5D
:1016B00011170008E5160008E9160008ED160008E5
:1016C000F1160008F516000883160008F916000840
:1016D000FD16000801170008051700080917000883
:1016E0000D1700081D23C3E71E23C1E73223BFE700
:1016F0003623BDE73723BBE71823B9E71923B7E73C
:101700001A23B5E72B23B3E72C23B1E72D23AFE74B
:101710001C23ADE700E100E00022036803F1404331
:101720000C3301EBC3039B0003F1844302311A60C5
:1017300040F82120704738B504460D461346002274
:10174000FFF7ECFE29462046BDE83840FFF7FFBE14
:1017500038B543790546022B0C4615D0042A13D818
:10176000DFE802F003132A2D3A00FFF7D5FF0268E5
:10177000631E02F1404220329B0003EBC2030022B1
:101780009B0003F184431A6038BD0022036803F113
:1017900040430C3301EBC3039B0003F184431A6005
:1017A0000823602221462846FFF7B8FE2146284636
:1017B000BDE83840FFF7CBBE00231022F2E74FF21E
:1017C000F11203689A61032203689A600368012298
:1017D0005B0103F18443D6E70122BDE83840FFF7FF
:1017E000AABF000010B5074A1468E36821690B40DE
:1017F0001B0606D5536A23B19847236923F080035B
:10180000236110BD8401002010B5074A1468E36805
:1018100021690B40DB0706D5936823B198472369FC
:1018200023F00103236110BD84010020F8B50C4DA5
:101830002F68FE683B691E4016F0400403D02C6AF6
:101840000CB1A0474024B30604D5EB6913B1984707
:1018500044F020043B6923EA04043C61F8BD00BF66
:1018600084010020F8B5134D2F68FE683B691E40C7
:1018700016F0100403D0AC690CB1A0471024310756
:1018800004D56B6913B1984744F00804720704D576
:101890002B6913B1984744F00404B30704D5EB68EF
:1018A00013B1984744F002043B6923EA04043C6105
:1018B000F8BD00BF84010020F8B51A4D2F68FE68FE
:1018C0003B691E4016F0400403D02C6A0CB1A047BF
:1018D0004024F30604D5AB6913B1984744F01004D3
:1018E000300704D56B6913B1984744F008047107B9
:1018F00004D52B6913B1984744F00404B20704D50A
:10190000EB6813B1984744F00204F30704D5AB68C1
:1019100013B1984744F001043B6923EA04043C6195
:10192000F8BD00BFAC010020F8B51A4D2F68FE6865
:101930003B691E4016F0400403D02C6A0CB1A0474E
:101940004024F30604D5AB6913B1984744F0100462
:10195000300704D56B6913B1984744F00804710748
:1019600004D52B6913B1984744F00404B20704D599
:10197000EB6813B1984744F00204F30704D5AB6851
:1019800013B1984744F001043B6923EA04043C6125
:10199000F8BD00BFD0010020F8B51A4D2F68FE68D1
:1019A0003B691E4016F0400403D02C6A0CB1A047DE
:1019B0004024F30604D5AB6913B1984744F01004F2
:1019C000300704D56B6913B1984744F008047107D8
:1019D00004D52B6913B1984744F00404B20704D529
:1019E000EB6813B1984744F00204F30704D5AB68E1
:1019F00013B1984744F001043B6923EA04043C61B5
:101A0000F8BD00BFF4010020F8B51A4D2F68FE683C
:101A10003B691E4016F0400403D02C6A0CB1A0476D
:101A20004024F30604D5AB6913B1984744F0100481
:101A3000300704D56B6913B1984744F00804710767
:101A400004D52B6913B1984744F00404B20704D5B8
:101A5000EB6813B1984744F00204F30704D5AB6870
:101A600013B1984744F001043B6923EA04043C6144
:101A7000F8BD00BF1802002010B5074A1468E368DB
:101A800021690B40DB0706D5936823B1984723698A
:101A900023F00103236110BD3C02002010B5074A6A
:101AA0001468E36821690B40DB0706D5936823B10E
:101AB0009847236923F00103236110BD48020020E9
:101AC00010B5074A1468E36821690B401B0606D568
:101AD000536A23B19847236923F08003236110BD23
:101AE0005402002010B5074A1468E36821690B40CE
:101AF000DB0706D5936823B19847236923F00103D8
:101B0000236110BD54020020F8B50C4D2F68FE680B
:101B10003B691E4016F0400403D02C6A0CB1A0476C
:101B20004024B30604D5EB6913B1984744F0200470
:101B30003B6923EA04043C61F8BD00BF5402002065
:101B4000F8B5134D2F68FE683B691E4016F010046F
:101B500003D0AC690CB1A0471024310704D56B69E0
:101B600013B1984744F00804720704D52B6913B1E8
:101B7000984744F00404B30704D5EB6813B19847C1
:101B800044F002043B6923EA04043C61F8BD00BF51
:101B90005402002000223F2110B504464368103053
:101BA0009A801860DA801981A3689A80DA8004F13B
:101BB000500219811A6094F89000FFF7C1FB94F964
:101BC0009130002B08DB0122591103F01F0302FAA8
:101BD00003F3024A42F8213010BD00BF00E100E0EB
:101BE0000368DA6842F02C02DA60DA6842F40052E4
:101BF000DA60704710B5036881688C88CA8892B231
:101C0000A242FAD1DA68910402D51A685206F9D5CF
:101C1000DA6822F40052DA60426893889BB2D3807B
:101C2000826893889BB2D38010BDF0B50B46064600
:101C30000468B568581AAF88ED88ADB2BD4204D1CA
:101C400025682D0601D5824210D8E36823F0800371
:101C5000E3609042B3680DD39A88DB889BB29342CD
:101C60001EBFE36843F08003E360F0BD13F8010B8F
:101C70006060DEE7DD889F880135BD42ECD0DF88FB
:101C80001D89ADB2BD4203D19D88ADB2002DE3D018
:101C9000DD8811F800C01F68ADB207F805C0DF8805
:101CA0001D890130ADB2BD420FBF0025DD88013571
:101CB000ADB2DD80CDE703468288016892B2885CD0
:101CC00099881A89C0B292B28A420FBF00229A88BC
:101CD000013292B29A80704738B5C3888288013346
:101CE000934204460D4607D0C28803899BB29342B3
:101CF00014D183889BB28BB92046FFF7DCFFE388C1
:101D000022689BB2D554E28823899BB293420FBFCD
:101D10000023E38801339BB2E38038BD4FF0FF30EE
:101D2000EDE770B51E460546084611460422059C9F
:101D3000FFF748F90B229DF810103046FFF742F9E3
:101D400029686302CA6803F4F05322F4F0521204C3
:101D5000120C1343CB602A682402136904F4405424
:101D600023F440531B041B0C1C43146170BD38B595
:101D70000546144611B900F0FDF8014619235943F0
:101D8000A200B1FBF2F26421B2FBF1F001FB1023DF
:101D90001B013233B3FBF1F303F00F032C6843EA6A
:101DA00000139BB2A36038BD10B50446084B1868F9
:101DB000A047084B1868A047074B1868A047074B77
:101DC0001868A047064B18682346BDE8104018471E
:101DD00084020020880200208C0200207C02002067
:101DE0008002002010B5104CE368980607D52368E0
:101DF000990604D561680D48C9B2FFF76DFFE36825
:101E00001A060BD523681B0608D509488288C388A3
:101E10009BB2934203D0FFF74EFF606010BDE368B2
:101E200023F08003E360F9E700380140B41100209B
:101E3000C011002010B5104CE368980607D5236840
:101E4000990604D561680D48C9B2FFF745FFE368FC
:101E50001A060BD523681B0608D509488288C38853
:101E60009BB2934203D0FFF726FF606010BDE3688A
:101E700023F08003E360F9E700440040CC11002028
:101E8000D811002010B5104CE368980607D52368D8
:101E9000990604D561680D48C9B2FFF71DFFE368D4
:101EA0001A060BD523681B0608D509488288C38803
:101EB0009BB2934203D0FFF7FEFE606010BDE36863
:101EC00023F08003E360F9E700480040E4110020BC
:101ED000F011002010B5104CE368980607D5236870
:101EE000990604D561680D48C9B2FFF7F5FEE368AD
:101EF0001A060BD523681B0608D509488288C388B3
:101F00009BB2934203D0FFF7D6FE606010BDE3683A
:101F100023F08003E360F9E7004C004084110020C7
:101F20009011002010B5104CE368980607D523687F
:101F3000990604D561680D48C9B2FFF7CDFEE36884
:101F40001A060BD523681B0608D509488288C38862
:101F50009BB2934203D0FFF7AEFE606010BDE36812
:101F600023F08003E360F9E7005000409C1100205B
:101F7000A811002008B590F89000FFF797F920B15C
:101F80000128034818BF002008BD0248FCE700BF35
:101F900000A24A040051250230B548F28005094CE0
:101FA000226822F4804222F070022A4342402260DA
:101FB000236823F4E04323F040032B434B4023608A
:101FC00030BD00BF005C0040284B072818BF1870C8
:101FD0001A78052A48D8DFE802F003131E232B36AF
:101FE0004FF6FB71224A106C014011644FF43F41DF
:101FF000116406221A701F4B1B685A7B1A737047B4
:102000004FF6FB711A4A106C014011644FF43F41C6
:102010001164042202E002225A7003221A7006E0C0
:102020005A78013AD2B25A705A78002AF1D07047E1
:102030000F490A6C92B242F010020A6405221A702B
:102040000A225A7070475A78013AD2B25A705A78B6
:10205000002AECD14FF6EF720549086C02400A6481
:10206000044A1268517B11730622D7E7A02500208D
:10207000005C0040740500202DE9F0415F4D604A8E
:102080002B68546C1B68A4B223405E0506D56FF420
:10209000806353645B4B1B685B6898472A681368CE
:1020A0002340980442BF6FF40051554B59641368A4
:1020B0002340D90406D56FF4C052514B00205A6416
:1020C000FFF782FF2B681A68224012050FD54C4992
:1020D0000A6C92B242F0080042F00C0208640A64F2
:1020E0001A7B5A7303221A736FF4C0524A641A6837
:1020F0002240970542BF6FF40071414A51641B684A
:102100002340DE0506D56FF480723D4B07205A64EC
:10211000FFF75AFF2B681B681C40240403D5384C7A
:10212000676C3B0401D4BDE8F0816FF4004317F005
:102130000F06636438D148F68003D4F8008018EAAB
:10214000030FECD01FFA88F32F4D304E03F44052AA
:102150004FF4005003F03003202133802A80FFF732
:102160001BFFF80623680ED423F4E14323F0700329
:102170001B041B0C236000F09BFD31882888BDE800
:10218000F041FFF709BF18F0800FEDD123F0700385
:102190001B051B0D18F4006F236002D000F0A6FB96
:1021A000EBE700F003FDE8E7B40004F1804404F538
:1021B000B844276839040DD5236823F070031B0544
:1021C0001B0D23602A6806F180439268013B52F898
:1021D000233098473A06A2D5236806F1804623F4B7
:1021E000E14323F070031B041B0C23602B68013EAA
:1021F0005B6853F82630984791E700BF74050020CC
:10220000005C0040D4250020A4250020A225002049
:10221000800000F1804000F5B840036823F480435B
:1022200023F0700343F4004343F0800359400160FE
:102230007047000018B90722024B1B681A82024837
:10224000704700BFA8250020E405002000220121DE
:1022500010B5104B1B689A720F4B19640F49086830
:102260000260086804681C644FF4E0545A64046017
:10227000086804681C644FF43F445A6404600868AA
:10228000006818644FF48010054B18600B681A73CF
:1022900010BD00BFA8250020005C00407405002090
:1022A00000E100E013B5104B1A68137803F07F03C8
:1022B000212B16D1022808D0222801D0022405E0C3
:1022C00093780A4A03F0030313700024084B1B6839
:1022D00023B102A901F8010D02209847204602B05F
:1022E00010BD0224FAE700BFA8250020001200203C
:1022F000FC11002021B901288CBF0220002070476A
:1023000002207047054B1B689B78032B04D80449B7
:1023100001EBC30100F0BCBA00207047A8250020E3
:10232000CC050020014900F0B3BA00BF88050020A9
:10233000014900F0ADBA00BF9005002037B5114C3F
:102340002268127802F07F02212A02D0022003B014
:1023500030BDA0F12003012B0B4B0C4D1B6888BF37
:10236000002523B102A901F8010D02209847002D94
:10237000ECD0236800249D615C822046A84720465B
:10238000E5E700BFA8250020FC1100203522000849
:102390002DE9F04700254FF0C00948F68F1648F2A6
:1023A00080074FF0400A434B434C1B68DFF83881ED
:1023B0009D7283F80990256523682846334043F4CD
:1023C00000732360236803EA08033B4383F0100390
:1023D0002360226D394B520043F802A08022236D06
:1023E0005B0003F1804303F5C0431A60236823F4C4
:1023F000E24323F070031B041B0C2360304B1B686B
:1024000093F82C1000F072F84FF440512846FFF773
:10241000FFFEA3682946334043F4C063A360226DE6
:10242000284B520013444FF480721A60A2680220B5
:1024300002EA08023A4382F02002A260FFF7E8FEB7
:10244000E36851463340E360226D1F4B5200134452
:102450004FF4887203201A6000F048F84FF440519E
:102460000320FFF7D5FE636829461E406660226D93
:10247000164B520043F802906368012003EA0803F8
:102480003B4383F020036360FFF7C2FE0122104B41
:1024900028461B681A7300F0EBFBFF220D4B1D60F2
:1024A0000D4B1D600D4B1D600D4B1D600D4B1A70CB
:1024B000BDE8F087A8250020005C004008600040CF
:1024C000D4250020206000403860004010600040AB
:1024D00074050020041200200812002010120020B1
:1024E000141200200C120020BF8FFFFF0D4B0E4A6C
:1024F0001B6D3E2903EBC0004FEA400002440AD99D
:102500004B09C80604BF03F1FF339BB29B0243F49F
:102510000043136070474B08C90748BF01339B0253
:10252000F7E700BF005C00400C60004010B5064CAF
:1025300018B9012223681A8210BD044B1B681B685E
:10254000984720680A30F7E7A8250020D02500200A
:1025500010B5064C18B9012223681A8210BD044B2D
:102560001B689B68984720680C30F7E7A825002077
:10257000D025002010B51E4B1C68002310B9022383
:10258000238210BD1B4803802178024611F07F0191
:1025900012D1617A8C0644BF022303700378480687
:1025A0004CBF23F0010343F001031370124B1B686F
:1025B0001B6998470F48E4E70129E2D0022915D1A9
:1025C000217901F00F039B0003F1804303F5B84329
:1025D00009061B6805D503F03003102BE6D1012353
:1025E000E3E703F44053B3F5805FF7E71846C8E725
:1025F000A8250020A6250020D02500202DE9F8439D
:10260000234FDFF8A0803D682C8AD4B92E7A042E9F
:1026100017D120490B78012B0ED11F4B1A681F4B85
:1026200092B213445B001C6030230C70A8F8003099
:102630003B681E72BDE8F88310230726A8F8003017
:10264000F6E7AB8A9C4294BF042602269C4228BF30
:102650001C46AB69204698478146002000F0B4FB39
:1026600022460146484600F052FB2146002000F079
:10267000C7FB2B8A4FF440521B1B2B826B8A1C44D6
:102680003023A8F80030064B6C821A80D0E700BFD8
:10269000A825002018120020505C004002300020C5
:1026A000A4250020A225002010B50A4B0A491B686A
:1026B00049789A7891420AD3D97841B99C8834B93B
:1026C0009A72064B1B685B689847204610BD022033
:1026D000FCE700BFA8250020C8050020D025002069
:1026E00038B50F4A0F4D12682B689269997818799E
:1026F00090472B6804469A7A7AB170B95A7962B9D0
:10270000DB7853B9084B1B68DB6898472B681A794C
:10271000DA729A781A73204638BD0224FBE700BFAC
:10272000D4250020A8250020D025002038B52B4B2B
:102730001B68187810F07F0004D15A7A22F020022A
:102740005A7238BD022847D15A88002AF9D15A79DD
:10275000002AF6D11979224D21F08000840004F17D
:10276000804404F5B844226849B22D780029B4BFEA
:1027700002F0300202F4405285422DD962B39B7AB6
:1027800053B30029236811DA03F03003102B07D16B
:10279000C4B2204600F004FB3021204600F0D8FAF5
:1027A000104B1B685B6998470020CAE703F440534D
:1027B000B3F5805FF4D10C4D58B90C4B93F82C1045
:1027C00000F02CFB23682B409BB283F44053236022
:1027D000E6E700F0D2FAF5E70220B2E7A8250020EC
:1027E000C8050020D02500208FBFFFFF98050020DE
:1027F00038B51B4B1B4D18682D78017921F08004EA
:10280000A30003F1804303F5B8431A6849B20029D5
:10281000B4BF02F0300202F44052A5421DD94488F0
:10282000DCB9D2B1827AC2B11A680029B5BF22F4EC
:10283000E04222F4804222F0400222F07002B5BF52
:1028400092B292B282F0100282F480521A60064B69
:102850001B689B699847002038BD0220FCE700BF39
:10286000A8250020C8050020D025002008B5064B6B
:102870001A68537A43F020035372044B1B68DB69D8
:102880009847002008BD00BFA8250020D0250020C3
:1028900010B5054B1C68628A18B98B889B1A238275
:1028A00010BD08681044FBE7A825002008B50B4BB5
:1028B000002093F82C1000F0B1FA094B1B68187A2D
:1028C000082806D14FF48052064B1A801022064B7E
:1028D0001A80A0F109035842584108BD980500200C
:1028E000A8250020A4250020A225002073B5964C21
:1028F000964E216832680B7A092B16D0944B92B20F
:1029000013445B001B885B0003F1804303F5C04365
:102910001A780A7059782268517099882268518013
:102920001989226891809B89D380012223681A72B9
:10293000DA885D78002A64D11A7812F07F024DD1CE
:10294000092D03D1FFF7B0FE40BB16E0052D20D1C5
:1029500093F90220002A07DA08232268137202B0D2
:10296000BDE87040FFF7A2BFDA78002AF4D19A8858
:10297000002AF1D19B7A002BEED13268754B92B2CE
:10298000134400225B001A603022734B1A80062326
:10299000E3E7032D14D19A78012A08D06F4B28461B
:1029A0001B685B699847032828D10923D5E79A88D3
:1029B000002AF3D15B7A9A06F0D5FFF757FFC3E7F9
:1029C000012DEBD19A78012AE8D19A88002AE5D125
:1029D0005B7A9B06E2D5FFF7A9FEB5E7012A04D191
:1029E0000B2DDBD1FFF77CFEAEE7022AD6D1012DFD
:1029F000F1D0032DD2D1FFF7FBFEA5E70028ABD124
:102A0000BBE7062D12D11A7855065AD1DB78534A06
:102A1000012B126802D1D369DBB952E0022B01D13C
:102A2000136AF9E7032B4CD1536AF5E7002D54D113
:102A30005988002945D15A6822F0FF02B2F5003FBB
:102A40003FD11A7812F07F0216D19B88002B38D123
:102A5000434B0025226828465582936198472846B3
:102A60004FF6FF7123681A8A8A4233D0022801D0B8
:102A7000002A55D108222EE0012A0AD1374A1879B6
:102A8000126892699047E0B923689B7A002BDFD1E6
:102A900017E0022A15D11A7902F00F018B001006F7
:102AA00003F180432F4803F5B8431B6800784CBFFF
:102AB00003F0300303F44053884202D912F0700F40
:102AC000E4D0264B22681B6850781B69984703287E
:102AD000C6D1236809221A7241E7082D04D11B7858
:102AE0005B06EED1204BB4E70A2DEAD11A7802F04A
:102AF0007F02012AE5D19A7A002AE2D0598800297A
:102B0000DFD15A6822F0FF02B2F5803FD9D1134AD3
:102B100018791268926990470028D2D1134B98E730
:102B200093F90010002936DAD9880C4C01910198EC
:102B3000246882421CD9019A1A8294F82C209A8225
:102B4000FFF75CFD0BE700BFA8250020505C0040AC
:102B50000430002002300020A2250020D4250020CF
:102B600075250008C80500202D25000851250008FE
:102B70008A42E2D294F82C00824203D20021094A10
:102B80001170DAE792FBF0F100FB1122002AD4D198
:102B9000044A0121F4E703221A724FF44052024B17
:102BA0001A80DCE618120020A4250020F8B52A4E71
:102BB0003468237A032B01D0052B44D1A369B3B128
:102BC000258AA5B1A28A954228BF1546284698476E
:102BD000238A07465B1B2382638A00202B4463827F
:102BE00000F000F92A460146384600F09FF8238A93
:102BF00053B100214FF44052184B08461A8000F0A0
:102C0000FFF83022164B1A80228AA18A336891423B
:102C100009D803221A7233681B7A32681372BDE82E
:102C2000F840FFF743BE0AB10522F3E70621197207
:102C30000C4B19680C4B89B20B445B001A603022B4
:102C4000074B1A80E7E7072B03D1084B1B68DB68AB
:102C500098470823E1E700BFA8250020A42500200D
:102C6000A2250020505C004002300020D425002026
:102C7000002210B50C4B1C78A24204D30B4B40F041
:102C80008000186010BD02F1805303F5B8539B001B
:102C9000196821F4E04121F070010904090C114385
:102CA00019600132E8E700BFC80500204C5C004015
:102CB00010B5134C23681A7A022A01D0042A09D1CC
:102CC000FFF79CFC23681B7A22681372BDE8104052
:102CD000FFF7ECBD062A10D15A78052A09D11A78D7
:102CE000520606D19878FFF7C3FF064B1B681B6A94
:102CF0009847054B1B689B6898470823E4E700BF8B
:102D0000A8250020D0250020D4250020704701F1FF
:102D10000051013201F540515210490002B970478B
:102D200030F8023B013A21F8043BF7E7002310B5E5
:102D300001F10051013201F54051521049009A420F
:102D400000D110BD51F8234020F813400133F6E7BD
:102D5000800000F1804000F5B8400368CA0623F403
:102D6000E04323F040039BB248BF83F010038A0680
:102D700048BF83F0200303607047800000F180406B
:102D800000F5B84003685B0409D5036823F4E04309
:102D900023F070031B041B0C43F480430360704753
:102DA000800000F1804000F5B84003685B0609D55B
:102DB000036823F4E04323F070031B041B0C43F06F
:102DC0004003036070470000054B1B689BB203EB98
:102DD000C00000F1005000F54050400000887047EE
:102DE000505C0040044B1B689BB203EBC000034BDC
:102DF00003445B0018887047505C0040043000209A
:102E0000044B1B689BB203EBC000034B03445B0005
:102E100019607047505C0040023000200D4B0E4A94
:102E20001B683E299BB203EBC00002444FEA4202FA
:102E30000AD94B09C80604BF03F1FF339BB29B02BA
:102E400043F40043136070474B08C90748BF013380
:102E50009B02F7E7505C00400630002013B50446A3
:102E60008DF8071001220DF107012046FEF7DDFE67
:102E70000028F7D002B010BD38B505464C1E14F935
:102E8000011F01B938BDC9B22846FFF7E7FFF6E7D1
:102E900008B5134B03221C6801212046FEF792F867
:102EA000002301211A46B2F5007F0CD072B1B3F5B0
:102EB000007F01D100230A449A420CD902252068E0
:102EC00005610133EFE74FF0FF31F0E7B3F5007F25
:102ED0004FF00101EED020684FF40035F0E700BF5D
:102EE00080BE020808B5034B0BB100F047F862B68C
:102EF000FFF7CEFF7D2F000808B5044B23B100F08B
:102F00005DF80349FFF7B8FFFFF7ECFFBD2F00089E
:102F10006BBF0208FDF7CAB908B500F063FC00F00A
:102F200027FDFCE720F0D8BD20F0DEBD32280BD80D
:102F3000064B03EB001043681A68437B343203F1FD
:102F40008043013B42F82310704700BF10BB0208CA
:102F500038B50C460546072104EB042400F046F87A
:102F6000A1B22846BDE83840FFF7E0BF0022036861
:102F70005B0103F18443C3F8002170474FF0FF3336
:102F800010B50A4C0A48C4F88030C4F88430FEF703
:102F9000EDFA0848FDF7F6FD0748FEF705FF4FF488
:102FA000002323604FF48013236010BD00E100E094
:102FB000CD1500086D2F0008F51B000810B5094B52
:102FC000094C18680B220221FDF7FCFF2068FEF770
:102FD000E1FD20684FF416520021FEF7C8FE20687C
:102FE00010BD00BF7CBE020888020020322838B520
:102FF0003BD8082939D8DFE801F00529171A1D2028
:103000001723260000240322184B00011D18297BDA
:103010001858FDF7D7FF686838B3697BCCB1BDE8B5
:1030200038400122FEF794BB00240422ECE7002480
:103030002246E9E700240922E6E700240822E3E724
:1030400001240B22E0E701240F22DDE70024072200
:10305000DAE702684B1E02F1404220329B0003EB8C
:10306000C2039B0003F184431C6038BD10BB0208FF
:1030700008B501211048FDF7C3FA02210F48FDF7FA
:10308000BFFA03210E48FDF7BBFA04210D48FDF7F6
:10309000B7FA05210C48FDF7B3FA06210B48FDF7F6
:1030A000AFFA07210A48FDF7ABFABDE8084008214E
:1030B0000848FDF7A5BA00BF1C120020201200200E
:1030C00024120020281200202C1200203012002090
:1030D000341200203812002032280DD8074B00018E
:1030E00019181B58097B1B689A6801238B401342EF
:1030F00014BF0120002070470020704710BB020859
:10310000322810B50ED8084B00011C181B58B1FA14
:1031100081F11A680123207B49098340090103FAE0
:1031200001F1116110BD00BF10BB02080A4A0B4B30
:1031300011689B6800BF00BF12688A42F6D1482020
:10314000C3F58C3303F5A073B3FBF0F34FF47A703F
:1031500000FB0230704700BF9C25002010E000E01B
:1031600038B50446FFF7E2FF05465CB1FDF772FC97
:10317000FFF7DCFF401BB0F57A7FF6D3013C05F585
:103180007A75F5D138BD28B10C234343013B18466D
:103190000138FDD8704700000449054BCA6822F485
:1031A000E0621204120C1343CB60704700ED00E0A4
:1031B0000003FA05704701207047000013B5104C5A
:1031C000204614F0BEFD2046042114F053FD204695
:1031D00002220C4914F052FD002302220A490093F6
:1031E0002046A02314F0B0FD204614F0A3FD204695
:1031F00014F092FD204602B0BDE8104014F093BDDB
:1032000044120020EB0500203E12002024280AD0A2
:10321000252807D10123054A32F81330044AC3F3A5
:103220008903138070470023F5E700BF3E1200209A
:103230003C120020044B03EB00135B6813B1C0B2D7
:10324000FFF786BE704700BF10BB0208024B034861
:10325000196814F00DBD00BF1C00002044120020AE
:1032600010B5074C032294F84C10206CFDF7AAFE11
:10327000236C94F84C101A6801238B40136110BD25
:1032800010BB0208062838B58CBF00250A4B0B4C32
:1032900098BF1D5C2046E46613F00BFA29462046D1
:1032A00013F019FA2046012113F022FA2046BDE856
:1032B0003840002113F029BA90BF0208782400207A
:1032C000FF21014813F03CBA782400200B46024647
:1032D0000021014813F0F2BA782400200146014889
:1032E00013F078BB7824002070B50D46064C0146DB
:1032F000204613F06FFB29462046BDE870400123AD
:103300004FF4007213F05ABB782400200228F8B55D
:1033100006460D4639D0052836D100262C4C02220F
:10332000236801215B0103F184431E602046FEF700
:103330000FFA28494FF6FF70B1FBF5F111228142D7
:1033400028BF014623685E629A62D8629A69204665
:1033500022F0FF029A6159635B0103F1844301216A
:10336000DE611D4AFEF756F901213220FDF774FF98
:10337000012223685B0103F18443C3F880222368A0
:103380005B0103F184431A60F8BD0027134C024629
:10339000236801215B0103F184431F602046FEF78F
:1033A000D7F940F2E73223680D495F62B1FBF5F1CE
:1033B0009A624FF6FF72914228BF1146DA622046A8
:1033C0005963084A0121FEF725F931461C20CDE753
:1033D0001802002000093D00092C0108AC01002062
:1033E00040190100AD3D010802280CD005280CD180
:1033F000074B1B685B0103F18443D3F88401003061
:1034000018BF01207047034BF3E70020704700BF4F
:1034100018020020AC010020013807289ABF024B97
:1034200053F820000020704798BF02080120014B8C
:10343000187070475412002008B514F047FD0022A0
:10344000014B01201A7008BD541200202DE9F843E9
:103450001B4D98462B7806460C46174683B114F050
:1034600029FD184814F0DEFC052802D00120BDE833
:10347000F883154814F0D6FC0528F7D100232B70EB
:10348000254607EB04094D45A5EB04030DD0306834
:1034900015F8011B00F1806000F5FC301844400075
:1034A00014F0E2FC0528EED0E0E7BAB2404621462F
:1034B0000BF012F9326800203A443260D7E700BFBF
:1034C0005412002000F0030800F803082DE9F74328
:1034D00005460F4690461E4600249DF828902A680F
:1034E0004445224413D002F1806202F5FC325200BE
:1034F00013788DF80730B9F1000F00D03B55012249
:103500000DF1070130460BF0E7F80134E7E7002042
:103510002A6003B0BDE8F083FDF796BE70470368EC
:10352000C9B21B68184700000023054A9A56824218
:1035300004D00133172BF8D10020704701207047C9
:103540000CC1020808B500F05FFABDE80840014868
:1035500000F048BAF2BF020808B50DF0B9FF0EF04E
:1035600025F8FE200DF04CF9BDE808400DF026B915
:10357000124AD2F8803092F88C101868012303FAAE
:1035800001F109040161D2F81011086892F81C11C8
:1035900003FA01F109040161D2F82012086892F8D7
:1035A0002C1203FA01F109040161D2F8D01292F849
:1035B000DC22096893401B040B61704710BB0208B2
:1035C000044BD3F8D02293F8DC12012312688B400D
:1035D0001361704710BB0208012130B4124BD3F8BD
:1035E0008020106893F88C2001FA02F202610F48E3
:1035F000027822F001040470D3F81041256893F892
:103600001C4101FA04F42C6122F003040470D3F885
:10361000204293F82C322468994022F0070221615D
:10362000027030BCFFF7CCBF10BB02082F17002080
:1036300008B540F2E933013B08D000BF00BF00BF2E
:1036400042F62F22013A00BFFCD1F4E772B640F2F5
:10365000E933013B08D000BF00BF00BF41F2931225
:10366000013A00BFFCD1F4E710F00AF8FFF754FF6D
:10367000FCE70000044608B510F002F800F0C4F9B9
:10368000054800F0AFF90548002C18BF20460AF0A5
:10369000F5FEFFF7CDFF00BF0AC0020801C0020817
:1036A00070B5374B05461B78032B01D803F0CAFDD4
:1036B000344B354A1B6814689BB1344909680B4484
:1036C000E31A002B0DDB00F09FF9314B31481968EC
:1036D00000F0A0F90A213048FFF721FF0020FFF792
:1036E000C9FF2E4B1B6843B12D4908782D49097835
:1036F00088420ED01268254B1A602B4D00F09AFDBF
:103700002B68E31A002B03DB64340DF075FE2C608C
:1037100070BD264A85BB1D4909680B44E31A002B7E
:103720002ADB1378002BE8D101231370204AD2F84A
:103730008010086892F88C1003FA01F101611D48AD
:10374000017821F001050570D2F810512E6892F829
:103750001C5103FA05F5356121F003050570D2F817
:10376000205292F82C222D68934021F007012B6102
:103770000170FFF725FFC0E700231370BDE700BF0E
:103780003C140020601200209C25002070120020B4
:1037900080120020B8BF02085C100020F005002055
:1037A000F91C0020FA1C0020581200205C12002096
:1037B00010BB02082F17002008B50AF0ADFC02F07C
:1037C00019FA0020FFF76CFF10F056F80AF00EFF10
:1037D000034B1B781BB9BDE8084010F0A1BD08BD24
:1037E0006412002037B5FFF7D7FC4C4A136823F06A
:1037F000E06343F0007313600FF08EFA4FF4E13191
:103800004748FCF7EBFE474B47481B6800F0EAF8D7
:1038100000F0F4F8FFF7CFFCC507044602D5434893
:1038200000F0E0F8A00702D5414800F0DBF861079E
:1038300002D5404800F0D6F8220702D53E4800F0F5
:10384000D1F8A30602D53D4800F0CCF8FFF7B2FC52
:103850003B4800F0C7F820213148FFF760FE3948A7
:1038600000F0C0F80A212E48FFF759FE00F0C6F814
:10387000354800F0B7F8354800F0B4F8344800F0A7
:10388000B1F800F0BBF8334800F0ACF800F0B6F83F
:103890000020FCF7BFFD0DF10701091A2E4800F0CA
:1038A000C5F82E4C4FF4A8612D4800F0BFF80A214E
:1038B0001B48FFF734FE0AF083FB0AF0EBFD04F02F
:1038C00077FE237823B90CF0ADFD08B101232370F6
:1038D000244C254D2168286814F0F4FF69682060A5
:1038E000606814F0EFFFA9686060A06814F0EAFF58
:1038F000A0600CF063FF1D480FF0C2FD0BF0FAFA58
:103900000CF0CAFD0EF090FEFFF708FE01231A46E8
:103910001946184600F08AF903B030BD0400014092
:103920005C1000209C25002021E202082EC0020825
:1039300037C0020848C002085AC002086BC002081B
:103940007CC0020883C0020891C00208A1C002081E
:10395000ACC00208CFC00208E6C002085512002021
:10396000F5C002083C1700205C170020941F0020BF
:1039700008B512F0C3FC144B1B789B0617D512F048
:10398000D5F803F033F9FFF7E7FD0BF08BFA0FF0F2
:1039900077FE002108460FF0C7FB012000210FF041
:1039A000C3FB0022094B0A481A7003F0BBF9094B0C
:1039B0001B78032B01D803F045FC03F0B9FA0CF097
:1039C00067FEFFF7F9FED4E7A0230020F4050020EE
:1039D0002AC002083C140020014811F0FBBE00BFC1
:1039E0005D12002010B5044614F9011B19B10248FC
:1039F000FFF795FDF8E710BD5C1000200148FFF7C8
:103A0000F1BF00BF35C102080148FFF7EBBF00BF9F
:103A10002EC1020810B50C46FFF7E4FF2146BDE8B1
:103A200010400148FCF7AABE5C10002010B50C46FF
:103A3000FFF7D8FF2146BDE810400A220148FCF7F5
:103A400003BF00BF5C10002010B50C46FFF7CAFF93
:103A50002146BDE810400A220148FCF708BF00BF1C
:103A60005C10002013B50C46FFF7BCFF204614F095
:103A700099FB02230246009302480B46FCF7D0FF55
:103A800002B010BD5C10002010B50C46FFF7AAFF75
:103A90002146BDE810400A220148FCF7FFBE00BFE6
:103AA0005C100020034A044B002814BF104618463F
:103AB000FFF798BF0FC6020822C50208034A044B4D
:103AC000002814BF10461846FFF78CBF23C1020818
:103AD00028C1020810B50446322C06D93220323CE7
:103AE000FFF73EFB0FF0C8FEF6E72046FFF738FB76
:103AF000BDE810400FF0C0BE10B50B6804461B694E
:103B0000084698472379C0F3400210F01E0F60F377
:103B1000000362F3410314BF0122002262F3820317
:103B200020602371204610BD08B558210148FFF7D9
:103B3000F6FC08BD5C10002008B559210148FFF7CC
:103B4000EEFC08BD5C10002008B55A210148FFF7C3
:103B5000E6FC08BD5C10002008B545210148FFF7D0
:103B6000DEFC08BD5C100020F7B53C2400680D4663
:103B7000B0FBF4F74FF46161B7FBF4F3B0FBF1F184
:103B800004FB13738EB2A2B11821B6FBF1F2104CF4
:103B900001FB1266B0FBF4F400932246B3B20D4968
:103BA000284620F003FE0A2C34BF0820092003B069
:103BB000F0BD632E8AB205D80749284620F0F6FDED
:103BC0000520F4E70549284620F0F0FD0620EEE741
:103BD000805101000DC2020811C202081BC2020876
:103BE00010B504460C48FFF7FDFE102221680B4873
:103BF000FCF75EFE23799A0702D50948FFF7F2FE2B
:103C000023795B0702D50748FFF7ECFEBDE81040BB
:103C10000548FFF72FBD00BF7AC102085C100020E5
:103C200095C10208A6C10208BAC10208F8B50D463E
:103C300017461E46002800F095805248FFF7D2FE36
:103C4000FFF772FF5048FFF7CDFE504813F0BBFF5F
:103C50000446002800F084804D48FFF7C3FE012C85
:103C60007CD04C484C4B022C18BF1846FFF7BAFECC
:103C70000A214A48FFF753FC003418BF01240DB352
:103C80004048FFF7AFFEFFF757FF3F48FFF7AAFE98
:103C9000434813F098FF0546002867D03C48FFF7DB
:103CA000A1FE012D60D03B483B4B022D18BF1846AA
:103CB000FFF798FE002D18BF01340A213748FFF79F
:103CC0002EFCE4B20FB32F48FFF78CFEFFF73CFF4A
:103CD0002D48FFF787FE334813F075FF054600288F
:103CE00048D02B48FFF77EFE012D41D029482A4BB2
:103CF000022D18BF1846FFF775FE002D18BF0134BE
:103D00000A212648FFF70BFCE4B206B31D48FFF773
:103D100069FEFFF721FF1C48FFF764FE224813F0FD
:103D200052FF054650B31A48FFF75CFE012D23D021
:103D30001848194B022D18BF1846FFF753FE002DE7
:103D400018BF01340A211548FFF7E9FBE4B2BCB102
:103D5000BDE8F840002115480AF0B0B9144885E7DD
:103D60000D4883E704468AE71148A1E70A489FE720
:103D70000F48C0E70848BEE70D48DEE70648DCE725
:103D8000F8BD00BFD3C10208DCC10208481E0020F4
:103D9000ECC10208CFC10208C7C102085C100020B4
:103DA000881E0020C81E0020081E0020F8C102083E
:103DB000CAC1020830B589B004460D46014602A8C2
:103DC000FFF79AFE029B013B03336BD8002D69D0AD
:103DD0009DF80C2094F83D30900765D5013384F8A8
:103DE0003D3094F83D30092B08D90A213348FFF7BC
:103DF00096FBFFF799FE02A8FFF7F2FE9DF80C3044
:103E0000D90722D594F83C30FBB90BF085F82C4A41
:103E10000190904294BF0022012204A901A8FFF75B
:103E2000A3FE0A212548FFF77AFB04A92348FCF7E3
:103E3000A5FC2448FFF7D6FDFFF776FE2248618FE8
:103E4000FFF7F4FD2148FFF7CDFD9DF80C3013F08E
:103E5000010F94F83C302BD0042B1DD92046658FE0
:103E600013F0D0FC90B1642D10D9A5F1320189B2C4
:103E70006187204613F030FEFFF756FE618F14482D
:103E8000FFF7D4FD0A210D48FFF749FB9DF80C20F0
:103E900094F83C30D2070BD5013384F83C30012331
:103EA00084F83E3009B030BD002B9AD0013B96E734
:103EB000002BF7D0002384F83C30F3E75C1000209F
:103EC00080510100E2E102083BC102085EC1020824
:103ED00063C1020830B589B004460D46014602A808
:103EE000FFF70AFE029B013B03336BD8002D69D01C
:103EF0009DF80C2094F83D30900765D5013384F887
:103F00003D3094F83D30092B08D90A213348FFF79A
:103F100006FBFFF711FE02A8FFF762FE9DF80C30CA
:103F2000D90722D594F83C30FBB90AF0F5FF2C4AAA
:103F30000190904294BF0022012204A901A8FFF73A
:103F400013FE0A212548FFF7EAFA04A92348FCF7E3
:103F500015FC2448FFF746FDFFF7EEFD2248618F70
:103F6000FFF764FD2148FFF73DFD9DF80C3013F08D
:103F7000010F94F83C302BD0042B1DD92046658FBF
:103F800013F040FC90B1642D10D9A5F1320189B233
:103F90006187204613F0A0FDFFF7CEFD618F144826
:103FA000FFF744FD0A210D48FFF7B9FA9DF80C20F0
:103FB00094F83C30D2070BD5013384F83C30012310
:103FC00084F83E3009B030BD002B9AD0013B96E713
:103FD000002BF7D0002384F83C30F3E75C1000207E
:103FE00080510100E2E102083BC102085EC1020803
:103FF00063C1020830B589B004460D46014602A8E7
:10400000FFF77AFD029B013B03336BD8002D69D08B
:104010009DF80C2094F83D30900765D5013384F865
:104020003D3094F83D30092B08D90A213348FFF779
:1040300076FAFFF789FD02A8FFF7D2FD9DF80C3054
:10404000D90722D594F83C30FBB90AF065FF2C4A19
:104050000190904294BF0022012204A901A8FFF719
:1040600083FD0A212548FFF75AFA04A92348FCF7E3
:1040700085FB2448FFF7B6FCFFF766FD2248618FF9
:10408000FFF7D4FC2148FFF7ADFC9DF80C3013F08E
:10409000010F94F83C302BD0042B1DD92046658F9E
:1040A00013F0B0FB90B1642D10D9A5F1320189B2A3
:1040B0006187204613F010FDFFF746FD618F14481D
:1040C000FFF7B4FC0A210D48FFF729FA9DF80C20F0
:1040D00094F83C30D2070BD5013384F83C300123EF
:1040E00084F83E3009B030BD002B9AD0013B96E7F2
:1040F000002BF7D0002384F83C30F3E75C1000205D
:1041000080510100E2E102083BC102085EC10208E1
:1041100063C1020830B589B004460D46014602A8C5
:10412000FFF7EAFC029B013B03336BD8002D69D0FB
:104130009DF80C2094F83D30900765D5013384F844
:104140003D3094F83D30092B08D90A213348FFF758
:10415000E6F9FFF701FD02A8FFF742FD9DF80C30DC
:10416000D90722D594F83C30FBB90AF0D5FE2C4A89
:104170000190904294BF0022012204A901A8FFF7F8
:10418000F3FC0A212548FFF7CAF904A92348FCF7E4
:10419000F5FA2448FFF726FCFFF7DEFC2248618F82
:1041A000FFF744FC2148FFF71DFC9DF80C3013F08D
:1041B000010F94F83C302BD0042B1DD92046658F7D
:1041C00013F020FB90B1642D10D9A5F1320189B212
:1041D0006187204613F080FCFFF7BEFC618F144816
:1041E000FFF724FC0A210D48FFF799F99DF80C20F0
:1041F00094F83C30D2070BD5013384F83C300123CE
:1042000084F83E3009B030BD002B9AD0013B96E7D0
:10421000002BF7D0002384F83C30F3E75C1000203B
:1042200080510100E2E102083BC102085EC10208C0
:1042300063C1020808B50F490F4B0A681B689A1A38
:10424000002A16DB03F5FA730B60002201210B48EC
:10425000FFF7B0FD002201210948FFF73BFE0022D5
:1042600001210848FFF7C6FE002201210648FFF79A
:1042700051FF08BD681200209C250020481E002028
:10428000881E0020C81E0020081E00204138C3B22E
:10429000192B2DD8174A1068D84010F0010028D0EB
:1042A000154AD25C12B3154B19688B188A56A2F1C5
:1042B0003001C9B2092906D92E2A08D15A78303AD4
:1042C000092A88BF00230E4A0120136070472D2A57
:1042D00001D02B2A0AD193F90110A1F13002D2B2F8
:1042E000092AF0D92E2901D19A78E8E70023EAE7D4
:1042F00000207047A41200208612002080120020A7
:10430000A812002008B5FFF7C1FF20B1024B1868C2
:10431000003018BF012008BDA8120020034B186808
:1043200018B10A22002121F0F9BF7047A81200201D
:104330002DE9F74F4E4B05461B7803F00703072B7B
:1043400070D00DF033F90CF0DBFA01200CF0C0F85E
:104350005820FFF79BFF04465920FFF797FF804640
:104360005A20FFF793FF81461DB9444504D184428A
:1043700002D10124A046A1463E4E3F4FB24697E8E7
:104380000F0086E80F005220FFF7BCFF00286CD01A
:104390003A4B186850B30246934612F9016B36F057
:1043A00020015ED0452E01D0652EF5D100218BF87D
:1043B0000010186821F0D2FE05468BF8006000213D
:1043C000284614F01BFD88B914B9B8F1000F17D0B6
:1043D000CAF808502946B86814F01AFD30B1002315
:1043E00002A941F8043D26480CF07EFA14B10020E1
:1043F0000CF00EFCB8F1000F02D001200CF008FC0C
:10440000B9F1000F02D002200CF002FC0CF0D6F93A
:104410000CF016F80CF088FA03221A4B1A700CF004
:104420009DF914E04F20FFF76DFF98B1134B1B6807
:104430006BB1FFF773FF002883DBFFF76FFFFF28E7
:1044400005DCFFF76BFF10F0FF0F3FF47AAF03B00E
:10445000BDE8F08F4F20FFF719FF00283FF471AF40
:10446000F5E721F07BFE0546A9E7074DACE700BF65
:104470002E1700204C1700203C170020A812002007
:1044800054170020100600200000A04038B50D4B46
:104490001868A8B10246154612F9014B34F0200104
:1044A0000AD0452C01D0652CF5D10021297018685F
:1044B00021F054FE2C7038BDBDE8384021F04EBECE
:1044C0000020F8E7A812002070B501F093F8051E4F
:1044D00026DB4420FFF7DAFED8B1FFF7D7FF002133
:1044E00006464FF0010414F089FC08B14FF00004B7
:1044F0000C4B00211C70304614F080FC48B9FFF7CB
:10450000C5FF0021044614F079FC074B28B943F895
:104510002540BDE870400CF09DBF044A1A60F8E7E2
:1045200070BD00BF85120020E41C00200000E03FA9
:1045300010B501F05FF8002813DB0024094B185771
:10454000FFF7A4FE30B1FFF7A1FF14F0AFFC064B5C
:1045500043F824000134042CF0D1BDE810400DF0E4
:1045600021BE10BD23C20208401D002010B501F07D
:1045700041F800280EDB0024074B1857FFF786FE92
:1045800028B1FFF783FF054B03EB84035862013426
:10459000042CF1D110BD00BF23C20208401D002031
:1045A00008B5214B214A1B681A423CD04220FFF734
:1045B0006DFE40B11E4B186818B10A22002121F08F
:1045C00069FF1C4B18615320FFF760FE18B1FFF71D
:1045D0005DFF184B18645420FFF758FE18B1FFF721
:1045E00055FF144B58645820FFF750FE18B1FFF7E1
:1045F0004DFF114B18605920FFF748FE18B1FFF727
:1046000045FF0D4B58605A20FFF740FE18B1FFF7E9
:104610003DFF094B98604520FFF738FE18B1FFF7C2
:1046200035FF054BD86008BDA412002012008C0392
:10463000A8120020401D0020201D002010B51D4B99
:104640001B6813F4682F12D11B4C1C48616BFFF7D9
:1046500009FAA16B1A48FFF705FAE16B1948FFF751
:1046600001FABDE810400A211748FBF763BF532049
:10467000FFF748FE20B1FFF709FF0F4B5863D863DF
:104680005020FFF73FFE18B1FFF700FF0A4B5863B9
:104690005220FFF737FE18B1FFF7F8FE064B98637C
:1046A0005420FFF72FFE18B1FFF7F0FE024BD8633E
:1046B00010BD00BFA4120020401D002027C2020828
:1046C00037C202083AC202085C10002008B5194B34
:1046D0001B685B0304D5184B9A7C184B0AB91A6007
:1046E00008BD1749096888188A56A2F13001C9B275
:1046F000092905D92E2A0BD14278303A092A0BD83C
:104700000A220021186021F009FE0E4B1880E7E70D
:104710002D2A03D02B2A01D00022E0E790F90110C6
:10472000A1F13002D2B2092AEAD92E29F4D1827835
:10473000E3E700BFA412002086120020A812002088
:10474000801200201806002038B500F053FF041E28
:1047500047DB2D4B2D4D1B6813F4802F04D02C4BC1
:104760009A7C2C4BCAB91A60FFF748F945212A48B0
:10477000FEF7D5FE04F130012748FEF7D0FE35F9EB
:1047800014102648FFF752F925212348FEF7C7FEEB
:104790000A212148FEF7C3FE23E021490968881851
:1047A0008A56A2F13001C9B2092905D92E2A19D198
:1047B0004278303A092A19D80A220021186021F0DB
:1047C000ADFD00B225F8140014F030F9154914F0CD
:1047D00081F9154B53F8241014F07CF9134B43F86E
:1047E000240038BD2D2A03D02B2A01D00022BAE79D
:1047F00090F90110A1F13002D2B2092ADCD92E2998
:10480000F4D18278D5E700BFA4120020440600202E
:1048100086120020A81200205C1000203DC2020871
:10482000801200200AD7233C001D002048060020EB
:1048300010B54520FFF72AFD002837D15020FFF79B
:1048400025FD264C10B1FFF721FEE0604920FFF75F
:104850001DFD28B1FFF71AFE214914F03BF9206134
:104860004420FFF713FD28B1FFF710FE1C4914F098
:10487000E5F96061FFF7C2F8E1681A48FFF7F2F85E
:104880002069174914F0DAF901461748FFF7EAF8EA
:104890006069134914F01EF901461448FFF7E2F865
:1048A000BDE810400A211248FBF744BE114B1B68BB
:1048B000002BC3D0FFF732FD0028BFDBFFF72EFD32
:1048C000FF2804DCFFF72AFD10F0FF0FB6D0FFF73A
:1048D0009BF8BDE810400848FFF784B8081F002087
:1048E0000AD7233E45C2020849C202084DC2020847
:1048F0005C100020A812002051C2020870B553209D
:10490000FFF7C4FC0546F0B12F4B186800283AD0D9
:104910000246164612F9014B34F0200130D0452CE6
:1049200001D0652CF5D100213170186821F016FCFA
:10493000347014F095FA254B00B21880B0FA80F06C
:10494000234B400918705020FFF7A0FC0446F0B13B
:104950001E4BB3F9003083B11B4B1B686BB1FFF7E3
:10496000DDFC002811DBFFF7D9FCFF2805DCFFF791
:10497000D5FCC0B2041C18BF0124154B1C7070BDBF
:1049800021F0ECFBD5E70020D3E70024F5E7002D6C
:10499000F5D1FFF733F80F48FFF724F80C4B0E4A18
:1049A00018780E4B002814BF10461846FFF71AF867
:1049B000064B0B48B3F90010FFF738F8BDE870401C
:1049C0000848FFF70FB800BFA81200205A060020C1
:1049D0003C1F002067C2020862D8020863C20208B6
:1049E0007AC202088BC2020810B5C0B1FFF706F800
:1049F0000D4C0E486169FFF735F8A1690C48FFF7C7
:104A000031F8E1690B48FFF72DF8216A0A48FFF7F2
:104A100029F8BDE810400A210848FBF78BBD20218A
:104A20000648FBF787FDE3E7401D00208FC2020820
:104A300022D9020829D902083FDE02085C100020B2
:104A40002DE9F04100F0D6FD011E4ADB264B274A36
:104A50001B681A4204D1BDE8F0410120FFF7C4BF32
:104A60000025234B5857FFF711FC68B3214B1B68F7
:104A700053B3032D204C2ED1FFF708FD1F490746E5
:104A800014F0C6F9F8B13946206A14F0D7F8DFF807
:104A9000708006460146D8F80C0014F01BF8314629
:104AA000C8F80C00206B14F015F8DFF8588020636C
:104AB000D8F80C0013F0B6FF314614F00BF814F0E0
:104AC000F5F9C8F80C0027620135042DC9D1BDE8FD
:104AD000F0410DF08BBBFFF7D9FC04EB850460615E
:104AE000F2E7BDE8F08100BFA412002010008003AF
:104AF00096C20208A8120020401D00200000A0411C
:104B0000201D0020101D00200023024A1370024ABD
:104B10001370704765120020F40500200020FEF796
:104B2000A9BDFEF719BD000070B55320FFF7AEFB1D
:104B3000204D28B15320FFF7A9FB20BB002028708F
:104B4000FEF75CFF1C48FEF74DFF2B786BB300248B
:104B500023462A78E240D2070CD55E1CF6B21BB180
:104B60002C211648FBF7E6FC154B53F82400FEF702
:104B700039FF33460134052CEBD1BDE870400A21E2
:104B80000E48FBF7D7BC0F4B1B68002BD6D0FFF7A6
:104B9000C5FB0028D2DBFFF7C1FBFF2803DCFFF7D2
:104BA000BDFBC0B2CBE7FF20C9E70748FEF71AFFFD
:104BB000E3E700BF661200209AC202085C100020E2
:104BC000CCC20208A8120020A1C2020801200BF0EA
:104BD00059BC00200BF056BC08B50021034809F071
:104BE0006DFABDE80840FEF7C3BC00BFE0C2020892
:104BF00038B55320FFF74AFBF0B13A4B1868D8B1EB
:104C00000246154612F9014B34F0200111D0452C13
:104C100001D0652CF5D100212970186821F09EFA89
:104C20002C70314913F056FF14F040F92F4B1860E7
:104C300038BD21F093FAF4E75820FFF727FB78B945
:104C40005920FFF723FB58B95A20FFF71FFB38B94B
:104C50004520FFF71BFB18B9BDE838400CF080BCBD
:104C60000CF0A4FC5820FFF711FB68B1204BD3F8DF
:104C7000802093F88C10012312688B4013611D4A29
:104C8000137823F0010313705920FFF7FFFA68B17E
:104C9000174BD3F8102193F81C11012312688B4095
:104CA0001361144A137823F0020313705A20FFF79C
:104CB000EDFA68B10E4BD3F8202293F82C120123A1
:104CC00012688B4013610B4A137823F004031370AE
:104CD0004520FFF7DBFA0028AAD0BDE83840FEF7F0
:104CE0006FBC00BFA812002000007A44F00500202D
:104CF00010BB02082F17002038B5FEF77FFE424890
:104D0000FEF770FE414B424C1B6813F4802F1CD001
:104D1000404B997C404B11B91960012014E03F4A87
:104D2000106842184156A1F13000C0B2092805D9D7
:104D30002E294BD15178303909294BD81A60FFF709
:104D4000EDFA002854DA00202070354D2078354CDB
:104D5000FEF7A8FE3448FEF745FE2968206813F0E8
:104D6000B1FD01463148FEF77DFE6968A06813F089
:104D7000A9FD01462E48FEF775FEA968206913F0CB
:104D8000A1FD01462B48FEF76DFE2B48FEF72AFEDB
:104D90002968606813F096FD01462448FEF762FE1C
:104DA0006968E06813F08EFD01462148FEF75AFE5F
:104DB000A968606913F086FD01461E48FEF752FEA1
:104DC000BDE838400A211D48FBF7B4BB2D2904D0AB
:104DD0002B2902D000221A609FE792F90100A0F16E
:104DE0003001C9B20929A9D92E28F3D19178A2E7B7
:104DF000FFF794FAFF2890DCFFF790FAC0B200307A
:104E000018BF0120A0E700BFE9C20208A4120020D9
:104E10003406002086120020A812002080120020F4
:104E2000781700201C060020F9C20208DEDC020808
:104E300022D9020829D9020801C302085C10002007
:104E400010B50C46FFF722FA38B1054B186820B1AF
:104E50000A22002121F062FA04B2204610BD00BFF0
:104E6000A812002038B55020FFF710FA90B30021A7
:104E70005020FFF7E5FF4FF0FF3105465320FFF7C5
:104E8000DFFF431C022B044624D868B2002821DB34
:104E9000FEF74AFB18B1BDE83840FEF753BBEDB250
:104EA0000CF084FB02212846FEF7A0F8621C0AD011
:104EB000631E5C425C412846FEF70EF9A04209D011
:104EC000FEF77AFCF7E72846FEF706F9B0FA80F419
:104ED0006409F0E738BD0CF069BB08B5FFF71EFAAE
:104EE000002807DBFFF71AFAFF2805DCFFF716FAA0
:104EF000C0B208BD0020FCE7FF20FAE770B55320E0
:104F0000FFF700FAB0B3FFF7E8FF05465020FFF7C0
:104F1000F9F978B3FFF702FA030404462AD446B23B
:104F20004920FFF7EFF968B1144B1B687BB1FFF71D
:104F3000D4FF60B93046FEF7F7FA40B1BDE87040E3
:104F4000FEF700BB4920FFF7A1F90028F2D0E4B238
:104F500000212046FEF74AF829462046FEF7D0F801
:104F600029463046FEF766F9102E04D0282E01D1CE
:104F7000034B1D7070BD024B5D70FBE7A812002053
:104F8000601F002008B50EF07BFB09F08BFF0CF0D2
:104F9000E7FA002108460EF0C7F8002101200EF0C4
:104FA000C3F84FF47A70FEF795FDBDE80840002184
:104FB000014809F083B800BF09C3020838B5244B83
:104FC0001B685B030CD5234B9A7C234B4AB900200A
:104FD0001A60224913F07EFD13F068FF204B186021
:104FE00038BD2049096888188A56A2F13001C9B233
:104FF000092905D92E2A16D14278303A092A16D81D
:1050000002461860154612F9014B34F020011BD0FE
:10501000452C01D0652CF5D100212970186821F0AC
:105020009DF82C70D5E72D2A03D02B2A01D0002221
:10503000CDE790F90110A1F13002D2B2092ADFD9EF
:105040002E29F4D18278D8E721F088F8C1E700BF93
:10505000A412002086120020A812002000007A442A
:105060006012002080120020012208B5114B53204D
:105070001A700022104B1A70FFF708F9A0B10F4BFD
:105080001B688BB1FFF74AF9002803DABDE8084036
:1050900001F096BFFFF742F9FF2804DCFFF73EF965
:1050A00010F0FF0FF2D008BD5320FFF7EFF80028F3
:1050B000ECD0F8E7ED050020A3160020A812002090
:1050C00000210FF0E7BA09F0A7BF0BF0ABB90AF067
:1050D00043BA000010B55320FFF7D8F80446A8B132
:1050E0000E4B1B6893B1FFF719F9002813DBFFF78C
:1050F00015F9FF2805DCFFF711F9C0B2041C18BF31
:1051000001242046BDE810400AF0BCBA5320FFF746
:10511000BDF80124F5E70024F3E700BFA812002042
:1051200008B50BF073F930B1FEF768FCBDE8084034
:105130000148FEF757BC08BD19C3020837B5002463
:1051400001250194114B1857FFF7A0F818B101225F
:10515000002501ABE2540134042CF3D145B1012305
:105160008DF804308DF805308DF806308DF8073055
:105170009DF807309DF806209DF805109DF8040065
:1051800003B0BDE83040FEF751BD00BF24C30208A4
:105190002DE9F0415320FFF779F8054600283CD06F
:1051A000474E326822B1FFF798FE051C18BF012553
:1051B00000F020FA80464920FFF768F818B13468FB
:1051C00014B1FFF78AFE044600263E4BF7B298570B
:1051D000FFF75CF870B1022F15D0032F17D0012F05
:1051E0000DD03CB9384885F0010180F83F50C9B274
:1051F00012F0D2F90136042EE7D1BDE8F081002C7F
:10520000F8D13248EFE7002CF4D13148EBE7B8F1A0
:10521000000FF2DBEED12F48E5E758212E48FEF7CC
:105220007EF92E48FEF7DEFB274812F0C0F92C4D20
:105230002C4C00280CBF28462046FEF7D3FB0A2141
:105240002548FEF76CF959212348FEF768F92348F1
:10525000FEF7C8FB1D4812F0AAF900280CBF28462B
:105260002046FEF7BFFB0A211B48FEF758F95A21DA
:105270001948FEF754F91948FEF7B4FB144812F028
:1052800096F900280CBF28462046FEF7ABFB0A2102
:105290001148FEF744F945210F48FEF740F90F4841
:1052A000FEF7A0FB0B4812F082F900280CBF28463D
:1052B0002046FEF797FB0A210748FEF730F99CE7E6
:1052C000A812002028C30208481E0020881E0020C3
:1052D000C81E0020081E00205C10002044C30208E5
:1052E0002CC3020838C302082DE9F0414920FFF71A
:1052F00009F8F8B90026002701253C4B5FFA87F82A
:10530000D857FEF7FFFF10B1FFF708F800B284B2DC
:1053100084B3B8F1020F1FD0B8F1030F20D0B8F159
:10532000010F15D026B932484487214612F0D4FB2C
:1053300000251FE0FEF7F2FF0028DBDBFEF7EEFFA3
:10534000FF2803DCFEF7EAFFC6B2D4E7FF26D2E768
:10535000002EEDD12748E7E7002EE9D12648E3E704
:1053600000F048F9051E3EDBE2D12448214644877F
:1053700012F0B2FB0137042FBFD1002D33D05821DA
:105380001F48FEF7CCF81A4B1E48598FFEF74EFB0C
:105390000A211B48FEF7C3F859211948FEF7BFF848
:1053A000144B1848598FFEF741FB0A211448FEF7A9
:1053B000B6F85A211248FEF7B2F80F4B1148598F30
:1053C000FEF734FB0A210E48FEF7A9F845210C48E8
:1053D000FEF7A5F8094B0B48598FFEF727FB0A216A
:1053E0000748FEF79CF8BDE8F08100BF53C30208F0
:1053F000481E0020881E0020C81E0020081E002015
:105400005C10002057C3020810B50C46FEF73EFFA3
:1054100068B10A4B1B6853B1FEF780FF002808DB18
:10542000FEF77CFFFF2806DCFEF778FFC4B22046BB
:1054300010BD0024FBE7FF24F9E700BFA8120020FD
:1054400038B5214C214D58212046FEF768F82846F2
:10545000FEF7C8FA1E4B93F83E00FEF72FFB0A2119
:105460002046FEF75CF859212046FEF758F82846FA
:10547000FEF7B8FA174B93F83E00FEF71FFB0A2120
:105480002046FEF74CF85A212046FEF748F82846F9
:10549000FEF7A8FA104B93F83E00FEF70FFB0A2127
:1054A0002046FEF73CF845212046FEF738F828460E
:1054B000FEF798FA094B93F83E00FEF7FFFA0A212F
:1054C0002046FEF72CF838BD5C10002069C30208A6
:1054D000481E0020881E0020C81E0020081E002034
:1054E0002DE9F0415820FEF7D1FE80465920FEF705
:1054F000CDFE07465A20FEF7C9FE06464520FEF7B8
:10550000C5FE0546B8F1000F61D1002F5FD1002E16
:105510005FD180F00104E4B2FF215820FFF774FF4F
:105520003CB940B2012804D0B8F1000F0CD00028DB
:105530000ADA0022294B582183F83E202848FDF73B
:10554000EEFF2848FEF74EFAFF215920FFF75CFFD7
:105550002CB940B2012802D067B100280ADA002233
:10556000214B592183F83E201D48FDF7D8FF1D48E7
:10557000FEF738FAFF215A20FFF746FF2CB940B258
:10558000012802D066B100280ADA0022174B5A21FE
:1055900083F83E201248FDF7C2FF1248FEF722FAB8
:1055A000FF214520FFF730FF24B940B210B195B17B
:1055B000002810DA00220E4B452183F83E200848CF
:1055C000FDF7ADFFBDE8F0410648FEF70BBA002439
:1055D000A2E73C46A0E7BDE8F08100BF481E0020DE
:1055E0005C1000208AC30208881E0020C81E00200C
:1055F000081E002010B55420FEF784FE48B3FEF7C5
:105600008DFE002821DBFEF789FEFF281FDCFEF758
:1056100085FEC0B244B2002C15DDFEF7EFF94D2136
:105620000D48FDF77CFF0D4B0A2219680A48FBF76D
:105630000BF921460A48FEF7F9F90A210648FDF759
:105640006EFF4FF0FF34204610BD0020E2E7FF2040
:10565000E0E70446F7E700BF5C100020A01200203E
:10566000E6C3020870B500241C4BA5001857FEF7CE
:1056700049FE1B4E58B3FEF709FF1A4A0346A25CC7
:1056800012B9194A1278DAB1184A1846515913F06A
:1056900019F9034673510134042CE5D14620FEF775
:1056A00031FE60B1FEF7F2FE002113F0CFFB30B106
:1056B000FEF7ECFE0E4913F0C1FA0E4B186070BDF8
:1056C000032CE7D00C4B595913F0FAF8E1E7074BDC
:1056D00053F8243046F82430DDE700BFA1C30208A8
:1056E0004C17002074120020741700203C17002073
:1056F00000007042140600207817002038B5054CD1
:105700002568054423685B1B002B02DAFEF754F87A
:10571000F8E738BD9C2500200122F8B5D04BD14CCC
:1057200093F9003094F900504D2B0746227026461D
:1057300039D0542B00F03582472B16D1CA4B18684C
:10574000042823D00ADC00280FDB904218DC00F08C
:1057500011FE0FB901F0D4FB3570CAE15A281CD0F4
:1057600007DC1528F5D01C2813D0C04801F020FA1A
:10577000EFE75B2815D05C28F7D100F079FAE8E76D
:10578000831E5842584100F0D5FFE2E701F0BAF815
:10579000DFE70020FEF7CCFDDBE70022B44B1A70F8
:1057A000D7E7B34BFBE7B04B1B68732B00F0B78117
:1057B00000F388804B2B00F07B8140DC182B00F03D
:1057C0005C811EDC122B00F0A18109DC002BCCDBFC
:1057D000012B40F33E81112BC7D1FFF7FDF9B8E74C
:1057E000152B00F0398104DC142BBED101F030FD03
:1057F000AFE7162B00F03E81172BB6D101F03CFD30
:10580000A7E71D2B00F045810CDC1A2B00F03B8133
:10581000C0F236811B2B00F039811C2BA5D101F081
:10582000EBFD96E71F2B00F04081C0F23581202B65
:1058300000F035812A2B98D1FFF760FB89E7692BAF
:1058400000F054811EDC532B00F05D810CDC4D2BED
:1058500000F03481C0F22F81512B00F05181522B86
:1058600083D102F0BFF874E7552B00F05281C0F2EB
:105870004D815C2B00F05081682B7FF476AF01F0F6
:10588000BDFE66E76E2B00F01C810DDC6B2B00F07B
:105890003481C0F22F816C2B00F019816D2B7FF4C5
:1058A00064AF01F0DBFE54E7702B00F01381C0F20F
:1058B0000B81712B00F01181722B7FF456AF00F039
:1058C00081FB46E7E22B00F0488157DCBE2B00F05D
:1058D0000A8129DC792B00F02B8112DC762B00F079
:1058E000218105DC752B7FF440AF00F0C7FC30E769
:1058F000772B00F01A81782B7FF437AFFFF766F92A
:1059000027E78C2B00F0EC8005DC7A2B7FF42DAFA1
:10591000FFF714FC1DE7912B00F00D819B2B7FF40A
:1059200024AF01F099FF14E7CD2B00F00D8112DCBC
:10593000C92B00F0038105DCC82B7FF416AFFEF7FE
:10594000C3FD06E7CB2B00F0FC80CC2B7FF40DAF22
:10595000FEF774FEFDE6D32B00F0F98005DCCE2BBC
:105960007FF403AF00F0F0F9F3E6DC2B00F0F280F7
:10597000DD2B7FF4FAAEFEF7E7FEEAE6B3F5FB7F38
:1059800000F0FD8035DCB3F5C87F00F0EF8018DC57
:1059900040F22D12934200F0E380B3F5977F06DAD0
:1059A000B3F5967F7FF4E1AE00F0C4FCD1E600F0E1
:1059B000DA8040F22F1293427FF4D7AE01F0A6FFB7
:1059C000C7E6B3F5D67F00F0D48006DCB3F5CD7F13
:1059D0007FF4CBAEFFF7A5F8BBE6B3F5FA7F00F096
:1059E000CB8040F2F51293427FF4BFAEFFF76DFB20
:1059F000AFE640F28A32934200F0CD8011DCB3F57D
:105A0000FC7F00F0C280C0F2BD80B3F5037F00F0E0
:105A1000BF8040F2392293427FF4A7AEFFF7B8FB74
:105A200097E6B3F5647F00F0B98007DC40F28F326F
:105A300093427FF49AAEFFF703FD8AE6B3F5687FE1
:105A400030D040F2E73293427FF48FAEFFF70CFB89
:105A50007FE600F091FB7CE601F00AFC79E600BFEE
:105A6000841200206C120020A0120020AC12002032
:105A70007417002001F0FEFB6BE601F00FFC68E6F6
:105A800001F020FC65E601F02DFC62E601F074FCFB
:105A90005FE601F0B9FC5CE601F0BEFC59E601F0FE
:105AA000CFFC56E601F022FD53E601F083FD50E6FF
:105AB00001F09EFD4DE601F09DFD4AE601F09CFDE2
:105AC00047E600F0E5F944E6FFF72EF841E6FFF778
:105AD0001BF83EE6FFF722F83BE600F017FA38E63F
