:020000040800F2
:1000000000C00020A5030008F10D0008F50D000850
:10001000F90D0008FD0D0008010E0008EF1400089E
:10002000EF140008EF140008EF140008EF140008A4
:10003000EF140008EF140008EF1400080115000881
:10004000EF140008EF140008EF140008EF14000884
:10005000EF140008EF140008450E0008650E0008B4
:10006000850E0008A50E0008C50E0008950C0008B6
:10007000AD0C0008C50C0008E10C0008FD0C0008E0
:10008000190D0008350D0008A10A0008EF1400083A
:1000900079200008EF140008EF140008E50E0008AE
:1000A000E5170008091800082D1800086518000851
:1000B000B91800082919000899190008FD1100084D
:1000C000151200080912000821120008EF14000898
:1000D000EF140008E51D0008351E0008851E000805
:1000E000290F0008EF140008EF140008C11A0008D7
:1000F000E51A0008091B0008411B0008F90A00085E
:10010000EF140008EF140008091A0008EF140008A3
:10011000D51E0008251F0008791A00089D1A00083E
:10012000510D0008690D0008810D00089D0D0008A3
:1001300010B5054C237833B9044B13B10448AFF321
:1001400000800123237010BD40100020000000003B
:10015000B8BB020808B5034B1BB103490348AFF312
:10016000008008BD0000000044100020B8BB020859
:1001700010B512490A2309220968114800F0EAF96A
:1001800010490323022209680F4800F0E3F90F49E0
:100190001B231A2209680E4800F0DCF90D492B23B5
:1001A0002A2209680C4800F0D5F9BDE810400B4937
:1001B00032232C2209680A4800F0CCB984020020BE
:1001C0005C10002088020020741000208C020020A7
:1001D0008C1000207C020020A4100020800200204F
:1001E000BC10002010B5044600F0DCFC034B204698
:1001F000BDE81040197800F03DBC00BF160000209B
:10020000F8B50446056801F0D7F9002223685B01C0
:1002100003F184431A6080232B600123AB622A61BF
:10022000EA606B61637973B1012B0FD001222368FF
:100230005B0103F18443C3F8802223685B0103F16F
:1002400084431A60F8BD4FF400436B644FF6FF72AD
:1002500000252368DA626E1CF7B23946204601F0A9
:10026000C0F9E8B148F6FF72236817F0010F03F1F7
:10027000340343F8252014BF6FF0FF026FF47F4270
:1002800023684FEA650503F1180353F8251001EAC6
:10029000020114BF68224FF4D0420A4343F82520DC
:1002A000042E3546D7D1C1E77047000038B5002588
:1002B000264A274C1368022043F01003136000F015
:1002C00055FE002001F008F865602368182023F42B
:1002D0000023236001F00CF8102001F009F800F071
:1002E00043F8A560102000F0F7FF102001F00EF891
:1002F0000028FAD000F039F8164801F013F8182059
:1003000000F0EAFF182001F001F80028FAD00220DE
:1003100000F0D2FF00214FF0006000F0B1FF0E4866
:1003200001F0E6F800F038F80C4B188800F022FCD9
:100330000B4800F023FC0B4801F018F900F02EF8F0
:1003400000F02DF8FFF7B0FF38BD00BF00200240DD
:10035000001002400C0000203F1901001400002092
:10036000E5010008010200087047002108B50846B1
:1003700001F018F84FF48061012001F013F800211A
:10038000022001F00FF82D2001F01CF8BDE8084014
:100390000021032001F006B800F0FCBD704700F01A
:1003A00038BE000001498D460149084700C00020C1
:1003B000B503000808B5114B1A68114B9A4213D1C6
:1003C000104B114A934213D324F0B8FC002211467B
:1003D000104602F0A1FD0D4B7BB124F04BFA52F810
:1003E000041B043343F8041C09498B42F7D3E7E7A5
:1003F0000022043343F8042CE3E7FEE7C0140308AB
:10040000000000204010002040260020754802080F
:100410004010002010B50D4B1A680AB90C4A1A603A
:100420001A680C49891A814204DB09494442511A6D
:10043000A14207DA24F018FA0C234FF0FF320360D0
:10044000104610BD10441860FAE700BFD410002019
:1004500040260020F88D0328002070474FF40053F9
:1004600000204B607047012070474FF0FF3070470D
:100470000020704710B50C46FFF7FAFF20700120EE
:1004800010BD704770B515460C468E18B44201D1A8
:10049000284670BD14F8010BFFF7F3FFF6E7FEE7FF
:1004A000C38882889B1AC2888188914282BF028950
:1004B00001329B1898B2704710B50369044658681A
:1004C000FFF7EEFF88B123695B689A88196892B2DA
:1004D000885C99881A89C0B292B28A420FBF002202
:1004E0009A88013292B29A8010BD4FF0FF30FBE73C
:1004F00008B503695868FFF7D3FF08BD03695B6857
:100500009988DA8892B28A421FBF9A881B6892B291
:10051000985C14BFC0B24FF0FF3070470269916819
:100520008888CB889BB28342FAD1126813685B0635
:10053000FCD5704713B504698DF8071001220DF141
:100540000701204601F071FB0028F7D0012002B01E
:1005500010BD000030B54FF0000C4FF47A75C0E9C3
:1005600001C5034D016105600275437530BD00BFD3
:1005700030D102082DE9F74303690446DB68884659
:100580008B42914625D3067D134D3601AB19477D2D
:10059000586818B10022597B01F0DAF8206901F09F
:1005A000F9FA39016A18127BAB19CDF804901B7B5C
:1005B000695800932069AB5901F0B3FB20694246AA
:1005C000002101F0D4FB206903B0BDE8F04301F045
:1005D00007BB03B0BDE8F083F8CD02080022FFF7A7
:1005E000C9BF0000044B02791B789A4202BF034B3B
:1005F0001B681860704700BFF8100020FC10002036
:10060000002310B50446036072B6054B193119700A
:10061000044B1860044800F0A9FF62B6204610BDE4
:10062000F8100020FC100020E505000800220368F7
:100630001B685B0103F184431A6070470122036861
:100640001B685B0103F184431A607047036801393A
:100650001B6889B29962704703681A68D36A9BB2B3
:10066000994228BF19465162704738B561B90122D5
:1006700003681B68996203681B68DA6203681B6879
:10068000DC6AA4B2204638BD48224A434FF6FF71C7
:10069000B2FBF1F1013189B202EB5102B2FBF1F28E
:1006A00094B2FFF7D3FF036892B21B68DA62E9E7FE
:1006B000012203681B685B0103F18443C3F88022B5
:1006C0007047000008B501211048FFF799FF02218B
:1006D0000F48FFF795FF03210E48FFF791FF042114
:1006E0000D48FFF78DFF05210C48FFF789FF062114
:1006F0000B48FFF785FF07210A48FFF781FFBDE898
:10070000084008210848FFF77BBF00BFD810002031
:10071000DC100020E0100020E4100020E810002091
:10072000EC100020F0100020F4100020F8B5064670
:100730000C4615468F18A74206D0336814F8011BE3
:100740001B6830469847F6E72846F8BD70B5054661
:100750000C46084649B125F0ADFB2B680246214600
:100760002846BDE870409B68184770BD0368C9B251
:100770001B68184703685B68184738B50D210546A4
:10078000FFF7F4FF0A2104462846FFF7EFFF204455
:1007900038BD38B50546FFF7EDFF04462846FFF79C
:1007A000ECFF204438BD2DE970439046994690B047
:1007B00058EA090306469DF8585007D13021FFF743
:1007C000D5FF0125284610B0BDE8708300244046BF
:1007D00049462A46002319F093FE80468946013493
:1007E0000DEB040303F8012C58EA0903EFD10025AF
:1007F000013C1DF804103046092994BF30313731CF
:1008000049B2FFF7B3FF0544002CF1D1DAE72DE937
:10081000F0411D46002A75F1000307461446069E66
:1008200005DA2D21FFF7A2FF644265EB4505F6B21C
:10083000069622462B463846BDE8F041FFF7B3BF87
:1008400007B5CB1700920A46FFF7E1FF03B05DF84A
:1008500004FB38B50546FFF7F3FF04462846FFF7CB
:100860008CFF204438BD07B5CB1700920A46FFF72E
:10087000CEFF03B05DF804FB37B5CB1700920A46F4
:100880000546FFF7C4FF04462846FFF776FF2044DD
:1008900003B030BD07B5D2B2009200230A46FFF77D
:1008A00082FF03B05DF804FB37B5D2B2009200239B
:1008B0000A460546FFF777FF04462846FFF75DFF27
:1008C000204403B030BD00002DE9F34717461E4613
:1008D0008246002200233846314619F0EFF99DF890
:1008E00028504FF00104F8B143A3D3E90023384660
:1008F000314619F0D9F900B90446E4B200220023C8
:1009000038463146C4B119F0BBF918B12D21504613
:10091000FFF72CFF04463C495046FFF72BFF0444E9
:10092000204602B0BDE8F08735A3D3E9002338465E
:10093000314619F0AFF9DEE719F0A2F930B12D21F7
:100940005046FFF713FF044606F100464FF000083B
:1009500000202E495FFA88F39D4206D900222C4BD5
:1009600019F046F808F10108F4E73A46334618F062
:100970005FFD06460F4619F0DBFD0A230246009391
:1009800080460B4650468946FFF741FF0444002D40
:10099000C6D04046494618F0D3FE02460B463046C4
:1009A000394618F043FD06460F4650461949FFF7F1
:1009B000E1FE0444013DEDB2FF2DB1D0144B002205
:1009C0003046394618F0EAFE0F46064619F080F91F
:1009D0000A22014680465046FFF732FF0444404653
:1009E00018F072FE02460B463046394618F01EFDDE
:1009F00006460F46DEE700BF800350726C92DF436D
:100A0000800350726C92DFC34CD102080000E03FBB
:100A1000000024402BED02089DF800100091FFF724
:100A200053BF000030B504460D4687B0064901A803
:100A300025F02CF822462B4601A90A9825F026F825
:100A40000A9807B030BD00BF5BD10208704710B5EF
:100A50000446007900F074FC2079BDE8104000F0F5
:100A600087BC026841F48011936823F46023194322
:100A700091607047002330B51C461D4603EB4302CE
:100A8000072B01FA02F203F10103D8BF15430A2B29
:100A900044EA0204F2D10368DD6003681C6130BDE2
:100AA00070B5144C23681B681D68A90707D51A6820
:100AB00022F002021A6023689B6803B198476A0714
:100AC00009D523681A68136823F0040313602368A8
:100AD0001B6903B19847EB070BD523681A681368A5
:100AE00023F0010313602368DB6813B1BDE8704095
:100AF000184770BD1C00002070B5144C23681B689B
:100B00001D68A90707D51A6822F002021A60236837
:100B10009B6803B198476A0709D523681A68136868
:100B200023F00403136023681B6903B19847EB07A4
:100B30000BD523681A68136823F001031360236838
:100B4000DB6813B1BDE87040184770BD2400002079
:100B5000012203685B0103F1844303F58673191FC7
:100B60001A6018680028FCD143F8042C0B68002B8D
:100B7000FCD170470146042000F014BC10B50446B7
:100B8000054B1868A047054B1868A047044B186828
:100B90002346BDE8104018471C000020200000201C
:100BA0002400002010B50446FFF751FF20464FF403
:100BB0006021FFF756FF0122236820465B0103F105
:100BC0008443C3F8502123685B0103F18443C3F8D5
:100BD0000021BDE81040FFF7BBBF007900F0B0BBBB
:100BE00014230139594300680830435823F4405313
:100BF00043EA023242507047036814200833013937
:100C000000FB01314A60704700EBC10340F831201E
:100C100093F90430002B08DB0122591103F01F0364
:100C200002FA03F3014A42F82130704700E100E084
:100C300014220368013902FB01310123490101F14A
:100C40008441C1F80031704714220368013902FB66
:100C500001310023490101F18441C1F8003170479D
:100C60002DE9F04114251C4690464B1E5D43066855
:100C7000FFF7EAFF9DF81C30240244EA8324089B16
:100C800008361C43069B77197451FB60C7F808802F
:100C9000BDE8F08110B5044B1C68A3681BB19847F0
:100CA000012223685A6010BD6000002010B5044B7B
:100CB0001C6823691BB19847102223685A6010BD35
:100CC0006000002010B5054B1C68A36923B198474C
:100CD0004FF4807223685A6010BD00BF600000208E
:100CE00010B5054B1C68236A23B198474FF4805216
:100CF00023685A6010BD00BF6000002010B5054B8E
:100D00001C68A36A23B198474FF4803223685A6065
:100D100010BD00BF6000002010B5054B1C68236BA0
:100D200023B198474FF4801223685A6010BD00BF6A
:100D30006000002010B5054B1C68A36B23B19847D9
:100D40004FF0807223685A6010BD00BF6000002021
:100D500010B5044B1C68A3681BB198470122236897
:100D60005A6010BD6400002010B5044B1C68236954
:100D70001BB19847102223685A6010BD6400002000
:100D800010B5054B1C68A36923B198474FF48072D6
:100D900023685A6010BD00BF6400002038B5104CB5
:100DA000636CD8070BD52368D90408D50D4B1D6893
:100DB0002B6A23B198474FF480522B685A60A36D79
:100DC000DA070BD52368DB0308D5064B1C68A36A3A
:100DD00023B198474FF4803223685A6038BD00BF72
:100DE0000004024064000020000000000000000039
:100DF000012007E0022005E0032003E0042001E0D9
:100E00000520FFE70D4A0121116072B60C4A00214E
:100E10001160074902B4084902B486B005498E46FC
:100E2000704700BFAFF30080AFF30080AFF30080E6
:100E300000000061F9FFFFFFE52E000814ED00E05F
:100E400010E000E008B5054A136833B150689847D0
:100E50000122034B5A6100BF00BF08BD00110020F2
:100E60000004014008B5054A936833B1D06898473B
:100E70000222034B5A6100BF00BF08BD00110020D1
:100E80000004014008B5054A136933B15069984719
:100E90000422034B5A6100BF00BF08BD00110020AF
:100EA0000004014008B5054A936933B1D0699847F9
:100EB0000822034B5A6100BF00BF08BD001100208B
:100EC0000004014008B5054A136A33B1506A9847D7
:100ED0001022034B5A6100BF00BF08BD0011002063
:100EE000000401402DE9F041002705240C4DD5F800
:100EF00014800126A64018EA060F08D0094BE1002D
:100F000053F834201AB10B445868904737430134E2
:100F10000A2CEED16F6100BF00BFBDE8F08100BFB9
:100F200000040140001100202DE9F04100270A24AF
:100F30000C4DD5F814800126A64018EA060F08D0FB
:100F4000094BE10053F834201AB10B44586890471C
:100F500037430134102CEED16F6100BF00BFBDE8F4
:100F6000F08100BF0004014000110020034A136813
:100F700023F0070318431060704700BF00200240B1
:100F800010B50446007900F0DBF92079BDE8104087
:100F900000F0EEB908B50748FFF7F2FF0648FFF783
:100FA000EFFF0648FFF7ECFFBDE808400448FFF7F5
:100FB000E7BF00BFD8000020E0000020E8000020CC
:100FC000F000002070B50F250368CE0801F007007F
:100FD000840053F82600092A05FA04F520EA0505DD
:100FE00014BF10460820A0402843082A43F82600D2
:100FF00007D10120DA6800FA01F122EA0101D96083
:1010000070BD092AFCD10122D86802FA01F101431E
:10101000F5E708B5032000F093F9BDE80840032088
:1010200000F0A6B903681A6812F4985FFBD11A6839
:1010300042F480721A60704703681A6812F4985F6D
:10104000FBD11A6842F400721A600268136813F444
:10105000985FFBD17047000070B502684568516920
:1010600092695A4AAE781268CB07044606F0010628
:10107000C26014D50023EB8000F0D8F822685368D2
:1010800043F48063536026B12268136843F480639D
:10109000136000212B88226846EA4303136111F094
:1010A0000A0F10D0AB88002E45D0012B0AD1226840
:1010B0002046136823F480631360A38B012B37D978
:1010C000FFF7B0FF002101F08402802A03D1A38B37
:1010D000002B49D1002101F08402842A0DD1A18B7B
:1010E0002046002954D0FFF79DFF22685369D90795
:1010F000FCD5002163680C3363604B0661D523681F
:10110000AA681969EB88581CE880D154AB88EA8832
:10111000591E8A424BD122682046136823F480630B
:101120001360A38B022B3ED9BDE87040FFF77ABF56
:10113000FFF782FFC6E7012B08D9EB88A9685A1C84
:10114000EA802268CB5C13613146BCE7002BFBD1FF
:101150002046FFF771FF2268536823F40073536041
:10116000022384F82330ADE7EB88A9685A1CEA8093
:101170002268CB5C1361EA88AB889A42AAD12268C4
:10118000536823F480635360A38B013BA383A1E7DF
:10119000FFF752FF2268536823F400735360022361
:1011A00084F82330A9E7BDE87040FFF745BF9A42B5
:1011B00007D1A38B013B9BB2A3831BB9022384F805
:1011C000233070BD63680C336360FAE7DC250020D0
:1011D00008B50268536903F47063836000235361A8
:1011E00002689361FFF728FF0268536823F4E06305
:1011F0005360FF2380F8233008BD00000148FFF74B
:101200002BBF00BFF80000200148FFF725BF00BF3B
:101210001C0100200148FFF7DBBF00BFF8000020E1
:101220000148FFF7D5BF00BF1C01002010B50446E0
:10123000002190F9210000F00FF894F9220000211C
:10124000BDE8104000F008B84AF6AA22014B1A6027
:10125000704700BF003000400028A8BF00F1604088
:101260004FEA0111B8BF054BC9B2B5BF00F00F007E
:1012700000F56140195480F80013704714ED00E048
:1012800010B5002421F0604121F07F01064A01439E
:10129000916060B20F210134FFF7DEFF3C2CF8D1E2
:1012A000F02382F8233010BD00ED00E0014B13F86D
:1012B0001000704780D10208064B5A6822F00302E2
:1012C00002435A6080005A6802F00C028242FAD14E
:1012D000704700BF00100240030AC2B2012003F1B0
:1012E000804303F504331968904008431860704741
:1012F0000121030A03F1804303F504331A68C0B2E5
:1013000001FA00F022EA000018607047030A03F1B6
:10131000804303F504331A680223C0B203FA00F0D5
:1013200010407047054A0168536823F474130B4357
:10133000416809680B435360704700BF00100240CA
:1013400010B50446FFF7B2FF074B53F820200748BB
:1013500000EB4400437803EBC20301229B0003F13E
:1013600084431A6010BD00BF4001002080D10208F4
:1013700010B50446FFF79AFF084B53F820200848A1
:1013800000EB4400437803EBC20301229B0003F10E
:1013900084431A6000221A6010BD00BF580100206B
:1013A00080D1020810B5054A054C536854F8200056
:1013B00023EA00030B43536010BD00BF001002403E
:1013C0006CD1020810B50446FFF770FF074B53F8C5
:1013D0002020074800EB4400437803EBC2030022BF
:1013E0009B0003F184431A6010BD00BF4C01002034
:1013F00080D1020801EBC000800000F1844002604F
:10140000704710B504460079FFF79AFF2079BDE8D0
:101410001040FFF7ADBF012206210068FFF7EABFC9
:10142000002206210068FFF7E5BF10B50C460168F1
:1014300003464A6822F0E0024A600268126862408D
:1014400012F4205F01D0FFF7EBFF1A681846146012
:10145000BDE81040FFF7DFBF134343F00403194317
:10146000FFF7E3BF0122006811460430FFF7C2BF57
:101470000068002201210430FFF7BCBF0068012290
:1014800000210430FFF7B6BF002203685B0103F1BF
:101490008443C3F880207047F8B51046069C9DF839
:1014A0001C709DF820609DF8245081B10B223946B4
:1014B0002046FFF787FD042231462046FFF782FDD4
:1014C0000B2229462046BDE8F840FFF77BBD1946B0
:1014D0000422FFF777FD042239462046FFF772FD0C
:1014E0000B2231462046FFF76DFD0422E9E7FEE7B7
:1014F0000722024B58601A60704700BF10E000E0FE
:10150000044A136801331360034B1B6803B1184787
:10151000704700BFDC2500208011002011F0010F72
:1015200070B501F1FF340DBF082500256FF0FF01F4
:101530006FF47F410068C4F34004183050F8246011
:1015400013433140AB400B4340F8243070BD026878
:101550004B1E02F1404220329B0003EBC2030122EA
:101560009B0003F184431A607047000010B50446E5
:101570000948A0470948A0470948A0470948A0478B
:101580000948A0470948A0470948A0472346BDE8A5
:1015900010400848184700BF84010020AC0100201B
:1015A000D0010020F4010020180200203C0200209D
:1015B000480200205402002010B504460079FFF7CD
:1015C000BFFE2079BDE81040FFF7D2BE00230268BD
:1015D00013600268D3604279012A9CBF02681362DB
:1015E000704703791E2B10D9212B0ED0202B0ED93A
:1015F000222B01D0252B04D102298CBF00200120F1
:1016000070474B1E584258417047012070470020D8
:10161000704700008B1C40F82320012342798B4047
:1016200010B5DB43EAB1012A41F65F6218BF01221F
:101630001340012204682361036803F140430C3323
:1016400001EBC3039B0003F184431A6042790379E1
:101650003ABB072915D8DFE801F007151515151A4B
:101660001A1F41F6FF62E3E71A2B0CBF19232C2344
:101670000122590903F01F0302FA03F3254A42F835
:10168000213010BD1A2B0CBF1B232E23F0E71A2B81
:101690000CBF1A232D23EBE71A2B0CBF18232B2387
:1016A000E6E71B3B0C2BECD801A252F823F000BF5D
:1016B00011170008E5160008E9160008ED160008E5
:1016C000F1160008F516000883160008F916000840
:1016D000FD16000801170008051700080917000883
:1016E0000D1700081D23C3E71E23C1E73223BFE700
:1016F0003623BDE73723BBE71823B9E71923B7E73C
:101700001A23B5E72B23B3E72C23B1E72D23AFE74B
:101710001C23ADE700E100E00022036803F1404331
:101720000C3301EBC3039B0003F1844302311A60C5
:1017300040F82120704738B504460D461346002274
:10174000FFF7ECFE29462046BDE83840FFF7FFBE14
:1017500038B543790546022B0C4615D0042A13D818
:10176000DFE802F003132A2D3A00FFF7D5FF0268E5
:10177000631E02F1404220329B0003EBC2030022B1
:101780009B0003F184431A6038BD0022036803F113
:1017900040430C3301EBC3039B0003F184431A6005
:1017A0000823602221462846FFF7B8FE2146284636
:1017B000BDE83840FFF7CBBE00231022F2E74FF21E
:1017C000F11203689A61032203689A600368012298
:1017D0005B0103F18443D6E70122BDE83840FFF7FF
:1017E000AABF000010B5074A1468E36821690B40DE
:1017F0001B0606D5536A23B19847236923F080035B
:10180000236110BD8401002010B5074A1468E36805
:1018100021690B40DB0706D5936823B198472369FC
:1018200023F00103236110BD84010020F8B50C4DA5
:101830002F68FE683B691E4016F0400403D02C6AF6
:101840000CB1A0474024B30604D5EB6913B1984707
:1018500044F020043B6923EA04043C61F8BD00BF66
:1018600084010020F8B5134D2F68FE683B691E40C7
:1018700016F0100403D0AC690CB1A0471024310756
:1018800004D56B6913B1984744F00804720704D576
:101890002B6913B1984744F00404B30704D5EB68EF
:1018A00013B1984744F002043B6923EA04043C6105
:1018B000F8BD00BF84010020F8B51A4D2F68FE68FE
:1018C0003B691E4016F0400403D02C6A0CB1A047BF
:1018D0004024F30604D5AB6913B1984744F01004D3
:1018E000300704D56B6913B1984744F008047107B9
:1018F00004D52B6913B1984744F00404B20704D50A
:10190000EB6813B1984744F00204F30704D5AB68C1
:1019100013B1984744F001043B6923EA04043C6195
:10192000F8BD00BFAC010020F8B51A4D2F68FE6865
:101930003B691E4016F0400403D02C6A0CB1A0474E
:101940004024F30604D5AB6913B1984744F0100462
:10195000300704D56B6913B1984744F00804710748
:1019600004D52B6913B1984744F00404B20704D599
:10197000EB6813B1984744F00204F30704D5AB6851
:1019800013B1984744F001043B6923EA04043C6125
:10199000F8BD00BFD0010020F8B51A4D2F68FE68D1
:1019A0003B691E4016F0400403D02C6A0CB1A047DE
:1019B0004024F30604D5AB6913B1984744F01004F2
:1019C000300704D56B6913B1984744F008047107D8
:1019D00004D52B6913B1984744F00404B20704D529
:1019E000EB6813B1984744F00204F30704D5AB68E1
:1019F00013B1984744F001043B6923EA04043C61B5
:101A0000F8BD00BFF4010020F8B51A4D2F68FE683C
:101A10003B691E4016F0400403D02C6A0CB1A0476D
:101A20004024F30604D5AB6913B1984744F0100481
:101A3000300704D56B6913B1984744F00804710767
:101A400004D52B6913B1984744F00404B20704D5B8
:101A5000EB6813B1984744F00204F30704D5AB6870
:101A600013B1984744F001043B6923EA04043C6144
:101A7000F8BD00BF1802002010B5074A1468E368DB
:101A800021690B40DB0706D5936823B1984723698A
:101A900023F00103236110BD3C02002010B5074A6A
:101AA0001468E36821690B40DB0706D5936823B10E
:101AB0009847236923F00103236110BD48020020E9
:101AC00010B5074A1468E36821690B401B0606D568
:101AD000536A23B19847236923F08003236110BD23
:101AE0005402002010B5074A1468E36821690B40CE
:101AF000DB0706D5936823B19847236923F00103D8
:101B0000236110BD54020020F8B50C4D2F68FE680B
:101B10003B691E4016F0400403D02C6A0CB1A0476C
:101B20004024B30604D5EB6913B1984744F0200470
:101B30003B6923EA04043C61F8BD00BF5402002065
:101B4000F8B5134D2F68FE683B691E4016F010046F
:101B500003D0AC690CB1A0471024310704D56B69E0
:101B600013B1984744F00804720704D52B6913B1E8
:101B7000984744F00404B30704D5EB6813B19847C1
:101B800044F002043B6923EA04043C61F8BD00BF51
:101B90005402002000223F2110B504464368103053
:101BA0009A801860DA801981A3689A80DA8004F13B
:101BB000500219811A6094F89000FFF7C1FB94F964
:101BC0009130002B08DB0122591103F01F0302FAA8
:101BD00003F3024A42F8213010BD00BF00E100E0EB
:101BE0000368DA6842F02C02DA60DA6842F40052E4
:101BF000DA60704710B5036881688C88CA8892B231
:101C0000A242FAD1DA68910402D51A685206F9D5CF
:101C1000DA6822F40052DA60426893889BB2D3807B
:101C2000826893889BB2D38010BDF0B50B46064600
:101C30000468B568581AAF88ED88ADB2BD4204D1CA
:101C400025682D0601D5824210D8E36823F0800371
:101C5000E3609042B3680DD39A88DB889BB29342CD
:101C60001EBFE36843F08003E360F0BD13F8010B8F
:101C70006060DEE7DD889F880135BD42ECD0DF88FB
:101C80001D89ADB2BD4203D19D88ADB2002DE3D018
:101C9000DD8811F800C01F68ADB207F805C0DF8805
:101CA0001D890130ADB2BD420FBF0025DD88013571
:101CB000ADB2DD80CDE703468288016892B2885CD0
:101CC00099881A89C0B292B28A420FBF00229A88BC
:101CD000013292B29A80704738B5C3888288013346
:101CE000934204460D4607D0C28803899BB29342B3
:101CF00014D183889BB28BB92046FFF7DCFFE388C1
:101D000022689BB2D554E28823899BB293420FBFCD
:101D10000023E38801339BB2E38038BD4FF0FF30EE
:101D2000EDE770B51E460546084611460422059C9F
:101D3000FFF748F90B229DF810103046FFF742F9E3
:101D400029686302CA6803F4F05322F4F0521204C3
:101D5000120C1343CB602A682402136904F4405424
:101D600023F440531B041B0C1C43146170BD38B595
:101D70000546144611B900F0FDF8014619235943F0
:101D8000A200B1FBF2F26421B2FBF1F001FB1023DF
:101D90001B013233B3FBF1F303F00F032C6843EA6A
:101DA00000139BB2A36038BD10B50446084B1868F9
:101DB000A047084B1868A047074B1868A047074B77
:101DC0001868A047064B18682346BDE8104018471E
:101DD00084020020880200208C0200207C02002067
:101DE0008002002010B5104CE368980607D52368E0
:101DF000990604D561680D48C9B2FFF76DFFE36825
:101E00001A060BD523681B0608D509488288C388A3
:101E10009BB2934203D0FFF74EFF606010BDE368B2
:101E200023F08003E360F9E700380140B41100209B
:101E3000C011002010B5104CE368980607D5236840
:101E4000990604D561680D48C9B2FFF745FFE368FC
:101E50001A060BD523681B0608D509488288C38853
:101E60009BB2934203D0FFF726FF606010BDE3688A
:101E700023F08003E360F9E700440040CC11002028
:101E8000D811002010B5104CE368980607D52368D8
:101E9000990604D561680D48C9B2FFF71DFFE368D4
:101EA0001A060BD523681B0608D509488288C38803
:101EB0009BB2934203D0FFF7FEFE606010BDE36863
:101EC00023F08003E360F9E700480040E4110020BC
:101ED000F011002010B5104CE368980607D5236870
:101EE000990604D561680D48C9B2FFF7F5FEE368AD
:101EF0001A060BD523681B0608D509488288C388B3
:101F00009BB2934203D0FFF7D6FE606010BDE3683A
:101F100023F08003E360F9E7004C004084110020C7
:101F20009011002010B5104CE368980607D523687F
:101F3000990604D561680D48C9B2FFF7CDFEE36884
:101F40001A060BD523681B0608D509488288C38862
:101F50009BB2934203D0FFF7AEFE606010BDE36812
:101F600023F08003E360F9E7005000409C1100205B
:101F7000A811002008B590F89000FFF797F920B15C
:101F80000128034818BF002008BD0248FCE700BF35
:101F900000A24A040051250230B548F28005094CE0
:101FA000226822F4804222F070022A4342402260DA
:101FB000236823F4E04323F040032B434B4023608A
:101FC00030BD00BF005C0040284B072818BF1870C8
:101FD0001A78052A48D8DFE802F003131E232B36AF
:101FE0004FF6FB71224A106C014011644FF43F41DF
:101FF000116406221A701F4B1B685A7B1A737047B4
:102000004FF6FB711A4A106C014011644FF43F41C6
:102010001164042202E002225A7003221A7006E0C0
:102020005A78013AD2B25A705A78002AF1D07047E1
:102030000F490A6C92B242F010020A6405221A702B
:102040000A225A7070475A78013AD2B25A705A78B6
:10205000002AECD14FF6EF720549086C02400A6481
:10206000044A1268517B11730622D7E7E02500204D
:10207000005C0040740500202DE9F0415F4D604A8E
:102080002B68546C1B68A4B223405E0506D56FF420
:10209000806353645B4B1B685B6898472A681368CE
:1020A0002340980442BF6FF40051554B59641368A4
:1020B0002340D90406D56FF4C052514B00205A6416
:1020C000FFF782FF2B681A68224012050FD54C4992
:1020D0000A6C92B242F0080042F00C0208640A64F2
:1020E0001A7B5A7303221A736FF4C0524A641A6837
:1020F0002240970542BF6FF40071414A51641B684A
:102100002340DE0506D56FF480723D4B07205A64EC
:10211000FFF75AFF2B681B681C40240403D5384C7A
:10212000676C3B0401D4BDE8F0816FF4004317F005
:102130000F06636438D148F68003D4F8008018EAAB
:10214000030FECD01FFA88F32F4D304E03F44052AA
:102150004FF4005003F03003202133802A80FFF732
:102160001BFFF80623680ED423F4E14323F0700329
:102170001B041B0C236000F09BFD31882888BDE800
:10218000F041FFF709BF18F0800FEDD123F0700385
:102190001B051B0D18F4006F236002D000F0A6FB96
:1021A000EBE700F003FDE8E7B40004F1804404F538
:1021B000B844276839040DD5236823F070031B0544
:1021C0001B0D23602A6806F180439268013B52F898
:1021D000233098473A06A2D5236806F1804623F4B7
:1021E000E14323F070031B041B0C23602B68013EAA
:1021F0005B6853F82630984791E700BF74050020CC
:10220000005C0040E8250020E2250020E4250020B5
:10221000800000F1804000F5B840036823F480435B
:1022200023F0700343F4004343F0800359400160FE
:102230007047000018B90722024B1B681A82024837
:10224000704700BFF0250020E40500200022012196
:1022500010B5104B1B689A720F4B19640F49086830
:102260000260086804681C644FF4E0545A64046017
:10227000086804681C644FF43F445A6404600868AA
:10228000006818644FF48010054B18600B681A73CF
:1022900010BD00BFF0250020005C00407405002048
:1022A00000E100E013B5104B1A68137803F07F03C8
:1022B000212B16D1022808D0222801D0022405E0C3
:1022C00093780A4A03F0030313700024084B1B6839
:1022D00023B102A901F8010D02209847204602B05F
:1022E00010BD0224FAE700BFF025002000120020F4
:1022F000FC11002021B901288CBF0220002070476A
:1023000002207047054B1B689B78032B04D80449B7
:1023100001EBC30100F0BCBA00207047F02500209B
:10232000CC050020014900F0B3BA00BF88050020A9
:10233000014900F0ADBA00BF9005002037B5114C3F
:102340002268127802F07F02212A02D0022003B014
:1023500030BDA0F12003012B0B4B0C4D1B6888BF37
:10236000002523B102A901F8010D02209847002D94
:10237000ECD0236800249D615C822046A84720465B
:10238000E5E700BFF0250020FC1100203522000801
:102390002DE9F04700254FF0C00948F68F1648F2A6
:1023A00080074FF0400A434B434C1B68DFF83881ED
:1023B0009D7283F80990256523682846334043F4CD
:1023C00000732360236803EA08033B4383F0100390
:1023D0002360226D394B520043F802A08022236D06
:1023E0005B0003F1804303F5C0431A60236823F4C4
:1023F000E24323F070031B041B0C2360304B1B686B
:1024000093F82C1000F072F84FF440512846FFF773
:10241000FFFEA3682946334043F4C063A360226DE6
:10242000284B520013444FF480721A60A2680220B5
:1024300002EA08023A4382F02002A260FFF7E8FEB7
:10244000E36851463340E360226D1F4B5200134452
:102450004FF4887203201A6000F048F84FF440519E
:102460000320FFF7D5FE636829461E406660226D93
:10247000164B520043F802906368012003EA0803F8
:102480003B4383F020036360FFF7C2FE0122104B41
:1024900028461B681A7300F0EBFBFF220D4B1D60F2
:1024A0000D4B1D600D4B1D600D4B1D600D4B1A70CB
:1024B000BDE8F087F0250020005C00400860004087
:1024C000E825002020600040386000401060004097
:1024D00074050020041200200812002010120020B1
:1024E000141200200C120020BF8FFFFF0D4B0E4A6C
:1024F0001B6D3E2903EBC0004FEA400002440AD99D
:102500004B09C80604BF03F1FF339BB29B0243F49F
:102510000043136070474B08C90748BF01339B0253
:10252000F7E700BF005C00400C60004010B5064CAF
:1025300018B9012223681A8210BD044B1B681B685E
:10254000984720680A30F7E7F0250020EC250020A6
:1025500010B5064C18B9012223681A8210BD044B2D
:102560001B689B68984720680C30F7E7F02500202F
:10257000EC25002010B51E4B1C68002310B9022367
:10258000238210BD1B4803802178024611F07F0191
:1025900012D1617A8C0644BF022303700378480687
:1025A0004CBF23F0010343F001031370124B1B686F
:1025B0001B6998470F48E4E70129E2D0022915D1A9
:1025C000217901F00F039B0003F1804303F5B84329
:1025D00009061B6805D503F03003102BE6D1012353
:1025E000E3E703F44053B3F5805FF7E71846C8E725
:1025F000F0250020E6250020EC2500202DE9F843F9
:10260000234FDFF8A0803D682C8AD4B92E7A042E9F
:1026100017D120490B78012B0ED11F4B1A681F4B85
:1026200092B213445B001C6030230C70A8F8003099
:102630003B681E72BDE8F88310230726A8F8003017
:10264000F6E7AB8A9C4294BF042602269C4228BF30
:102650001C46AB69204698478146002000F0B4FB39
:1026600022460146484600F052FB2146002000F079
:10267000C7FB2B8A4FF440521B1B2B826B8A1C44D6
:102680003023A8F80030064B6C821A80D0E700BFD8
:10269000F025002018120020505C0040023000207D
:1026A000E2250020E425002010B50A4B0A491B68EA
:1026B00049789A7891420AD3D97841B99C8834B93B
:1026C0009A72064B1B685B689847204610BD022033
:1026D000FCE700BFF0250020C8050020EC25002005
:1026E00038B50F4A0F4D12682B689269997818799E
:1026F00090472B6804469A7A7AB170B95A7962B9D0
:10270000DB7853B9084B1B68DB6898472B681A794C
:10271000DA729A781A73204638BD0224FBE700BFAC
:10272000E8250020F0250020EC25002038B52B4BB3
:102730001B68187810F07F0004D15A7A22F020022A
:102740005A7238BD022847D15A88002AF9D15A79DD
:10275000002AF6D11979224D21F08000840004F17D
:10276000804404F5B844226849B22D780029B4BFEA
:1027700002F0300202F4405285422DD962B39B7AB6
:1027800053B30029236811DA03F03003102B07D16B
:10279000C4B2204600F004FB3021204600F0D8FAF5
:1027A000104B1B685B6998470020CAE703F440534D
:1027B000B3F5805FF4D10C4D58B90C4B93F82C1045
:1027C00000F02CFB23682B409BB283F44053236022
:1027D000E6E700F0D2FAF5E70220B2E7F0250020A4
:1027E000C8050020EC2500208FBFFFFF98050020C2
:1027F00038B51B4B1B4D18682D78017921F08004EA
:10280000A30003F1804303F5B8431A6849B20029D5
:10281000B4BF02F0300202F44052A5421DD94488F0
:10282000DCB9D2B1827AC2B11A680029B5BF22F4EC
:10283000E04222F4804222F0400222F07002B5BF52
:1028400092B292B282F0100282F480521A60064B69
:102850001B689B699847002038BD0220FCE700BF39
:10286000F0250020C8050020EC25002008B5064B07
:102870001A68537A43F020035372044B1B68DB69D8
:102880009847002008BD00BFF0250020EC2500205F
:1028900010B5054B1C68628A18B98B889B1A238275
:1028A00010BD08681044FBE7F025002008B50B4B6D
:1028B000002093F82C1000F0B1FA094B1B68187A2D
:1028C000082806D14FF48052064B1A801022064B7E
:1028D0001A80A0F109035842584108BD980500200C
:1028E000F0250020E2250020E425002073B5964C59
:1028F000964E216832680B7A092B16D0944B92B20F
:1029000013445B001B885B0003F1804303F5C04365
:102910001A780A7059782268517099882268518013
:102920001989226891809B89D380012223681A72B9
:10293000DA885D78002A64D11A7812F07F024DD1CE
:10294000092D03D1FFF7B0FE40BB16E0052D20D1C5
:1029500093F90220002A07DA08232268137202B0D2
:10296000BDE87040FFF7A2BFDA78002AF4D19A8858
:10297000002AF1D19B7A002BEED13268754B92B2CE
:10298000134400225B001A603022734B1A80062326
:10299000E3E7032D14D19A78012A08D06F4B28461B
:1029A0001B685B699847032828D10923D5E79A88D3
:1029B000002AF3D15B7A9A06F0D5FFF757FFC3E7F9
:1029C000012DEBD19A78012AE8D19A88002AE5D125
:1029D0005B7A9B06E2D5FFF7A9FEB5E7012A04D191
:1029E0000B2DDBD1FFF77CFEAEE7022AD6D1012DFD
:1029F000F1D0032DD2D1FFF7FBFEA5E70028ABD124
:102A0000BBE7062D12D11A7855065AD1DB78534A06
:102A1000012B126802D1D369DBB952E0022B01D13C
:102A2000136AF9E7032B4CD1536AF5E7002D54D113
:102A30005988002945D15A6822F0FF02B2F5003FBB
:102A40003FD11A7812F07F0216D19B88002B38D123
:102A5000434B0025226828465582936198472846B3
:102A60004FF6FF7123681A8A8A4233D0022801D0B8
:102A7000002A55D108222EE0012A0AD1374A1879B6
:102A8000126892699047E0B923689B7A002BDFD1E6
:102A900017E0022A15D11A7902F00F018B001006F7
:102AA00003F180432F4803F5B8431B6800784CBFFF
:102AB00003F0300303F44053884202D912F0700F40
:102AC000E4D0264B22681B6850781B69984703287E
:102AD000C6D1236809221A7241E7082D04D11B7858
:102AE0005B06EED1204BB4E70A2DEAD11A7802F04A
:102AF0007F02012AE5D19A7A002AE2D0598800297A
:102B0000DFD15A6822F0FF02B2F5803FD9D1134AD3
:102B100018791268926990470028D2D1134B98E730
:102B200093F90010002936DAD9880C4C01910198EC
:102B3000246882421CD9019A1A8294F82C209A8225
:102B4000FFF75CFD0BE700BFF0250020505C004064
:102B50000430002002300020E4250020E825002079
:102B600075250008C80500202D25000851250008FE
:102B70008A42E2D294F82C00824203D20021094A10
:102B80001170DAE792FBF0F100FB1122002AD4D198
:102B9000044A0121F4E703221A724FF44052024B17
:102BA0001A80DCE618120020E2250020F8B52A4E33
:102BB0003468237A032B01D0052B44D1A369B3B128
:102BC000258AA5B1A28A954228BF1546284698476E
:102BD000238A07465B1B2382638A00202B4463827F
:102BE00000F000F92A460146384600F09FF8238A93
:102BF00053B100214FF44052184B08461A8000F0A0
:102C0000FFF83022164B1A80228AA18A336891423B
:102C100009D803221A7233681B7A32681372BDE82E
:102C2000F840FFF743BE0AB10522F3E70621197207
:102C30000C4B19680C4B89B20B445B001A603022B4
:102C4000074B1A80E7E7072B03D1084B1B68DB68AB
:102C500098470823E1E700BFF0250020E225002087
:102C6000E4250020505C004002300020E8250020D0
:102C7000002210B50C4B1C78A24204D30B4B40F041
:102C80008000186010BD02F1805303F5B8539B001B
:102C9000196821F4E04121F070010904090C114385
:102CA00019600132E8E700BFC80500204C5C004015
:102CB00010B5134C23681A7A022A01D0042A09D1CC
:102CC000FFF79CFC23681B7A22681372BDE8104052
:102CD000FFF7ECBD062A10D15A78052A09D11A78D7
:102CE000520606D19878FFF7C3FF064B1B681B6A94
:102CF0009847054B1B689B6898470823E4E700BF8B
:102D0000F0250020EC250020E8250020704701F187
:102D10000051013201F540515210490002B970478B
:102D200030F8023B013A21F8043BF7E7002310B5E5
:102D300001F10051013201F54051521049009A420F
:102D400000D110BD51F8234020F813400133F6E7BD
:102D5000800000F1804000F5B8400368CA0623F403
:102D6000E04323F040039BB248BF83F010038A0680
:102D700048BF83F0200303607047800000F180406B
:102D800000F5B84003685B0409D5036823F4E04309
:102D900023F070031B041B0C43F480430360704753
:102DA000800000F1804000F5B84003685B0609D55B
:102DB000036823F4E04323F070031B041B0C43F06F
:102DC0004003036070470000054B1B689BB203EB98
:102DD000C00000F1005000F54050400000887047EE
:102DE000505C0040044B1B689BB203EBC000034BDC
:102DF00003445B0018887047505C0040043000209A
:102E0000044B1B689BB203EBC000034B03445B0005
:102E100019607047505C0040023000200D4B0E4A94
:102E20001B683E299BB203EBC00002444FEA4202FA
:102E30000AD94B09C80604BF03F1FF339BB29B02BA
:102E400043F40043136070474B08C90748BF013380
:102E50009B02F7E7505C00400630002013B50446A3
:102E60008DF8071001220DF107012046FEF7DDFE67
:102E70000028F7D002B010BD38B505464C1E14F935
:102E8000011F01B938BDC9B22846FFF7E7FFF6E7D1
:102E900008B5134B03221C6801212046FEF792F867
:102EA000002301211A46B2F5007F0CD072B1B3F5B0
:102EB000007F01D100230A449A420CD902252068E0
:102EC00005610133EFE74FF0FF31F0E7B3F5007F25
:102ED0004FF00101EED020684FF40035F0E700BF5D
:102EE00068D1020808B5034B0BB100F045F862B693
:102EF000FFF7CEFF792F000808B5044B23B100F08F
:102F00005BF80349FFF7B8FFFFF7ECFFB92F0008A4
:102F100053D20208FDF7CAB908B500F04FFE00F021
:102F20001FFFFCE721F050BF32280BD8064B03EB04
:102F3000001043681A68437B343203F18043013B3D
:102F400042F82310704700BFF8CD020838B50C4690
:102F50000546072104EB042400F046F8A1B22846F8
:102F6000BDE83840FFF7E0BF002203685B0103F1D2
:102F70008443C3F8002170474FF0FF3310B50A4C6B
:102F80000A48C4F88030C4F88430FEF7EFFA0848E5
:102F9000FDF7F4FD0748FEF707FF4FF40023236019
:102FA0004FF48013236010BD00E100E0CD15000850
:102FB000692F0008F51B000810B5094B094C18686B
:102FC0000B220221FDF7FEFF2068FEF7E3FD2068DB
:102FD0004FF416520021FEF7CAFE206810BD00BF54
:102FE00064D1020888020020322838B53BD808296D
:102FF00039D8DFE801F00529171A1D20172326000C
:1030000000240322184B00011D18297B1858FDF7D6
:10301000D9FF686838B3697BCCB1BDE8384001227C
:10302000FEF796BB00240422ECE700242246E9E7E1
:1030300000240922E6E700240822E3E701240B220A
:10304000E0E701240F22DDE700240722DAE7026827
:103050004B1E02F1404220329B0003EBC2039B0057
:1030600003F184431C6038BDF8CD020808B5012186
:103070001048FDF7C5FA02210F48FDF7C1FA0321F8
:103080000E48FDF7BDFA04210D48FDF7B9FA0521F8
:103090000C48FDF7B5FA06210B48FDF7B1FA0721F8
:1030A0000A48FDF7ADFABDE8084008210848FDF7D9
:1030B000A7BA00BF1C1200202012002024120020FA
:1030C000281200202C120020301200203412002080
:1030D0003812002032280DD8074B000119181B5850
:1030E000097B1B689A6801238B40134214BF01209F
:1030F0000020704700207047F8CD0208322810B534
:103100000ED8084B00011C181B58B1FA81F11A683F
:103110000123207B49098340090103FA01F1116170
:1031200010BD00BFF8CD02080A4A0B4B11689B681E
:1031300000BF00BF12688A42F6D14820C3F58C3325
:1031400003F5A073B3FBF0F34FF47A7000FB023089
:10315000704700BFDC25002010E000E038B50446D1
:10316000FFF7E2FF05465CB1FDF770FCFFF7DCFFFF
:10317000401BB0F57A7FF6D3013C05F57A75F5D1A1
:1031800038BD28B10C234343013B18460138FDD814
:10319000704700000449054BCA6822F4E06212043B
:1031A000120C1343CB60704700ED00E00003FA05FA
:1031B000704701207047000013B5104C204616F0F0
:1031C00064F82046042115F0F9FF204602220C493C
:1031D00015F0F8FF002302220A4900932046A0239D
:1031E00016F056F8204616F049F8204616F038F842
:1031F000204602B0BDE8104016F039B84412002055
:10320000EB0500203E12002024280AD0252807D1F3
:103210000123054A32F81330044AC3F389031380AB
:1032200070470023F5E700BF3E1200203C1200204B
:10323000044B03EB00135B6813B1C0B2FFF786BE0B
:10324000704700BFF8CD0208024B0348196815F01B
:10325000B3BF00BF1C0000204412002001234279AC
:103260008B4010B5DB439AB1012A41F65F6218BF6B
:103270000122046813402361036803F140430C33C7
:1032800001EBC3010123890001F184410B6010BDF2
:1032900041F6FF62EDE7002203685B0103F184431E
:1032A0001A607047012203685B0103F18443C3F88D
:1032B0008022704770B5224D224C2B78BFF35B8F74
:1032C00013F0010F0AD1284617F07AFB30B1012024
:1032D00000F068FA2060284617F08EFB23681B6810
:1032E0001E69B20714D5184D0322297B2868FDF703
:1032F00069FE2B68297B1A684FF480338B40136179
:10330000002223681B685B0103F18443C3F8042295
:10331000730713D50C4D0322297B2868FDF752FE55
:103320002B68297B1A6801238B40136100222368D4
:103330001B685B0103F18443C3F8082270BD00BF22
:10334000581200205C120020F8CD02084FF0FF3325
:10335000044A43601378022B8EBFFF23591C11705F
:10336000037070475412002038B542680546531C5C
:1033700028D003780BB9006938BD846844F6206012
:10338000114B03EB02135A685B7B126803F1804315
:103390003432013B52F823104FF6AF7289B200234A
:1033A000A1FB000117F05CF8E968A0F50870091BA3
:1033B0004FF4E862002380FB010117F051F820442C
:1033C00000B2D9E70020D7E7F8CD0208F8B5012010
:1033D0000D4600F0E7F9044600283ED01F4E2D01AF
:1033E0007719397B70590322FDF7ECFD73590125DC
:1033F0001A683B7B204605FA03F31B041361FFF7B1
:103400004AFF02222946FEF7A3F92268294693695A
:10341000204623F0FF0393612268936923F47F43DE
:103420009361152223689A624FF6AF732268D362C4
:103430002268536322689363094AFEF7EBF8084A4F
:1034400002212046FEF7E6F82046FFF72BFF28462C
:1034500023685B0103F184431D60F8BDF8CD0208C9
:10346000B532000870B5054601200E4600F09AF905
:1034700003685E63FFF716FF3EB10121FFF7EEFE22
:10348000BDE870400221FFF7E9BE03680F4C5B0105
:1034900003F18443C3F88461036803225B0103F1F1
:1034A0008443C3F888616B681B01E118097BE0580D
:1034B000FDF788FD6B681B01E118E358097B1A686A
:1034C0004FF480338B40136170BD00BFF8CD02080C
:1034D000037813B91146FFF7C5BF074B03EB011380
:1034E000596839B15B7B086803F180433430013B94
:1034F00040F82320704700BFF8CD0208F8B50578E2
:103500000446022D0E4601D90020F8BD3229FBDC0D
:10351000C0E902234FF0FF33036125B9FFF756FFDF
:1035200008B16660F1E7114B03EB06135D68002DEF
:10353000EAD0F7B207213846FFF756FD0022394698
:103540002046FFF7C5FF2846FFF7A5FE15222B688A
:103550009A624FF6AF722B68DA62FFF7A3FE012082
:103560002B685B0103F184431860DAE7F8CD0208A9
:1035700008B541684A1C08D04FF0FF32C9B2026159
:103580000022FFF7A5FF012008BD0020FCE738B5A9
:10359000456804466B1C28D0D0E902328B4222DCFD
:1035A0009142A8BF11464FF4E8602161D21AC91AAE
:1035B00081FB0001D31716F053FF4FF6AF7100F5F2
:1035C000087080B2002344F62062A0FB010116F0CF
:1035D00047FFE9B282B22046FFF77AFFBDE83840E4
:1035E000322000F06BBC1946DDE738BD10B5074C42
:1035F000032294F84C10206CFDF7E4FC236C94F843
:103600004C101A6801238B40136110BDF8CD0208DD
:10361000062838B58CBF00250A4B0B4C98BF1D5CA3
:103620002046E46614F007FB2946204614F015FBFB
:103630002046012114F01EFB2046BDE83840002141
:1036400014F025BB78D20208CC240020FF210148C9
:1036500014F038BBCC2400200B4602460021014860
:1036600014F0EEBBCC2400200146014814F074BCD9
:10367000CC24002070B50D46064C0146204614F0BF
:103680006BFC29462046BDE8704001234FF40072D0
:1036900014F056BCCC2400200228F8B506460D468E
:1036A00039D0052836D100262C4C0222236801216E
:1036B0005B0103F184431E602046FEF749F8284968
:1036C0004FF6FF70B1FBF5F11122814228BF014690
:1036D00023685E629A62D8629A69204622F0FF02ED
:1036E0009A6159635B0103F184430121DE611D4A44
:1036F000FDF790FF01213220FDF7AEFD0122236886
:103700005B0103F18443C3F8802223685B0103F16A
:1037100084431A60F8BD0027134C02462368012138
:103720005B0103F184431F602046FEF711F840F26D
:10373000E73223680D495F62B1FBF5F19A624FF6FB
:10374000FF72914228BF1146DA6220465963084A47
:103750000121FDF75FFF31461C20CDE71802002054
:1037600000093D006D400108AC0100204019010036
:103770002D52010802280CD005280CD1074B1B68DC
:103780005B0103F18443D3F88401003018BF0120AA
:103790007047034BF3E70020704700BF180200207A
:1037A000AC010020013807289ABF024B53F82000D3
:1037B0000020704780D202080120014B187070472A
:1037C0006012002008B515F025FE0022014B0120F3
:1037D0001A7008BD601200202DE9F8431B4D984671
:1037E0002B7806460C46174683B115F007FE18489D
:1037F00015F0BCFD052802D00120BDE8F88315486E
:1038000015F0B4FD0528F7D100232B70254607EBF2
:1038100004094D45A5EB04030DD0306815F8011BD4
:1038200000F1806000F5FC301844400015F0C0FD48
:103830000528EED0E0E7BAB2404621460BF000FF83
:10384000326800203A443260D7E700BF601200209F
:1038500000F0030800F803082DE9F74305460F467A
:1038600090461E4600249DF828902A68444522442C
:1038700013D002F1806202F5FC32520013788DF809
:103880000730B9F1000F00D03B5501220DF10701BF
:1038900030460BF0D5FE0134E7E700202A6003B084
:1038A000BDE8F083FDF7D0BC70470368C9B21B6860
:1038B000184700000023054A9A56824204D001337B
:1038C000162BF8D1002070470120704775D40208EC
:1038D00008B500F08DFABDE80840014800F076BA5E
:1038E000DAD2020808B50EF049FE0EF0B5FEFE2051
:1038F0000DF092FFBDE808400DF06CBF124AD2F8FF
:10390000803092F88C101868012303FA01F1090441
:103910000161D2F81011086892F81C1103FA01F144
:1039200009040161D2F82012086892F82C1203FAF7
:1039300001F109040161D2F8D01292F8DC22096881
:1039400093401B040B617047F8CD0208044BD3F879
:10395000D02293F8DC12012312688B401361704768
:10396000F8CD0208012130B4124BD3F88020106842
:1039700093F88C2001FA02F202610F48027822F0DB
:1039800001040470D3F81041256893F81C4101FA32
:1039900004F42C6122F003040470D3F8204293F85D
:1039A0002C322468994022F007022161027030BC59
:1039B000FFF7CCBFF8CD02084F17002008B540F242
:1039C000E933013B08D000BF00BF00BF42F62F2201
:1039D000013A00BFFCD1F4E772B640F2E933013B93
:1039E00008D000BF00BF00BF41F29312013A00BFF0
:1039F000FCD1F4E711F0A4F8FFF754FFFCE7000056
:103A0000044608B511F09CF800F0F2F9054800F002
:103A1000DDF90548002C18BF20460BF0E3FCFFF74A
:103A2000CDFF00BFF2D20208E9D2020870B5374BD1
:103A300005461B78032B01D804F082FA344B354A33
:103A40001B6814689BB1344909680B44E31A002BC6
:103A50000DDB00F0CDF9314B3148196800F0CEF99B
:103A60000A213048FFF721FF0020FFF7C9FF2E4B46
:103A70001B6843B12D4908782D49097888420ED03A
:103A80001268254B1A602B4D00F0DCFF2B68E31AFF
:103A9000002B03DB64340EF009FD2C6070BD264A58
:103AA00085BB1D4909680B44E31A002B2ADB1378F8
:103AB000002BE8D101231370204AD2F88010086847
:103AC00092F88C1003FA01F101611D48017821F090
:103AD00001050570D2F810512E6892F81C5103FAB6
:103AE00005F5356121F003050570D2F8205292F8F2
:103AF0002C222D68934021F007012B610170FFF704
:103B000025FFC0E700231370BDE700BF501400205D
:103B10006C120020DC25002084120020941200206A
:103B2000A0D202085C100020F0050020191D002022
:103B30001A1D00206412002068120020F8CD02082F
:103B40004F17002008B50BF09BFA02F041FD002052
:103B5000FFF76CFF11F0F0F80BF0FCFC034B1B7847
:103B60001BB9BDE8084011F055BE08BD7012002019
:103B700010B50D4C10F0E4FF0CF048F9237893B128
:103B80000A4B1A680A4B1A6000F032F9094800F033
:103B90001DF9002108480BF045FA4FF4AF7000F012
:103BA0008DF90023237010BDED0500204C1400207A
:103BB0005414002016D302088DD3020837B5FFF73E
:103BC000E9FA524A136823F0E06343F0007313608C
:103BD00010F0D4FA4FF4E1314D48FCF7FFFC4D4BA7
:103BE0004D481B6800F0F2F800F0FCF8FFF7E1FA2E
:103BF000C507044602D5494800F0E8F8A00702D5F9
:103C0000474800F0E3F8610702D5464800F0DEF8C7
:103C1000220702D5444800F0D9F8A30602D543484C
:103C200000F0D4F8FFF7C4FA414800F0CFF82021A3
:103C30003748FFF73AFE3F4800F0C8F80A213448F9
:103C4000FFF733FE00F0CEF83B4800F0BFF83B48EA
:103C500000F0BCF83A4800F0B9F800F0C3F8394871
:103C600000F0B4F800F0BEF80020FCF7D3FB0DF133
:103C70000701091A344800F0CDF8344C4FF4A8611C
:103C8000334800F0C7F80A212148FFF70EFE0BF079
:103C90004BF90BF0B3FB05F003FB237823B90DF0D0
:103CA000A3FB08B1012323702A4C2B4D21682868FF
:103CB00016F0ACF869682060606816F0A7F8A9688B
:103CC0006060A06816F0A2F8A0600DF083FD2348A4
:103CD00010F046FE0CF0C2F80DF0C4FB0FF0D6FE5B
:103CE0000FF0EAFC0FF080FB00200DF0DDFB00F090
:103CF000D1F9012000F0B0F9FFF7D6FD01231A46F3
:103D00001946184600F08AFB03B030BD040001409C
:103D10005C100020DC25002031F6020897D3020851
:103D2000A0D30208B1D30208C3D30208D4D3020837
:103D3000E5D30208ECD30208FAD302080AD4020839
:103D400015D4020838D402084FD4020861120020AA
:103D50005ED402085C1700207C170020E81F0020BA
:103D600008B513F08DFD124B1B789B0613D513F08D
:103D70009FF903F09FFDFFF7B5FD0CF047F810F039
:103D8000DFFE0021084610F041FC0022094B0A48E2
:103D90001A7003F02BFE094B1B78032B01D804F09B
:103DA000CFF803F043FF0DF07FFCFFF7CBFED8E721
:103DB000F4230020F405002012D302085014002040
:103DC000014812F0C9BF00BF6912002010B50446B7
:103DD00014F9011B19B10248FFF767FDF8E710BDA0
:103DE0005C1000200148FFF7F1BF00BF9DD402081E
:103DF0000148FFF7EBBF00BF96D4020810B50C4690
:103E0000FFF7E4FF2146BDE810400148FCF7B2BCD3
:103E10005C10002010B50C46FFF7D8FF2146BDE826
:103E200010400A220148FCF70BBD00BF5C100020C7
:103E300010B50C46FFF7CAFF2146BDE810400A2224
:103E40000148FCF710BD00BF5C10002013B50C4604
:103E5000FFF7BCFF204615F049FC02230246009301
:103E600002480B46FCF7D8FD02B010BD5C100020E4
:103E700010B50C46FFF7AAFF2146BDE810400A2204
:103E80000148FCF707BD00BF5C100020034A044B4B
:103E9000002814BF10461846FFF798BFE6D902085D
:103EA000F9D80208034A044B002814BF10461846EC
:103EB000FFF78CBF8BD4020890D4020810B50446DB
:103EC000322C06D93220323CFFF748F910F034FF8B
:103ED000F6E72046FFF742F9BDE8104010F02CBF8E
:103EE000064BD3F8F02093F8FC10012312688B40A6
:103EF0009268134214BF012000207047F8CD0208D9
:103F000010B50C4601460748FFF741FB2068B0F5A5
:103F1000FA7F38BF4FF4FA70FFF7D0FFBDE81040CA
:103F2000FFF7DEBFB81D00204FF4FA7337B540F23B
:103F3000EE2502AC44F8043D2146A020FFF7E0FF47
:103F400021465A200195FFF7DBFF21460A20019503
:103F5000FFF7D6FF21465A200195FFF7D1FF03B0A6
:103F600030BD000037B540F2EE2502AC44F8045DE8
:103F700021460A20FFF7C4FF18B90024204603B0E9
:103F800030BDFFF7D1FF21460A200195FFF7B8FFAA
:103F900004460028F1D0FFF72BFF0348FFF716FF78
:103FA000FFF7E6FDEAE700BFA3D4020837B540F209
:103FB000EE2502AC44F8045D21465A20FFF7A0FF2D
:103FC00018B90024204603B030BD4FF4FA732146DF
:103FD000A0200193FFF794FF21465A200195FFF797
:103FE0008FFF04460028ECD0FFF702FF0248FFF7DE
:103FF000EDFEFFF7BDFDE5E7A3D4020840F2EE2396
:1040000073B502AC44F8043D214606460A20FFF78A
:1040100077FF96202146019006B18C209625FFF768
:104020006FFF214682200195FFF76AFF0195214627
:104030006EB18C20FFF764FF40F2EE2321465A2038
:104040000193FFF75DFF034B1E7002B070BD284661
:10405000F0E700BF731200204FF4FA7337B502ACDB
:1040600044F8043D21460546A020FFF749FF40F2F1
:10407000EE2321465A200193FFF742FF044B1B78A1
:104080001BB115B10020FFF7B9FF03B030BD00BF71
:104090007312002010B5254CD4F804319BB10721D0
:1040A0001020FEF7A1FFD4F87431EBB107211720DF
:1040B000FEF79AFFD4F864313BB3BDE81040072106
:1040C0001620FEF791BF032294F80C11D4F80001DA
:1040D000FCF778FFD4F8003194F80C111A684FF40B
:1040E00080338B401361DEE7032294F87C11D4F80F
:1040F0007001FCF767FFD4F8703194F87C111A68EE
:104100004FF480338B401361D4E7032294F86C1191
:10411000D4F86001FCF756FFD4F8603194F86C11C4
:104120001A684FF480338B40136110BDF8CD02083C
:1041300038B52B4C0546D4F80431017833B3102040
:10414000FFF776F8D4F874316978002B2CD017205B
:10415000FFF76EF8D4F86431A978002B32D016201E
:10416000FFF766F82B786A781344AA781344022B79
:10417000CCBF012200221B4B1A7006DD1A4B9D4258
:104180001FBF2A881A80AA789A7038BD0123002997
:104190000CBF1021002194F80C219340D4F8002189
:1041A0008B4012681361CDE7012300290CBF102159
:1041B000002194F87C219340D4F870218B40126840
:1041C0001361C7E7012300290CBF1021002194F8D7
:1041D0006C219340D4F860218B4012681361C1E7D1
:1041E000F8CD02087712002074120020FF22024B43
:1041F0001A705A709A707047741200202DE9F341BA
:10420000D0F800800E684046176816F0E3F80546BF
:10421000384616F0DFF831460446404616F0BAF844
:1042200000BB3946304616F0B5F8E8B9304616F00E
:10423000D1F8FF26621B401BD31780FB060116F046
:104240000FF90A4BC0B21A78824208D01870C043E6
:104250008DF8060001A8ADF80460FFF769FF02B011
:10426000BDE8F0812846E4E72046E2E77812002026
:104270002DE9F341D0F800800E684046176816F02B
:10428000A9F80546384616F0A5F8314604464046DA
:1042900016F080F810BB3946304616F07BF8F8B9B6
:1042A000304616F097F8FF26621B401BD31780FBA1
:1042B000060116F0D5F80B4BC0B21A7882420AD02C
:1042C000187000238DF8040001A88DF805308DF8D2
:1042D0000660FFF72DFF02B0BDE8F0812846E2E757
:1042E0002046E0E77812002010B50B6804461B69F1
:1042F000084698472379C0F3400210F01E0F60F380
:10430000000362F3410314BF0122002262F382031F
:1043100020602371204610BD08B558210148FFF7E1
:10432000C4FA08BD5C10002008B559210148FFF708
:10433000BCFA08BD5C10002008B55A210148FFF7FF
:10434000B4FA08BD5C10002008B545210148FFF70C
:10435000ACFA08BD5C100020F7B53C2400680D469F
:10436000B0FBF4F74FF46161B7FBF4F3B0FBF1F18C
:1043700004FB13738EB2A2B11821B6FBF1F2104CFC
:1043800001FB1266B0FBF4F400932246B3B20D4970
:10439000284621F07BFB0A2C34BF0820092003B0FB
:1043A000F0BD632E8AB205D80749284621F06EFB7E
:1043B0000520F4E70549284621F068FB0620EEE7D2
:1043C00080510100AFD50208B3D50208BDD502085F
:1043D00010B504460C48FFF7F9FC102221680B4881
:1043E000FCF762FA23799A0702D50948FFF7EEFC39
:1043F00023795B0702D50748FFF7E8FCBDE81040CA
:104400000548FFF7FDBA00BF1CD502085C1000206C
:1044100037D5020848D502085CD50208F8B50D4624
:1044200017461E46002800F095805248FFF7CEFC44
:10443000FFF772FF5048FFF7C9FC504814F067FEC1
:104440000446002800F084804D48FFF7BFFC012C93
:104450007CD04C484C4B022C18BF1846FFF7B6FCDA
:104460000A214A48FFF721FA003418BF01240DB38E
:104470004048FFF7ABFCFFF757FF3F48FFF7A6FCAC
:10448000434814F044FE0546002867D03C48FFF737
:104490009DFC012D60D03B483B4B022D18BF1846B8
:1044A000FFF794FC002D18BF01340A213748FFF7AD
:1044B000FCF9E4B20FB32F48FFF788FCFFF73CFF8D
:1044C0002D48FFF783FC334814F021FE05460028F1
:1044D00048D02B48FFF77AFC012D41D029482A4BC0
:1044E000022D18BF1846FFF771FC002D18BF0134CC
:1044F0000A212648FFF7D9F9E4B206B31D48FFF7B1
:1045000065FCFFF721FF1C48FFF760FC224814F010
:10451000FEFD054650B31A48FFF758FC012D23D085
:104520001848194B022D18BF1846FFF74FFC002DF5
:1045300018BF01340A211548FFF7B7F9E4B2BCB13E
:10454000BDE8F840002115480AF06CBD144885E725
:104550000D4883E704468AE71148A1E70A489FE728
:104560000F48C0E70848BEE70D48DEE70648DCE72D
:10457000F8BD00BF75D502087ED50208881E002050
:104580008ED5020871D5020869D502085C1000209A
:10459000D01E0020181F0020401E00209AD50208BF
:1045A0006CD5020830B589B004460D46014602A814
:1045B000FFF79AFE029B013B03336FD8002D6DD0AD
:1045C0009DF80C2094F84330900769D5013384F8A6
:1045D000433094F84330092B08D90A213548FFF7B6
:1045E00064F9FFF799FE02A8FFF7F2FE9DF80C3080
:1045F000D90723D594F8423003BB0BF041FC2E4A77
:104600000190904294BF0022012204A901A8FFF763
:10461000A3FE0A212748FFF748F904A92548FCF71B
:10462000A9F82648FFF7D2FBFFF776FE2448B4F836
:104630004010FFF7EFFB2348FFF7C8FB9DF80C3055
:1046400013F0010F94F842302ED0042B20D92046CD
:10465000B4F8405014F07AFBA0B1642D12D9A5F142
:10466000320189B2A4F84010204614F0D9FCFFF7BB
:1046700053FEB4F840101448FFF7CCFB0A210D4854
:10468000FFF713F99DF80C2094F84230D2070BD5B0
:10469000013384F84230012384F8443009B030BD3E
:1046A000002B96D0013B92E7002BF7D0002384F833
:1046B0004230F3E75C10002080510100F2F502085F
:1046C000DDD4020800D5020805D5020830B589B04E
:1046D00004460D46014602A8FFF706FE029B013B79
:1046E00003336FD8002D6DD09DF80C2094F8433023
:1046F000900769D5013384F8433094F84330092B8F
:1047000008D90A213548FFF7D0F8FFF70DFE02A8B7
:10471000FFF75EFE9DF80C30D90723D594F84230A0
:1047200003BB0BF0ADFB2E4A0190904294BF0022D8
:10473000012204A901A8FFF70FFE0A212748FFF76D
:10474000B4F804A92548FCF715F82648FFF73EFB06
:10475000FFF7EAFD2448B4F84010FFF75BFB23485D
:10476000FFF734FB9DF80C3013F0010F94F8423042
:104770002ED0042B20D92046B4F8405014F0E6FA8D
:10478000A0B1642D12D9A5F1320189B2A4F840106C
:10479000204614F045FCFFF7C7FDB4F8401014485C
:1047A000FFF738FB0A210D48FFF77FF89DF80C2032
:1047B00094F84230D2070BD5013384F842300123FC
:1047C00084F8443009B030BD002B96D0013B92E70D
:1047D000002BF7D0002384F84230F3E75C10002070
:1047E00080510100F2F50208DDD4020800D502086C
:1047F00005D5020830B589B004460D46014602A829
:10480000FFF772FD029B013B03336FD8002D6DD083
:104810009DF80C2094F84330900769D5013384F853
:10482000433094F84330092B08D90A213548FFF763
:104830003CF8FFF781FD02A8FFF7CAFD9DF80C3098
:10484000D90723D594F8423003BB0BF019FB2E4A4D
:104850000190904294BF0022012204A901A8FFF711
:104860007BFD0A212748FFF720F804A92548FBF71C
:1048700081FF2648FFF7AAFAFFF75EFD2448B4F847
:104880004010FFF7C7FA2348FFF7A0FA9DF80C3055
:1048900013F0010F94F842302ED0042B20D920467B
:1048A000B4F8405014F052FAA0B1642D12D9A5F119
:1048B000320189B2A4F84010204614F0B1FBFFF792
:1048C0003BFDB4F840101448FFF7A4FA0A210D4844
:1048D000FEF7EBFF9DF80C2094F84230D2070BD581
:1048E000013384F84230012384F8443009B030BDEC
:1048F000002B96D0013B92E7002BF7D0002384F8E1
:104900004230F3E75C10002080510100F2F502080C
:10491000DDD4020800D5020805D5020830B589B0FB
:1049200004460D46014602A8FFF7DEFC029B013B50
:1049300003336FD8002D6DD09DF80C2094F84330D0
:10494000900769D5013384F8433094F84330092B3C
:1049500008D90A213548FEF7A8FFFFF7F5FC02A8A1
:10496000FFF736FD9DF80C30D90723D594F8423077
:1049700003BB0BF085FA2E4A0190904294BF0022AF
:10498000012204A901A8FFF7E7FC0A212748FEF746
:104990008CFF04A92548FBF7EDFE2648FFF716FA21
:1049A000FFF7D2FC2448B4F84010FFF733FA23484D
:1049B000FFF70CFA9DF80C3013F0010F94F8423019
:1049C0002ED0042B20D92046B4F8405014F0BEF964
:1049D000A0B1642D12D9A5F1320189B2A4F840101A
:1049E000204614F01DFBFFF7AFFCB4F8401014484C
:1049F000FFF710FA0A210D48FEF757FF9DF80C202B
:104A000094F84230D2070BD5013384F842300123A9
:104A100084F8443009B030BD002B96D0013B92E7BA
:104A2000002BF7D0002384F84230F3E75C1000201D
:104A300080510100F2F50208DDD4020800D5020819
:104A400005D5020808B50F490F4B0A681B689A1A6A
:104A5000002A16DB03F5FA730B60002201210B48D4
:104A6000FFF7A0FD002201210948FFF72FFE0022D9
:104A700001210848FFF7BEFE002201210648FFF78A
:104A80004DFF08BD7C120020DC250020881E002080
:104A9000D01E0020181F0020401E00204138C3B245
:104AA000192B2DD8174A1068D84010F0010028D0D3
:104AB000154AD25C12B3154B19688B188A56A2F1AD
:104AC0003001C9B2092906D92E2A08D15A78303ABC
:104AD000092A88BF00230E4A0120136070472D2A3F
:104AE00001D02B2A0AD193F90110A1F13002D2B2E0
:104AF000092AF0D92E2901D19A78E8E70023EAE7BC
:104B000000207047B81200209A1200209412002052
:104B1000BC12002008B5FFF7C1FF20B1024B186896
:104B2000003018BF012008BDBC120020034B1868DC
:104B300018B10A22002122F061BD7047BC1200208A
:104B400007B5144B1B7803F00303032B0BD012485B
:104B500000210AF067FAFFF745F91048FFF736F928
:104B600003B05DF804FB0CF035FE0D480D4B01461B
:104B70009B6802AA83600C4B03600C4B41F8043F16
:104B8000002342F8043D0CF0C7FE02200DF066F849
:104B9000E6E700BF4F170020C5D50208D3D50208AD
:104BA0006C1700205C170020000021430000F64233
:104BB0002DE9F74F4F4B05461B7803F00703072BF2
:104BC00072D00DF049FD0CF0B1FE01200CF066FC36
:104BD0005820FFF763FF04465920FFF75FFF804628
:104BE0005A20FFF75BFF81461DB9444504D184423A
:104BF00002D10124A046A1463F4E404FB24697E85D
:104C00000F0086E80F005220FFF784FF00286ED0C7
:104C10003B4B186850B30246934612F9016B36F0CD
:104C2000200160D0452E01D0652EF5D100218BF8F2
:104C30000010186822F002FC05468BF80060002185
:104C4000284615F07FFB88B914B9B8F1000F17D0CA
:104C5000CAF808502946B86815F07EFB30B1002329
:104C600002A941F8043D27480CF04AFE14B1002087
:104C70000CF0F4FFB8F1000F02D001200CF0EEFFB1
:104C8000B9F1000F04D00020FFF7E6F9FFF758FF55
:104C90000CF0A0FD0CF0B6FB0CF05CFE03221A4BEE
:104CA0001A700CF067FD14E04F20FFF733FF98B146
:104CB000134B1B686BB1FFF739FF002881DBFFF74F
:104CC00035FFFF2805DCFFF731FF10F0FF0F3FF441
:104CD00078AF03B0BDE8F08F4F20FFF7DFFE00286C
:104CE0003FF46FAFF5E722F0A9FB0546A7E7074DB4
:104CF000AAE700BF4E1700206C1700205C170020A9
:104D0000BC12002074170020100600200000204173
:104D100038B50D4B1868A8B10246154612F9014B7B
:104D200034F020010AD0452C01D0652CF5D10021AA
:104D30002970186822F082FB2C7038BDBDE838401D
:104D400022F07CBB0020F8E7BC12002070B501F017
:104D50000DF9051E26DB4420FFF7A0FED8B1FFF7B2
:104D6000D7FF002106464FF0010415F0EBFA08B119
:104D70004FF000040C4B00211C70304615F0E2FA95
:104D800048B9FFF7C5FF0021044615F0DBFA074BD1
:104D900028B943F82540BDE870400DF0B1BB044A86
:104DA0001A60F8E770BD00BF99120020041D0020B2
:104DB0000000E03F10B501F0D9F8002813DB002413
:104DC000094B1857FFF76AFE30B1FFF7A1FF15F046
:104DD00027FB064B43F824000134042CF0D1BDE836
:104DE00010400EF031BA10BDE2D50208601D00205F
:104DF00010B501F0BBF800280EDB0024074B185754
:104E0000FFF74CFE28B1FFF783FF054B03EB84034C
:104E100058620134042CF1D110BD00BFE2D5020864
:104E2000601D002008B5214B214A1B681A423CD066
:104E30004220FFF733FE40B11E4B186818B10A221A
:104E4000002122F097FC1C4B18615320FFF726FE2F
:104E500018B1FFF75DFF184B18645420FFF71EFED2
:104E600018B1FFF755FF144B58645820FFF716FE92
:104E700018B1FFF74DFF114B18605920FFF70EFED8
:104E800018B1FFF745FF0D4B58605A20FFF706FE9B
:104E900018B1FFF73DFF094B98604520FFF7FEFD75
:104EA00018B1FFF735FF054BD86008BDB8120020D8
:104EB00012008C03BC120020601D0020401D002049
:104EC00010B51D4B1B6813F4682F12D11B4C1C48E6
:104ED000616BFEF7BBFFA16B1A48FEF7B7FFE16BF2
:104EE0001948FEF7B3FFBDE810400A211748FBF749
:104EF00021BB5320FFF70EFE20B1FFF709FF0F4B38
:104F00005863D8635020FFF705FE18B1FFF700FF84
:104F10000A4B58635220FFF7FDFD18B1FFF7F8FE6A
:104F2000064B98635420FFF7F5FD18B1FFF7F0FE2C
:104F3000024BD86310BD00BFB8120020601D0020D6
:104F4000E6D50208F6D50208F9D502085C10002063
:104F500008B5194B1B685B0304D5184B9A7C184B9A
:104F60000AB91A6008BD1749096888188A56A2F15B
:104F70003001C9B2092905D92E2A0BD14278303A1D
:104F8000092A0BD80A220021186022F037FB0E4BA9
:104F90001880E7E72D2A03D02B2A01D00022E0E772
:104FA00090F90110A1F13002D2B2092AEAD92E29D2
:104FB000F4D18278E3E700BFB81200209A120020F3
:104FC000BC120020941200201806002038B500F012
:104FD000CDFF041E47DB2D4B2D4D1B6813F4802F96
:104FE00004D02C4B9A7C2C4BCAB91A60FEF7FAFEFF
:104FF00045212A48FEF759FC04F130012748FEF705
:1050000054FC35F914102648FEF704FF25212348E7
:10501000FEF74BFC0A212148FEF747FC23E021491B
:10502000096888188A56A2F13001C9B2092905D940
:105030002E2A19D14278303A092A19D80A22002199
:10504000186022F0DBFA00B225F8140014F092FF89
:10505000154914F0E3FF154B53F8241014F0DEFF4C
:10506000134B43F8240038BD2D2A03D02B2A01D03E
:105070000022BAE790F90110A1F13002D2B2092A58
:10508000DCD92E29F4D18278D5E700BFB8120020F0
:10509000440600209A120020BC1200205C10002060
:1050A000FCD50208941200200AD7233C201D0020C2
:1050B0004806002010B54520FFF7F0FC002837D146
:1050C0005020FFF7EBFC264C10B1FFF721FEE0600B
:1050D0004920FFF7E3FC28B1FFF71AFE214914F03D
:1050E0009DFF20614420FFF7D9FC28B1FFF710FE97
:1050F0001C4915F047F86061FEF774FEE1681A4834
:10510000FEF7A4FE2069174915F03CF80146174840
:10511000FEF79CFE6069134914F080FF01461448B5
:10512000FEF794FEBDE810400A211248FBF702BAD0
:10513000114B1B68002BC3D0FFF7F8FC0028BFDB26
:10514000FFF7F4FCFF2804DCFFF7F0FC10F0FF0F82
:10515000B6D0FEF74DFEBDE810400848FEF736BE5B
:10516000601F00200AD7233E04D6020808D6020892
:105170000CD602085C100020BC12002010D60208D9
:1051800070B55320FFF78AFC0546F0B12F4B186825
:1051900000283AD00246164612F9014B34F020019D
:1051A00030D0452C01D0652CF5D100213170186824
:1051B00022F044F9347015F00DF9254B00B2188037
:1051C000B0FA80F0234B400918705020FFF766FCBE
:1051D0000446F0B11E4BB3F9003083B11B4B1B6882
:1051E0006BB1FFF7A3FC002811DBFFF79FFCFF2842
:1051F00005DCFFF79BFCC0B2041C18BF0124154B53
:105200001C7070BD22F01AF9D5E70020D3E7002406
:10521000F5E7002DF5D1FEF7E5FD0F48FEF7D6FDC9
:105220000C4B0E4A18780E4B002814BF1046184637
:10523000FEF7CCFD064B0B48B3F90010FEF7EAFD74
:10524000BDE870400848FEF7C1BD00BFBC12002099
:105250005A060020901F002026D6020856EC0208AD
:1052600022D6020839D602084AD6020810B5C0B1C3
:10527000FEF7B8FD0D4C0E486169FEF7E7FDA16928
:105280000C48FEF7E3FDE1690B48FEF7DFFD216AFC
:105290000A48FEF7DBFDBDE810400A210848FBF78D
:1052A00049B920210648FBF745F9E3E7601D0020D6
:1052B0004ED6020816ED020811F2020837F2020873
:1052C0005C1000202DE9F04100F050FE011E4ADB89
:1052D000264B274A1B681A4204D1BDE8F041012041
:1052E000FFF7C4BF0025234B5857FFF7D7FB68B320
:1052F000214B1B6853B3032D204C2ED1FFF708FD23
:105300001F49074615F028F8F8B13946206A14F00D
:1053100039FFDFF8708006460146D8F80C0014F01B
:105320007DFE3146C8F80C00206B14F077FEDFF8E4
:1053300058802063D8F80C0014F018FE314614F0A1
:105340006DFE15F06DF8C8F80C0027620135042DCC
:10535000C9D1BDE8F0410DF09BBFFFF7D9FC04EBCC
:1053600085046061F2E7BDE8F08100BFB81200205B
:105370001000800355D60208BC120020601D0020DA
:105380000000A041401D0020301D00200023024AE3
:105390001370024A1370704771120020F405002048
:1053A0000020FEF72DBBFEF79DBA000070B553201C
:1053B000FFF774FB204D28B15320FFF76FFB20BB94
:1053C00000202870FEF70EFD1C48FEF7FFFC2B782E
:1053D0006BB3002423462A78E240D2070CD55E1C2A
:1053E000F6B21BB12C211648FBF7A4F8154B53F865
:1053F0002400FEF7EBFC33460134052CEBD1BDE86D
:1054000070400A210E48FBF795B80F4B1B68002B24
:10541000D6D0FFF78BFB0028D2DBFFF787FBFF28F6
:1054200003DCFFF783FBC0B2CBE7FF20C9E70748E7
:10543000FEF7CCFCE3E700BF7212002059D6020849
:105440005C1000208CD60208BC12002060D6020836
:1054500001200BF0FDBF00200BF0FABF08B50021C2
:10546000034809F0DFFDBDE80840FEF747BA00BF7A
:10547000A0D6020838B55320FFF710FBF0B13A4B25
:105480001868D8B10246154612F9014B34F02001D4
:1054900011D0452C01D0652CF5D100212970186858
:1054A00021F0CCFF2C70314914F0B8FD14F0B8FF96
:1054B0002F4B186038BD21F0C1FFF4E75820FFF7EB
:1054C000EDFA78B95920FFF7E9FA58B95A20FFF7F1
:1054D000E5FA38B94520FFF7E1FA18B9BDE83840D8
:1054E0000DF094B80DF0B8F85820FFF7D7FA68B16E
:1054F000204BD3F8802093F88C10012312688B4046
:1055000013611D4A137823F0010313705920FFF72C
:10551000C5FA68B1174BD3F8102193F81C11012379
:1055200012688B401361144A137823F0020313703E
:105530005A20FFF7B3FA68B10E4BD3F8202293F844
:105540002C12012312688B4013610B4A137823F04D
:10555000040313704520FFF7A1FA0028AAD0BDE884
:105560003840FEF7F3B900BFBC12002000007A44B7
:10557000F0050020F8CD02084F17002038B5FEF7DF
:1055800031FC4248FEF722FC414B424C1B6813F4AD
:10559000802F1CD0404B997C404B11B919600120E1
:1055A00014E03F4A106842184156A1F13000C0B2E1
:1055B000092805D92E294BD15178303909294BD8E2
:1055C0001A60FFF7B3FA002854DA00202070354D36
:1055D0002078354CFEF75AFC3448FEF7F7FB296873
:1055E000206814F013FC01463148FEF72FFC69686F
:1055F000A06814F00BFC01462E48FEF727FCA968B2
:10560000206914F003FC01462B48FEF71FFC2B48D1
:10561000FEF7DCFB2968606814F0F8FB01462448BB
:10562000FEF714FC6968E06814F0F0FB01462148BD
:10563000FEF70CFCA968606914F0E8FB01461E48FF
:10564000FEF704FCBDE838400A211D48FAF772BF96
:105650002D2904D02B2902D000221A609FE792F94D
:105660000100A0F13001C9B20929A9D92E28F3D12E
:105670009178A2E7FFF75AFAFF2890DCFFF756FA75
:10568000C0B2003018BF0120A0E700BFA9D60208B1
:10569000B8120020340600209A120020BC1200200C
:1056A00094120020981700201C060020B9D602088A
:1056B000BEF0020816ED020811F20208C1D6020877
:1056C0005C10002010B50C46FFF7E8F938B1054B27
:1056D000186820B10A22002121F090FF04B2204670
:1056E00010BD00BFBC12002038B55020FFF7D6F91E
:1056F00090B300215020FFF7E5FF4FF0FF31054642
:105700005320FFF7DFFF431C022B044624D868B266
:10571000002821DBFEF7CEF818B1BDE83840FEF7CF
:10572000D7B8EDB20CF098FF02212846FDF75CFCDB
:10573000621C0AD0631E5C425C412846FDF7CAFC2D
:10574000A04209D0FEF7FEF9F7E72846FDF7C2FCB4
:10575000B0FA80F46409F0E738BD000010B55020BD
:10576000FFF79CF9A0B3FFF7E1F904B22CBB53207B
:10577000FFF794F9044668B1FFF7D8F901B24B1C62
:10578000144803D1BDE81040FDF7F2BEBDE810405B
:10579000FDF7FDBEFEF726FB21460F48FEF73AFB5C
:1057A0000C48FDF7E1FD01460C48FEF741FBBDE862
:1057B00010400A210A48FAF7BDBEFEF719FB214640
:1057C0000848FEF727FBBDE810400748FEF7FEBA81
:1057D00010BD00BFB81D0020C9D60208F2F50208AE
:1057E0005C100020CAD60208D1D602080CF034BFE3
:1057F00008B5FFF79BF9002807DBFFF797F9FF28AB
:1058000005DCFFF793F9C0B208BD0020FCE7FF20DC
:10581000FAE7000070B55320FFF77CF9A0B3FFF75B
:10582000E7FF05465020FFF775F968B3FFF77EF9EB
:105830000304044628D446B24920FFF76BF968B147
:10584000124B1B687BB1FFF7D3FF60B93046FEF700
:1058500031F840B1BDE87040FEF73AB84920FFF793
:105860001DF90028F2D0E4B200212046FDF7BCFB70
:1058700029462046FDF742FC29463046FDF7D8FC74
:10588000282E04BF024B1D7070BD00BFBC1200204B
:10589000B41F002008B50FF053F90AF0B7FA0CF066
:1058A000B5FE002108460EF0B1FE4FF47A70FEF707
:1058B00005FBBDE808400021014809F0B3BB00BF6B
:1058C000E0D6020838B5244B1B685B030CD5234B8C
:1058D0009A7C234B4AB900201A60224914F09EFB9F
:1058E00014F09EFD204B186038BD204909688818C7
:1058F0008A56A2F13001C9B2092905D92E2A16D13A
:105900004278303A092A16D802461860154612F92C
:10591000014B34F020011BD0452C01D0652CF5D172
:1059200000212970186821F089FD2C70D5E72D2AF7
:1059300003D02B2A01D00022CDE790F90110A1F16C
:105940003002D2B2092ADFD92E29F4D18278D8E7E1
:1059500021F074FDC1E700BFB81200209A120020A8
:10596000BC12002000007A446C1200209412002027
:10597000012208B5114B53201A700022104B1A70E7
:10598000FFF78CF8A0B10F4B1B688BB1FFF7CEF877
:10599000002803DABDE8084002F090B9FFF7C6F826
:1059A000FF2804DCFFF7C2F810F0FF0FF2D008BDAB
:1059B0005320FFF773F80028ECD0F8E7ED0500203E
:1059C000BF160020BC120020002110F025B90AF0FB
:1059D000D7BA0BF009BD0AF071BD000010B5532015
:1059E000FFF75CF80446A8B10E4B1B6893B1FFF7B4
:1059F0009DF8002813DBFFF799F8FF2805DCFFF777
:105A000095F8C0B2041C18BF01242046BDE8104020
:105A10000AF0F2BD5320FFF741F80124F5E7002416
:105A2000F3E700BFBC12002008B50BF0D1FC30B189
:105A3000FEF7D8F9BDE808400148FEF7C7B908BD30
:105A4000F0D6020837B55220FFF728F820B1154BE1
:105A50001B6803B3FFF7CCFE05465520FFF71EF881
:105A600020B1104B1B68C3B1FFF7C2FE04464220B1
:105A7000FFF714F820B10B4B1B6883B1FFF7B8FE9A
:105A80008DF8060001A88DF804508DF80540FEF74A
:105A90004FFB03B030BDFF25DFE7FF24E7E7FF2022
:105AA000EEE700BFBC12002037B5002401250194A9
:105AB000114B1857FEF7F2FF18B10122002501AB78
:105AC000E2540134042CF3D145B101238DF80430A4
:105AD0008DF805308DF806308DF807309DF80730C9
