:020000040800F2
:1000000000C00020A5030008F10D0008F50D000850
:10001000F90D0008FD0D0008010E00080B15000881
:100020000B1500080B1500080B1500080B15000830
:100030000B1500080B1500080B1500081D1500080E
:100040000B1500080B1500080B1500080B15000810
:100050000B1500080B150008450E0008650E00087A
:10006000850E0008A50E0008C50E0008950C0008B6
:10007000AD0C0008C50C0008E10C0008FD0C0008E0
:10008000190D0008350D0008A10A00080B1500081D
:10009000952000080B1500080B150008E50E000858
:1000A00001180008251800084918000881180008E0
:1000B000D518000845190008B5190008FD110008F9
:1000C0001512000809120008211200080B1500087B
:1000D0000B150008011E0008511E0008A11E000893
:1000E000290F00080B1500080B150008DD1A000881
:1000F000011B0008251B00085D1B0008F90A000809
:100100000B1500080B150008251A00080B15000830
:10011000F11E0008411F0008951A0008B91A0008CE
:10012000510D0008690D0008810D00089D0D0008A3
:1001300010B5054C237833B9044B13B10448AFF321
:1001400000800123237010BD40100020000000003B
:10015000D8A9020808B5034B1BB103490348AFF304
:10016000008008BD0000000044100020D8A902084B
:1001700010B512490A2309220968114800F0EAF96A
:1001800010490323022209680F4800F0E3F90F49E0
:100190001B231A2209680E4800F0DCF90D492B23B5
:1001A0002A2209680C4800F0D5F9BDE810400B4937
:1001B00032232C2209680A4800F0CCB984020020BE
:1001C0005C10002088020020741000208C020020A7
:1001D0008C1000207C020020A4100020800200204F
:1001E000BC10002010B5044600F0DCFC034B204698
:1001F000BDE81040197800F03DBC00BF160000209B
:10020000F8B50446056801F0E5F9002223685B01B2
:1002100003F184431A6080232B600123AB622A61BF
:10022000EA606B61637973B1012B0FD001222368FF
:100230005B0103F18443C3F8802223685B0103F16F
:1002400084431A60F8BD4FF400436B644FF6FF72AD
:1002500000252368DA626E1CF7B23946204601F0A9
:10026000CEF9E8B148F6FF72236817F0010F03F1E9
:10027000340343F8252014BF6FF0FF026FF47F4270
:1002800023684FEA650503F1180353F8251001EAC6
:10029000020114BF68224FF4D0420A4343F82520DC
:1002A000042E3546D7D1C1E77047000038B5002588
:1002B000264A274C1368022043F01003136000F015
:1002C00055FE002001F016F865602368182023F41D
:1002D0000023236001F01AF8102001F017F800F055
:1002E00043F8A560102001F005F8102001F01CF87B
:1002F0000028FAD000F039F8164801F021F818204B
:1003000000F0F8FF182001F00FF80028FAD00220C2
:1003100000F0E0FF00214FF0006000F0B1FF0E4858
:1003200001F0F4F800F038F80C4B188800F022FCCB
:100330000B4800F023FC0B4801F026F900F02EF8E2
:1003400000F02DF8FFF7B0FF38BD00BF00200240DD
:10035000001002400C0000203F1901001400002092
:10036000E5010008010200087047002108B50846B1
:1003700001F026F84FF48061012001F021F80021FE
:10038000022001F01DF82D2001F02AF8BDE80840F8
:100390000021032001F014B800F0FCBD704700F00C
:1003A00038BE000001498D460149084700C00020C1
:1003B000B503000808B5114B1A68114B9A4213D1C6
:1003C000104B114A934213D323F0C8FB002211466D
:1003D000104602F0AFFD0D4B7BB123F05BF952F8F4
:1003E000041B043343F8041C09498B42F7D3E7E7A5
:1003F0000022043343F8042CE3E7FEE7A8020308D5
:100400000000002040100020402600209536020801
:100410004010002010B50D4B1A680AB90C4A1A603A
:100420001A680C49891A814204DB09494442511A6D
:10043000A14207DA23F028F90C234FF0FF320360C2
:10044000104610BD10441860FAE700BFD410002019
:1004500040260020187C0328002070474FF40053EA
:1004600000204B607047012070474FF0FF3070470D
:100470000020704710B50C46FFF7FAFF20700120EE
:1004800010BD704770B515460C468E18B44201D1A8
:10049000284670BD14F8010BFFF7F3FFF6E7FEE7FF
:1004A000C38882889B1AC2888188914282BF028950
:1004B00001329B1898B2704710B50369044658681A
:1004C000FFF7EEFF88B123695B689A88196892B2DA
:1004D000885C99881A89C0B292B28A420FBF002202
:1004E0009A88013292B29A8010BD4FF0FF30FBE73C
:1004F00008B503695868FFF7D3FF08BD03695B6857
:100500009988DA8892B28A421FBF9A881B6892B291
:10051000985C14BFC0B24FF0FF3070470269916819
:100520008888CB889BB28342FAD1126813685B0635
:10053000FCD5704713B504698DF8071001220DF141
:100540000701204601F07FFB0028F7D0012002B010
:1005500010BD000030B54FF0000C4FF47A75C0E9C3
:1005600001C5034D016105600275437530BD00BFD3
:1005700050BF02082DE9F74303690446DB6888464B
:100580008B42914625D3067D134D3601AB19477D2D
:10059000586818B10022597B01F0E8F8206901F091
:1005A00007FB39016A18127BAB19CDF804901B7B4D
:1005B000695800932069AB5901F0C1FB206942469C
:1005C000002101F0E2FB206903B0BDE8F04301F037
:1005D00015BB03B0BDE8F08318BC02080022FFF78A
:1005E000C9BF0000044B02791B789A4202BF034B3B
:1005F0001B681860704700BFF8100020FC10002036
:10060000002310B50446036072B6054B193119700A
:10061000044B1860044800F0B7FF62B6204610BDD6
:10062000F8100020FC100020E505000800220368F7
:100630001B685B0103F184431A6070470122036861
:100640001B685B0103F184431A607047036801393A
:100650001B6889B29962704703681A68D36A9BB2B3
:10066000994228BF19465162704738B561B90122D5
:1006700003681B68996203681B68DA6203681B6879
:10068000DC6AA4B2204638BD48224A434FF6FF71C7
:10069000B2FBF1F1013189B202EB5102B2FBF1F28E
:1006A00094B2FFF7D3FF036892B21B68DA62E9E7FE
:1006B000012203681B685B0103F18443C3F88022B5
:1006C0007047000008B501211048FFF799FF02218B
:1006D0000F48FFF795FF03210E48FFF791FF042114
:1006E0000D48FFF78DFF05210C48FFF789FF062114
:1006F0000B48FFF785FF07210A48FFF781FFBDE898
:10070000084008210848FFF77BBF00BFD810002031
:10071000DC100020E0100020E4100020E810002091
:10072000EC100020F0100020F4100020F8B5064670
:100730000C4615468F18A74206D0336814F8011BE3
:100740001B6830469847F6E72846F8BD70B5054661
:100750000C46084649B124F0BDFA2B6802462146F2
:100760002846BDE870409B68184770BD0368C9B251
:100770001B68184703685B68184738B50D210546A4
:10078000FFF7F4FF0A2104462846FFF7EFFF204455
:1007900038BD38B50546FFF7EDFF04462846FFF79C
:1007A000ECFF204438BD2DE970439046994690B047
:1007B00058EA090306469DF8585007D13021FFF743
:1007C000D5FF0125284610B0BDE8708300244046BF
:1007D00049462A46002318F085FD804689460134A3
:1007E0000DEB040303F8012C58EA0903EFD10025AF
:1007F000013C1DF804103046092994BF30313731CF
:1008000049B2FFF7B3FF0544002CF1D1DAE72DE937
:10081000F0411D46002A75F1000307461446069E66
:1008200005DA2D21FFF7A2FF644265EB4505F6B21C
:10083000069622462B463846BDE8F041FFF7B3BF87
:1008400007B5CB1700920A46FFF7E1FF03B05DF84A
:1008500004FB38B50546FFF7F3FF04462846FFF7CB
:100860008CFF204438BD07B5CB1700920A46FFF72E
:10087000CEFF03B05DF804FB37B5CB1700920A46F4
:100880000546FFF7C4FF04462846FFF776FF2044DD
:1008900003B030BD07B5D2B2009200230A46FFF77D
:1008A00082FF03B05DF804FB37B5D2B2009200239B
:1008B0000A460546FFF777FF04462846FFF75DFF27
:1008C000204403B030BD00002DE9F34717461E4613
:1008D0008246002200233846314618F0F7F89DF88A
:1008E00028504FF00104F8B143A3D3E90023384660
:1008F000314618F0E1F800B90446E4B200220023C2
:1009000038463146C4B118F0C3F818B12D2150460D
:10091000FFF72CFF04463C495046FFF72BFF0444E9
:10092000204602B0BDE8F08735A3D3E9002338465E
:10093000314618F0B7F8DEE718F0AAF830B12D21EB
:100940005046FFF713FF044606F100464FF000083B
:1009500000202E495FFA88F39D4206D900222C4BD5
:1009600017F04EFF08F10108F4E73A46334617F056
:1009700067FC06460F4618F0CDFC0A23024600939A
:1009800080460B4650468946FFF741FF0444002D40
:10099000C6D04046494617F0DBFD02460B463046BE
:1009A000394617F04BFC06460F4650461949FFF7EB
:1009B000E1FE0444013DEDB2FF2DB1D0144B002205
:1009C0003046394617F0F2FD0F46064618F088F813
:1009D0000A22014680465046FFF732FF0444404653
:1009E00017F07AFD02460B463046394617F026FCD2
:1009F00006460F46DEE700BF800350726C92DF436D
:100A0000800350726C92DFC36CBF02080000E03FAD
:100A10000000244081DA02089DF800100091FFF7E1
:100A200053BF000030B504460D4687B0064901A803
:100A300023F03CFF22462B4601A90A9823F036FFFB
:100A40000A9807B030BD00BF7BBF0208704710B5E1
:100A50000446007900F082FC2079BDE8104000F0E7
:100A600095BC026841F48011936823F46023194314
:100A700091607047002330B51C461D4603EB4302CE
:100A8000072B01FA02F203F10103D8BF15430A2B29
:100A900044EA0204F2D10368DD6003681C6130BDE2
:100AA00070B5144C23681B681D68A90707D51A6820
:100AB00022F002021A6023689B6803B198476A0714
:100AC00009D523681A68136823F0040313602368A8
:100AD0001B6903B19847EB070BD523681A681368A5
:100AE00023F0010313602368DB6813B1BDE8704095
:100AF000184770BD1C00002070B5144C23681B689B
:100B00001D68A90707D51A6822F002021A60236837
:100B10009B6803B198476A0709D523681A68136868
:100B200023F00403136023681B6903B19847EB07A4
:100B30000BD523681A68136823F001031360236838
:100B4000DB6813B1BDE87040184770BD2400002079
:100B5000012203685B0103F1844303F58673191FC7
:100B60001A6018680028FCD143F8042C0B68002B8D
:100B7000FCD170470146042000F022BC10B50446A9
:100B8000054B1868A047054B1868A047044B186828
:100B90002346BDE8104018471C000020200000201C
:100BA0002400002010B50446FFF751FF20464FF403
:100BB0006021FFF756FF0122236820465B0103F105
:100BC0008443C3F8502123685B0103F18443C3F8D5
:100BD0000021BDE81040FFF7BBBF007900F0BEBBAD
:100BE00014230139594300680830435823F4405313
:100BF00043EA023242507047036814200833013937
:100C000000FB01314A60704700EBC10340F831201E
:100C100093F90430002B08DB0122591103F01F0364
:100C200002FA03F3014A42F82130704700E100E084
:100C300014220368013902FB01310123490101F14A
:100C40008441C1F80031704714220368013902FB66
:100C500001310023490101F18441C1F8003170479D
:100C60002DE9F04114251C4690464B1E5D43066855
:100C7000FFF7EAFF9DF81C30240244EA8324089B16
:100C800008361C43069B77197451FB60C7F808802F
:100C9000BDE8F08110B5044B1C68A3681BB19847F0
:100CA000012223685A6010BD6000002010B5044B7B
:100CB0001C6823691BB19847102223685A6010BD35
:100CC0006000002010B5054B1C68A36923B198474C
:100CD0004FF4807223685A6010BD00BF600000208E
:100CE00010B5054B1C68236A23B198474FF4805216
:100CF00023685A6010BD00BF6000002010B5054B8E
:100D00001C68A36A23B198474FF4803223685A6065
:100D100010BD00BF6000002010B5054B1C68236BA0
:100D200023B198474FF4801223685A6010BD00BF6A
:100D30006000002010B5054B1C68A36B23B19847D9
:100D40004FF0807223685A6010BD00BF6000002021
:100D500010B5044B1C68A3681BB198470122236897
:100D60005A6010BD6400002010B5044B1C68236954
:100D70001BB19847102223685A6010BD6400002000
:100D800010B5054B1C68A36923B198474FF48072D6
:100D900023685A6010BD00BF6400002038B5104CB5
:100DA000636CD8070BD52368D90408D50D4B1D6893
:100DB0002B6A23B198474FF480522B685A60A36D79
:100DC000DA070BD52368DB0308D5064B1C68A36A3A
:100DD00023B198474FF4803223685A6038BD00BF72
:100DE0000004024064000020000000000000000039
:100DF000012007E0022005E0032003E0042001E0D9
:100E00000520FFE70D4A0121116072B60C4A00214E
:100E10001160074902B4084902B486B005498E46FC
:100E2000704700BFAFF30080AFF30080AFF30080E6
:100E300000000061F9FFFFFF012F000814ED00E042
:100E400010E000E008B5054A136833B150689847D0
:100E50000122034B5A6100BF00BF08BD00110020F2
:100E60000004014008B5054A936833B1D06898473B
:100E70000222034B5A6100BF00BF08BD00110020D1
:100E80000004014008B5054A136933B15069984719
:100E90000422034B5A6100BF00BF08BD00110020AF
:100EA0000004014008B5054A936933B1D0699847F9
:100EB0000822034B5A6100BF00BF08BD001100208B
:100EC0000004014008B5054A136A33B1506A9847D7
:100ED0001022034B5A6100BF00BF08BD0011002063
:100EE000000401402DE9F041002705240C4DD5F800
:100EF00014800126A64018EA060F08D0094BE1002D
:100F000053F834201AB10B445868904737430134E2
:100F10000A2CEED16F6100BF00BFBDE8F08100BFB9
:100F200000040140001100202DE9F04100270A24AF
:100F30000C4DD5F814800126A64018EA060F08D0FB
:100F4000094BE10053F834201AB10B44586890471C
:100F500037430134102CEED16F6100BF00BFBDE8F4
:100F6000F08100BF0004014000110020034A136813
:100F700023F0070318431060704700BF00200240B1
:100F800010B50446007900F0E9F92079BDE8104079
:100F900000F0FCB908B50748FFF7F2FF0648FFF775
:100FA000EFFF0648FFF7ECFFBDE808400448FFF7F5
:100FB000E7BF00BFD8000020E0000020E8000020CC
:100FC000F000002070B50F250368CE0801F007007F
:100FD000840053F82600092A05FA04F520EA0505DD
:100FE00014BF10460820A0402843082A43F82600D2
:100FF00007D10120DA6800FA01F122EA0101D96083
:1010000070BD092AFCD10122D86802FA01F101431E
:10101000F5E708B5032000F0A1F9BDE8084003207A
:1010200000F0B4B903681A6812F4985FFBD11A682B
:1010300042F480721A60704703681A6812F4985F6D
:10104000FBD11A6842F400721A600268136813F444
:10105000985FFBD17047000070B502684568516920
:1010600092695A4AAE781268CB07044606F0010628
:10107000C26014D50023EB8000F0D8F822685368D2
:1010800043F48063536026B12268136843F480639D
:10109000136000212B88226846EA4303136111F094
:1010A0000A0F10D0AB88002E45D0012B0AD1226840
:1010B0002046136823F480631360A38B012B37D978
:1010C000FFF7B0FF002101F08402802A03D1A38B37
:1010D000002B49D1002101F08402842A0DD1A18B7B
:1010E0002046002954D0FFF79DFF22685369D90795
:1010F000FCD5002163680C3363604B0661D523681F
:10110000AA681969EB88581CE880D154AB88EA8832
:10111000591E8A424BD122682046136823F480630B
:101120001360A38B022B3ED9BDE87040FFF77ABF56
:10113000FFF782FFC6E7012B08D9EB88A9685A1C84
:10114000EA802268CB5C13613146BCE7002BFBD1FF
:101150002046FFF771FF2268536823F40073536041
:10116000022384F82330ADE7EB88A9685A1CEA8093
:101170002268CB5C1361EA88AB889A42AAD12268C4
:10118000536823F480635360A38B013BA383A1E7DF
:10119000FFF752FF2268536823F400735360022361
:1011A00084F82330A9E7BDE87040FFF745BF9A42B5
:1011B00007D1A38B013B9BB2A3831BB9022384F805
:1011C000233070BD63680C336360FAE7D4250020D8
:1011D00008B50268536903F47063836000235361A8
:1011E00002689361FFF728FF0268536823F4E06305
:1011F0005360FF2380F8233008BD00000148FFF74B
:101200002BBF00BFF80000200148FFF725BF00BF3B
:101210001C0100200148FFF7DBBF00BFF8000020E1
:101220000148FFF7D5BF00BF1C01002010B50446E0
:10123000002190F9210000F00FF894F9220000211C
:10124000BDE8104000F008B84AF6AA22014B1A6027
:10125000704700BF003000400028A8BF00F1604088
:101260004FEA0111B8BF054BC9B2B5BF00F00F007E
:1012700000F56140195480F80013704714ED00E048
:1012800010B5002421F0604121F07F01064A01439E
:10129000916060B20F210134FFF7DEFF3C2CF8D1E2
:1012A000F02382F8233010BD00ED00E00449054B27
:1012B000CA6802F4E0621343CB60BFF34F8FFEE7CE
:1012C00000ED00E00400FA05014B13F81000704730
:1012D000A0BF0208064B5A6822F0030202435A607C
:1012E00080005A6802F00C028242FAD1704700BFB7
:1012F00000100240030AC2B2012003F1804303F54B
:101300000433196890400843186070470121030AAC
:1013100003F1804303F504331A68C0B201FA00F008
:1013200022EA000018607047030A03F1804303F5C6
:1013300004331A680223C0B203FA00F01040704769
:10134000054A0168536823F474130B434168096824
:101350000B435360704700BF0010024010B50446B5
:10136000FFF7B2FF074B53F82020074800EB44007B
:10137000437803EBC20301229B0003F184431A600C
:1013800010BD00BF40010020A0BF020810B50446F8
:10139000FFF79AFF084B53F82020084800EB440061
:1013A000437803EBC20301229B0003F184431A60DC
:1013B00000221A6010BD00BF58010020A0BF020823
:1013C00010B5054A054C536854F8200023EA000381
:1013D0000B43536010BD00BF001002408CBF0208D9
:1013E00010B50446FFF770FF074B53F8202007485D
:1013F00000EB4400437803EBC20300229B0003F19F
:1014000084431A6010BD00BF4C010020A0BF020839
:1014100001EBC000800000F184400260704710B50D
:1014200004460079FFF79AFF2079BDE81040FFF7E6
:10143000ADBF012206210068FFF7EABF00220621A6
:101440000068FFF7E5BF10B50C46016803464A681F
:1014500022F0E0024A6002681268624012F4205FE3
:1014600001D0FFF7EBFF1A6818461460BDE8104082
:10147000FFF7DFBF134343F004031943FFF7E3BF54
:101480000122006811460430FFF7C2BF0068002245
:1014900001210430FFF7BCBF0068012200210430A5
:1014A000FFF7B6BF002203685B0103F18443C3F872
:1014B00080207047F8B51046069C9DF81C709DF87A
:1014C00020609DF8245081B10B2239462046FFF759
:1014D00079FD042231462046FFF774FD0B22294690
:1014E0002046BDE8F840FFF76DBD19460422FFF71E
:1014F00069FD042239462046FFF764FD0B22314680
:101500002046FFF75FFD0422E9E7FEE70722024BD2
:1015100058601A60704700BF10E000E0044A13688A
:1015200001331360034B1B6803B11847704700BFBA
:10153000D42500208011002011F0010F70B501F1B9
:10154000FF340DBF082500256FF0FF016FF47F41C8
:101550000068C4F34004183050F82460134331404D
:10156000AB400B4340F8243070BD02684B1E02F1C3
:10157000404220329B0003EBC20301229B0003F197
:1015800084431A607047000010B504460948A0471C
:101590000948A0470948A0470948A0470948A0476B
:1015A0000948A0470948A0472346BDE8104008481D
:1015B000184700BF84010020AC010020D0010020AA
:1015C000F4010020180200203C0200204802002004
:1015D0005402002010B504460079FFF7BFFE2079C1
:1015E000BDE81040FFF7D2BE002302681360026816
:1015F000D3604279012A9CBF026813627047037965
:101600001E2B10D9212B0ED0202B0ED9222B01D02E
:10161000252B04D102298CBF0020012070474B1ECE
:101620005842584170470120704700207047000021
:101630008B1C40F82320012342798B4010B5DB43FB
:10164000EAB1012A41F65F6218BF0122134001226C
:1016500004682361036803F140430C3301EBC303C7
:101660009B0003F184431A60427903793ABB07294E
:1016700015D8DFE801F007151515151A1A1F41F6E0
:10168000FF62E3E71A2B0CBF19232C23012259090F
:1016900003F01F0302FA03F3254A42F8213010BD7C
:1016A0001A2B0CBF1B232E23F0E71A2B0CBF1A2377
:1016B0002D23EBE71A2B0CBF18232B23E6E71B3B4C
:1016C0000C2BECD801A252F823F000BF2D17000814
:1016D0000117000805170008091700080D17000872
:1016E000111700089F1600081517000819170008A1
:1016F0001D170008211700082517000829170008E2
:101700001D23C3E71E23C1E73223BFE73623BDE70E
:101710003723BBE71823B9E71923B7E71A23B5E73F
:101720002B23B3E72C23B1E72D23AFE71C23ADE731
:1017300000E100E00022036803F140430C3301EBB9
:10174000C3039B0003F1844302311A6040F8212057
:10175000704738B504460D4613460022FFF7ECFEED
:1017600029462046BDE83840FFF7FFBE38B543792B
:101770000546022B0C4615D0042A13D8DFE802F0E8
:1017800003132A2D3A00FFF7D5FF0268631E02F10A
:10179000404220329B0003EBC20300229B0003F176
:1017A00084431A6038BD0022036803F140430C33C0
:1017B00001EBC3039B0003F184431A6008236022FA
:1017C00021462846FFF7B8FE21462846BDE83840A6
:1017D000FFF7CBBE00231022F2E74FF2F1120368AD
:1017E0009A61032203689A60036801225B0103F196
:1017F0008443D6E70122BDE83840FFF7AABF0000C6
:1018000010B5074A1468E36821690B401B0606D52A
:10181000536A23B19847236923F08003236110BDE5
:101820008401002010B5074A1468E36821690B4061
:10183000DB0706D5936823B19847236923F001039A
:10184000236110BD84010020F8B50C4D2F68FE689F
:101850003B691E4016F0400403D02C6A0CB1A0472F
:101860004024B30604D5EB6913B1984744F0200433
:101870003B6923EA04043C61F8BD00BF84010020F9
:10188000F8B5134D2F68FE683B691E4016F0100432
:1018900003D0AC690CB1A0471024310704D56B69A3
:1018A00013B1984744F00804720704D52B6913B1AB
:1018B000984744F00404B30704D5EB6813B1984784
:1018C00044F002043B6923EA04043C61F8BD00BF14
:1018D00084010020F8B51A4D2F68FE683B691E4050
:1018E00016F0400403D02C6A0CB1A0474024F30644
:1018F00004D5AB6913B1984744F01004300704D500
:101900006B6913B1984744F00804710704D52B693B
:1019100013B1984744F00404B20704D5EB6813B13F
:10192000984744F00204F30704D5AB6813B1984715
:1019300044F001043B6923EA04043C61F8BD00BFA4
:10194000AC010020F8B51A4D2F68FE683B691E40B7
:1019500016F0400403D02C6A0CB1A0474024F306D3
:1019600004D5AB6913B1984744F01004300704D58F
:101970006B6913B1984744F00804710704D52B69CB
:1019800013B1984744F00404B20704D5EB6813B1CF
:10199000984744F00204F30704D5AB6813B19847A5
:1019A00044F001043B6923EA04043C61F8BD00BF34
:1019B000D0010020F8B51A4D2F68FE683B691E4023
:1019C00016F0400403D02C6A0CB1A0474024F30663
:1019D00004D5AB6913B1984744F01004300704D51F
:1019E0006B6913B1984744F00804710704D52B695B
:1019F00013B1984744F00404B20704D5EB6813B15F
:101A0000984744F00204F30704D5AB6813B1984734
:101A100044F001043B6923EA04043C61F8BD00BFC3
:101A2000F4010020F8B51A4D2F68FE683B691E408E
:101A300016F0400403D02C6A0CB1A0474024F306F2
:101A400004D5AB6913B1984744F01004300704D5AE
:101A50006B6913B1984744F00804710704D52B69EA
:101A600013B1984744F00404B20704D5EB6813B1EE
:101A7000984744F00204F30704D5AB6813B19847C4
:101A800044F001043B6923EA04043C61F8BD00BF53
:101A90001802002010B5074A1468E36821690B405A
:101AA000DB0706D5936823B19847236923F0010328
:101AB000236110BD3C02002010B5074A1468E3689A
:101AC00021690B40DB0706D5936823B1984723694A
:101AD00023F00103236110BD4802002010B5074A1E
:101AE0001468E36821690B401B0606D5536A23B1CD
:101AF0009847236923F08003236110BD540200201E
:101B000010B5074A1468E36821690B40DB0706D566
:101B1000936823B19847236923F00103236110BD23
:101B200054020020F8B50C4D2F68FE683B691E403A
:101B300016F0400403D02C6A0CB1A0474024B30631
:101B400004D5EB6913B1984744F020043B6923EABC
:101B500004043C61F8BD00BF54020020F8B5134DE9
:101B60002F68FE683B691E4016F0100403D0AC6974
:101B70000CB1A0471024310704D56B6913B1984705
:101B800044F00804720704D52B6913B1984744F058
:101B90000404B30704D5EB6813B1984744F002047A
:101BA0003B6923EA04043C61F8BD00BF54020020F5
:101BB00000223F2110B50446436810309A80186017
:101BC000DA801981A3689A80DA8004F150021981C1
:101BD0001A6094F89000FFF7C1FB94F99130002B44
:101BE00008DB0122591103F01F0302FA03F3024A32
:101BF00042F8213010BD00BF00E100E00368DA6860
:101C000042F02C02DA60DA6842F40052DA6070477F
:101C100010B5036881688C88CA8892B2A242FAD152
:101C2000DA68910402D51A685206F9D5DA6822F406
:101C30000052DA60426893889BB2D38082689388AE
:101C40009BB2D38010BDF0B50B4606460468B5685C
:101C5000581AAF88ED88ADB2BD4204D125682D0673
:101C600001D5824210D8E36823F08003E3609042FC
:101C7000B3680DD39A88DB889BB293421EBFE3689A
:101C800043F08003E360F0BD13F8010B6060DEE712
:101C9000DD889F880135BD42ECD0DF881D89ADB25B
:101CA000BD4203D19D88ADB2002DE3D0DD8811F88F
:101CB00000C01F68ADB207F805C0DF881D8901307C
:101CC000ADB2BD420FBF0025DD880135ADB2DD806C
:101CD000CDE703468288016892B2885C99881A89A8
:101CE000C0B292B28A420FBF00229A88013292B2E9
:101CF0009A80704738B5C38882880133934204467E
:101D00000D4607D0C28803899BB2934214D18388C1
:101D10009BB28BB92046FFF7DCFFE38822689BB2B9
:101D2000D554E28823899BB293420FBF0023E388F6
:101D300001339BB2E38038BD4FF0FF30EDE770B563
:101D40001E460546084611460422059CFFF73AF94F
:101D50000B229DF810103046FFF734F92968630212
:101D6000CA6803F4F05322F4F0521204120C134325
:101D7000CB602A682402136904F4405423F44053CE
:101D80001B041B0C1C43146170BD38B5054614467A
:101D900011B900F0FDF8014619235943A200B1FB27
:101DA000F2F26421B2FBF1F001FB10231B0132338C
:101DB000B3FBF1F303F00F032C6843EA00139BB26B
:101DC000A36038BD10B50446084B1868A047084BFF
:101DD0001868A047074B1868A047074B1868A0472A
:101DE000064B18682346BDE81040184784020020BF
:101DF000880200208C0200207C020020800200204B
:101E000010B5104CE368980607D52368990604D5E9
:101E100061680D48C9B2FFF76DFFE3681A060BD57C
:101E200023681B0608D509488288C3889BB2934261
:101E300003D0FFF74EFF606010BDE36823F080031E
:101E4000E360F9E700380140B4110020C011002020
:101E500010B5104CE368980607D52368990604D599
:101E600061680D48C9B2FFF745FFE3681A060BD554
:101E700023681B0608D509488288C3889BB2934211
:101E800003D0FFF726FF606010BDE36823F08003F6
:101E9000E360F9E700440040CC110020D811002095
:101EA00010B5104CE368980607D52368990604D549
:101EB00061680D48C9B2FFF71DFFE3681A060BD52C
:101EC00023681B0608D509488288C3889BB29342C1
:101ED00003D0FFF7FEFE606010BDE36823F08003CF
:101EE000E360F9E700480040E4110020F011002011
:101EF00010B5104CE368980607D52368990604D5F9
:101F000061680D48C9B2FFF7F5FEE3681A060BD504
:101F100023681B0608D509488288C3889BB2934270
:101F200003D0FFF7D6FE606010BDE36823F08003A6
:101F3000E360F9E7004C004084110020901100207C
:101F400010B5104CE368980607D52368990604D5A8
:101F500061680D48C9B2FFF7CDFEE3681A060BD5DC
:101F600023681B0608D509488288C3889BB2934220
:101F700003D0FFF7AEFE606010BDE36823F080037E
:101F8000E360F9E7005000409C110020A8110020F8
:101F900008B590F89000FFF797F920B101280348A1
:101FA00018BF002008BD0248FCE700BF00A24A0499
:101FB0000051250230B548F28005094C226822F410
:101FC000804222F070022A4342402260236823F4B8
:101FD000E04323F040032B434B40236030BD00BF60
:101FE000005C0040284B072818BF18701A78052A93
:101FF00048D8DFE802F003131E232B364FF6FB719F
:10200000224A106C014011644FF43F4111640622D2
:102010001A701F4B1B685A7B1A7370474FF6FB717F
:102020001A4A106C014011644FF43F4111640422BC
:1020300002E002225A7003221A7006E05A78013A2E
:10204000D2B25A705A78002AF1D070470F490A6C00
:1020500092B242F010020A6405221A700A225A70E3
:1020600070475A78013AD2B25A705A78002AECD1A5
:102070004FF6EF720549086C02400A64044A126880
:10208000517B11730622D7E7DC250020005C00405D
:10209000740500202DE9F0415F4D604A2B68546CB7
:1020A0001B68A4B223405E0506D56FF480635364B9
:1020B0005B4B1B685B6898472A6813682340980449
:1020C00042BF6FF40051554B596413682340D90443
:1020D00006D56FF4C052514B00205A64FFF782FFBF
:1020E0002B681A68224012050FD54C490A6C92B22F
:1020F00042F0080042F00C0208640A641A7B5A732A
:1021000003221A736FF4C0524A641A68224097057A
:1021100042BF6FF40071414A51641B682340DE05E1
:1021200006D56FF480723D4B07205A64FFF75AFFC3
:102130002B681B681C40240403D5384C676C3B0497
:1021400001D4BDE8F0816FF4004317F00F0663641B
:1021500038D148F68003D4F8008018EA030FECD099
:102160001FFA88F32F4D304E03F440524FF40050C5
:1021700003F03003202133802A80FFF71BFFF8068D
:1021800023680ED423F4E14323F070031B041B0CDB
:10219000236000F09BFD31882888BDE8F041FFF7FF
:1021A00009BF18F0800FEDD123F070031B051B0D44
:1021B00018F4006F236002D000F0A6FBEBE700F0FC
:1021C00003FDE8E7B40004F1804404F5B84427684F
:1021D00039040DD5236823F070031B051B0D236004
:1021E0002A6806F180439268013B52F823309847F1
:1021F0003A06A2D5236806F1804623F4E14323F092
:1022000070031B041B0C23602B68013E5B6853F8B2
:102210002630984791E700BF74050020005C00401D
:10222000E4250020D8250020DA250020800000F1D8
:10223000804000F5B840036823F4804323F0700326
:1022400043F4004343F080035940016070470000AD
:1022500018B90722024B1B681A820248704700BF58
:102260000C260020E40500200022012110B5104BAF
:102270001B689A720F4B19640F490868026008685E
:1022800004681C644FF4E0545A64046008680468ED
:102290001C644FF43F445A64046008680068186482
:1022A0004FF48010054B18600B681A7310BD00BF07
:1022B0000C260020005C00407405002000E100E0D6
:1022C00013B5104B1A68137803F07F03212B16D136
:1022D000022808D0222801D0022405E093780A4A77
:1022E00003F0030313700024084B1B6823B102A9F9
:1022F00001F8010D02209847204602B010BD0224CB
:10230000FAE700BF0C26002000120020FC1100207C
:1023100021B901288CBF022000207047022070479D
:10232000054B1B689B78032B04D8044901EBC301C0
:1023300000F0BCBA002070470C260020CC0500201D
:10234000014900F0B3BA00BF88050020014900F040
:10235000ADBA00BF9005002037B5114C2268127845
:1023600002F07F02212A02D0022003B030BDA0F18A
:102370002003012B0B4B0C4D1B6888BF002523B19C
:1023800002A901F8010D02209847002DECD0236826
:1023900000249D615C822046A8472046E5E700BFF7
:1023A0000C260020FC110020512200082DE9F047E6
:1023B00000254FF0C00948F68F1648F280074FF00D
:1023C000400A434B434C1B68DFF838819D7283F809
:1023D0000990256523682846334043F40073236041
:1023E000236803EA08033B4383F010032360226D54
:1023F000394B520043F802A08022236D5B0003F1A9
:10240000804303F5C0431A60236823F4E24323F0BA
:1024100070031B041B0C2360304B1B6893F82C10BB
:1024200000F072F84FF440512846FFF7FFFEA36812
:102430002946334043F4C063A360226D284B520009
:1024400013444FF480721A60A268022002EA080264
:102450003A4382F02002A260FFF7E8FEE3685146AB
:102460003340E360226D1F4B520013444FF48872D7
:1024700003201A6000F048F84FF440510320FFF7A2
:10248000D5FE636829461E406660226D164B5200D9
:1024900043F802906368012003EA08033B4383F09A
:1024A00020036360FFF7C2FE0122104B28461B6821
:1024B0001A7300F0EBFBFF220D4B1D600D4B1D60EE
:1024C0000D4B1D600D4B1D600D4B1A70BDE8F08764
:1024D0000C260020005C004008600040E42500203D
:1024E000206000403860004010600040740500200B
:1024F00004120020081200201012002014120020E4
:102500000C120020BF8FFFFF0D4B0E4A1B6D3E29A2
:1025100003EBC0004FEA400002440AD94B09C80649
:1025200004BF03F1FF339BB29B0243F400431360EB
:1025300070474B08C90748BF01339B02F7E700BF4C
:10254000005C00400C60004010B5064C18B9012238
:1025500023681A8210BD044B1B681B6898472068CB
:102560000A30F7E70C2600200826002010B5064C9C
:1025700018B9012223681A8210BD044B1B689B689E
:10258000984720680C30F7E70C260020082600202A
:1025900010B51E4B1C68002310B90223238210BD06
:1025A0001B4803802178024611F07F0112D1617A25
:1025B0008C0644BF02230370037848064CBF23F007
:1025C000010343F001031370124B1B681B6998470A
:1025D0000F48E4E70129E2D0022915D1217901F061
:1025E0000F039B0003F1804303F5B84309061B6802
:1025F00005D503F03003102BE6D10123E3E703F404
:102600004053B3F5805FF7E71846C8E70C26002073
:10261000DE250020082600202DE9F843234FDFF8AF
:10262000A0803D682C8AD4B92E7A042E17D1204977
:102630000B78012B0ED11F4B1A681F4B92B213441B
:102640005B001C6030230C70A8F800303B681E72E1
:10265000BDE8F88310230726A8F80030F6E7AB8A18
:102660009C4294BF042602269C4228BF1C46AB69AC
:10267000204698478146002000F0B4FB22460146E0
:10268000484600F052FB2146002000F0C7FB2B8A91
:102690004FF440521B1B2B826B8A1C443023A8F83A
:1026A0000030064B6C821A80D0E700BF0C26002059
:1026B00018120020505C004002300020D825002075
:1026C000DA25002010B50A4B0A491B6849789A7828
:1026D00091420AD3D97841B99C8834B99A72064B91
:1026E0001B685B689847204610BD0220FCE700BFCE
:1026F0000C260020C80500200826002038B50F4A07
:102700000F4D12682B6892699978187990472B6859
:1027100004469A7A7AB170B95A7962B9DB7853B9BA
:10272000084B1B68DB6898472B681A79DA729A782D
:102730001A73204638BD0224FBE700BFE4250020C1
:102740000C2600200826002038B52B4B1B68187873
:1027500010F07F0004D15A7A22F020025A7238BD5C
:10276000022847D15A88002AF9D15A79002AF6D18D
:102770001979224D21F08000840004F1804404F591
:10278000B844226849B22D780029B4BF02F0300263
:1027900002F4405285422DD962B39B7A53B300298B
:1027A000236811DA03F03003102B07D1C4B220469E
:1027B00000F004FB3021204600F0D8FA104B1B68D3
:1027C0005B6998470020CAE703F44053B3F5805F84
:1027D000F4D10C4D58B90C4B93F82C1000F02CFB95
:1027E00023682B409BB283F440532360E6E700F05C
:1027F000D2FAF5E70220B2E70C260020C805002037
:10280000082600208FBFFFFF9805002038B51B4B1E
:102810001B4D18682D78017921F08004A30003F185
:10282000804303F5B8431A6849B20029B4BF02F0E7
:10283000300202F44052A5421DD94488DCB9D2B11D
:10284000827AC2B11A680029B5BF22F4E04222F4AC
:10285000804222F0400222F07002B5BF92B292B2E2
:1028600082F0100282F480521A60064B1B689B694A
:102870009847002038BD0220FCE700BF0C2600204E
:10288000C80500200826002008B5064B1A68537AB0
:1028900043F020035372044B1B68DB699847002008
:1028A00008BD00BF0C2600200826002010B5054BEF
:1028B0001C68628A18B98B889B1A238210BD08682D
:1028C0001044FBE70C26002008B50B4B002093F8C2
:1028D0002C1000F0B1FA094B1B68187A082806D1B1
:1028E0004FF48052064B1A801022064B1A80A0F13A
:1028F00009035842584108BD980500200C260020C5
:10290000D8250020DA25002073B5964C964E216814
:1029100032680B7A092B16D0944B92B213445B00A9
:102920001B885B0003F1804303F5C0431A780A70EB
:1029300059782268517099882268518019892268D3
:1029400091809B89D380012223681A72DA885D788E
:10295000002A64D11A7812F07F024DD1092D03D1DB
:10296000FFF7B0FE40BB16E0052D20D193F9022001
:10297000002A07DA08232268137202B0BDE870400B
:10298000FFF7A2BFDA78002AF4D19A88002AF1D1A1
:102990009B7A002BEED13268754B92B21344002221
:1029A0005B001A603022734B1A800623E3E7032D85
:1029B00014D19A78012A08D06F4B28461B685B69AE
:1029C0009847032828D10923D5E79A88002AF3D10C
:1029D0005B7A9A06F0D5FFF757FFC3E7012DEBD1DD
:1029E0009A78012AE8D19A88002AE5D15B7A9B0679
:1029F000E2D5FFF7A9FEB5E7012A04D10B2DDBD103
:102A0000FFF77CFEAEE7022AD6D1012DF1D0032DCF
:102A1000D2D1FFF7FBFEA5E70028ABD1BBE7062D1F
:102A200012D11A7855065AD1DB78534A012B126815
:102A300002D1D369DBB952E0022B01D1136AF9E765
:102A4000032B4CD1536AF5E7002D54D15988002946
:102A500045D15A6822F0FF02B2F5003F3FD11A7803
:102A600012F07F0216D19B88002B38D1434B0025F2
:102A70002268284655829361984728464FF6FF7191
:102A800023681A8A8A4233D0022801D0002A55D1FD
:102A900008222EE0012A0AD1374A18791268926971
:102AA0009047E0B923689B7A002BDFD117E0022A18
:102AB00015D11A7902F00F018B00100603F1804343
:102AC0002F4803F5B8431B6800784CBF03F0300370
:102AD00003F44053884202D912F0700FE4D0264B21
:102AE00022681B6850781B6998470328C6D1236861
:102AF00009221A7241E7082D04D11B785B06EED13A
:102B0000204BB4E70A2DEAD11A7802F07F02012A9D
:102B1000E5D19A7A002AE2D059880029DFD15A6893
:102B200022F0FF02B2F5803FD9D1134A187912681A
:102B3000926990470028D2D1134B98E793F900107F
:102B4000002936DAD9880C4C019101982468824218
:102B50001CD9019A1A8294F82C209A82FFF75CFD06
:102B60000BE700BF0C260020505C00400430002022
:102B700002300020DA250020E425002091250008FD
:102B8000C8050020492500086D2500088A42E2D2C8
:102B900094F82C00824203D20021094A1170DAE72E
:102BA00092FBF0F100FB1122002AD4D1044A01214A
:102BB000F4E703221A724FF44052024B1A80DCE60B
:102BC00018120020D8250020F8B52A4E3468237A40
:102BD000032B01D0052B44D1A369B3B1258AA5B13C
:102BE000A28A954228BF154628469847238A074659
:102BF0005B1B2382638A00202B44638200F000F970
:102C00002A460146384600F09FF8238A53B1002136
:102C10004FF44052184B08461A8000F0FFF830225B
:102C2000164B1A80228AA18A3368914209D803225E
:102C30001A7233681B7A32681372BDE8F840FFF7E6
:102C400043BE0AB10522F3E7062119720C4B19683D
:102C50000C4B89B20B445B001A603022074B1A8080
:102C6000E7E7072B03D1084B1B68DB68984708236D
:102C7000E1E700BF0C260020D8250020DA2500203F
:102C8000505C004002300020E4250020002210B5F6
:102C90000C4B1C78A24204D30B4B40F08000186010
:102CA00010BD02F1805303F5B8539B00196821F45D
:102CB000E04121F070010904090C1143196001324F
:102CC000E8E700BFC80500204C5C004010B5134C7D
:102CD00023681A7A022A01D0042A09D1FFF79CFC42
:102CE00023681B7A22681372BDE81040FFF7ECBD21
:102CF000062A10D15A78052A09D11A78520606D127
:102D00009878FFF7C3FF064B1B681B6A9847054B73
:102D10001B689B6898470823E4E700BF0C26002047
:102D200008260020E4250020704701F100510132FF
:102D300001F540515210490002B9704730F8023B8A
:102D4000013A21F8043BF7E7002310B501F10051E7
:102D5000013201F54051521049009A4200D110BD94
:102D600051F8234020F813400133F6E7800000F1CA
:102D7000804000F5B8400368CA0623F4E04323F01E
:102D800040039BB248BF83F010038A0648BF83F01C
:102D9000200303607047800000F1804000F5B840D8
:102DA00003685B0409D5036823F4E04323F0700350
:102DB0001B041B0C43F4804303607047800000F148
:102DC000804000F5B84003685B0609D5036823F42A
:102DD000E04323F070031B041B0C43F0400303602B
:102DE00070470000054B1B689BB203EBC00000F16D
:102DF000005000F54050400000887047505C004093
:102E0000044B1B689BB203EBC000034B03445B0005
:102E100018887047505C004004300020044B1B6849
:102E20009BB203EBC000034B03445B001960704787
:102E3000505C0040023000200D4B0E4A1B683E29BA
:102E40009BB203EBC00002444FEA42020AD94B098D
:102E5000C80604BF03F1FF339BB29B0243F4004357
:102E6000136070474B08C90748BF01339B02F7E75F
:102E7000505C00400630002013B504468DF8071062
:102E800001220DF107012046FEF7DDFE0028F7D0F4
:102E900002B010BD38B505464C1E14F9011F01B92A
:102EA00038BDC9B22846FFF7E7FFF6E708B5134B70
:102EB00003221C6801212046FEF784F8002301212B
:102EC0001A46B2F5007F0CD072B1B3F5007F01D184
:102ED00000230A449A420CD9022520680561013377
:102EE000EFE74FF0FF31F0E7B3F5007F4FF001015E
:102EF000EED020684FF40035F0E700BF88BF02082D
:102F000008B5034B0BB100F045F862B6FFF7CEFFF2
:102F1000952F000808B5044B23B100F05BF8034976
:102F2000FFF7B8FFFFF7ECFFD52F000873C00208CA
:102F3000FDF7BCB908B501F03DF801F0FBF8FCE77E
:102F400020F052BE32280BD8064B03EB001043682A
:102F50001A68437B343203F18043013B42F823106B
:102F6000704700BF18BC020838B50C46054607215B
:102F700004EB042400F046F8A1B22846BDE838402E
:102F8000FFF7E0BF002203685B0103F18443C3F84D
:102F9000002170474FF0FF3310B50A4C0A48C4F8BF
:102FA0008030C4F88430FEF7EFFA0848FDF7E6FDFC
:102FB0000748FEF707FF4FF4002323604FF4801308
:102FC000236010BD00E100E0E9150008852F00082E
:102FD000111C000810B5094B094C18680B2202217E
:102FE000FDF7F0FF2068FEF7E3FD20684FF416526E
:102FF0000021FEF7CAFE206810BD00BF84BF020892
:1030000088020020322838B53BD8082939D8DFE8B3
:1030100001F00529171A1D2017232600002403227A
:10302000184B00011D18297B1858FDF7CBFF686865
:1030300038B3697BCCB1BDE838400122FEF796BBBE
:1030400000240422ECE700242246E9E700240922B8
:10305000E6E700240822E3E701240B22E0E701244D
:103060000F22DDE700240722DAE702684B1E02F197
:10307000404220329B0003EBC2039B0003F18443D8
:103080001C6038BD18BC020808B501211048FDF7C6
:10309000B7FA02210F48FDF7B3FA03210E48FDF7F6
:1030A000AFFA04210D48FDF7ABFA05210C48FDF7F6
:1030B000A7FA06210B48FDF7A3FA07210A48FDF7F6
:1030C0009FFABDE8084008210848FDF799BA00BFFB
:1030D0001C120020201200202412002028120020A0
:1030E0002C12002030120020341200203812002050
:1030F00032280DD8074B000119181B58097B1B6893
:103100009A6801238B40134214BF012000207047AE
:103110000020704718BC0208322810B50ED8084BA2
:1031200000011C181B58B1FA81F11A680123207B99
:1031300049098340090103FA01F1116110BD00BF83
:1031400018BC02080A4A0B4B11689B6800BF00BFFD
:1031500012688A42F6D14820C3F58C3303F5A07378
:10316000B3FBF0F34FF47A7000FB0230704700BFFE
:10317000D425002010E000E038B50446FFF7E2FF58
:1031800005465CB1FDF762FCFFF7DCFF401BB0F5C4
:103190007A7FF6D3013C05F57A75F5D138BD28B1B3
:1031A0000C234343013B18460138FDD8704700000B
:1031B0000449054BCA6822F4E0621204120C13435E
:1031C000CB60704700ED00E00003FA0570477047E0
:1031D0000120704713B5104C204614F0F0FF204634
:1031E000042114F085FF204602220C4914F084FFCC
:1031F000002302220A4900932046A02314F0E2FF94
:10320000204614F0D5FF204614F0C4FF204602B03B
:10321000BDE8104014F0C5BF4412002098C0020859
:103220003E12002024280AD0252807D10123054A70
:1032300032F81330044AC3F3890313807047002324
:10324000F5E700BF3E1200203C120020044B03EBC8
:1032500000135B6813B1C0B2FFF786BE704700BFB2
:1032600018BC0208FEF722B8024B0348196814F094
:103270003DBF00BF1C0000204412002010B5074CC9
:10328000032294F84C10206CFDF79CFE236C94F8FC
:103290004C101A6801238B40136110BD18BC020842
:1032A000062838B58CBF00250A4B0B4C98BF1D5C17
:1032B0002046E46600F03FF92946204600F04DF92B
:1032C0002046012100F056F92046BDE83840002193
:1032D00000F05DB99AC0020854120020FF21014895
:1032E00000F06AB9541200200B4602460021014842
:1032F00000F01ABA541200200146014800F09CBAAE
:103300005412002070B50D46064C0146204600F0D0
:1033100093FA29462046BDE8704001234FF400721D
:1033200000F07EBA5412002001398B00012102689E
:1033300099405160704703689A689107FCD59A6874
:103340001206FCD47047436823B1417B0022184623
:10335000FEF70CBA70470000172806D0182806D0D0
:103360001628044818BF00207047034870470348D8
:10337000704700BF94020308980203089C020308E8
:103380002DE9F04F814687B000798A46FFF7E4FFC8
:1033900060B30578174C46782D012B1987783601D4
:1033A00090F8038006EB040B1846059304EB07170F
:1033B000FFF7C9FF5846FFF7C6FF04EB0818384669
:1033C000FFF7C1FF4046FFF7BEFF98F80C20059BB2
:1033D00051461B7B03923A7B484602929BF80C2095
:1033E0000192325900922A59FEF764F807B0BDE8FD
:1033F000F08F00BF18BC020810B50C46FDF764FF43
:1034000090B10228094B88BF002300225B089C4230
:10341000D0B205D20132072A4FEA5303F7D1104642
:10342000034B0344187B10BD024BEEE700A24A0495
:1034300094020308005125022DE9F0410346044699
:103440006C302C4D00221D6001255A731D735A608B
:10345000C3E9072224339842F3D124224B1E02FBF6
:1034600003430229E366DFF8AC80234E39D00329F9
:103470003CD0A94201D1214B1C60214B214F1B683C
:10348000216823611879FFF7B7FF3B680225A36124
:1034900003236375D8F80030A06063632575616A03
:1034A0001879FFF7A9FF3B68E062E363052384F81E
:1034B0003930042384F838303368A16CA365187957
:1034C000FFF79AFF104B00221B682065236601233B
:1034D00084F85C30E36E84F85D50DA732046BDE812
:1034E000F081D8F800306363084BC5E73368A36503
:1034F000074BC1E700093D0068010020C41200200D
:10350000600100206000002064000020C81200203C
:10351000CC12002064010020C06E037B4268012BA6
:103520000CBF0023802342F440721343017A427B94
:103530000069FDF79FBF10B50446C36E1869FDF71B
:103540006EFFE36E01211869FFF71AFF2046FFF7AF
:10355000E3FF0122E36EDA7310BDC36E9960C36EA0
:1035600001F038011B691A68136823F03803194306
:1035700011607047C36E1973C36E1B691A681368B4
:1035800023F0800309B943F0800313607047C36ED2
:103590005973C36E01F003011B691A68136823F0A5
:1035A0000303194311607047C36E1B691B68D96020
:1035B000C36E1869FFF7BFBE10B5C36E1C692368E0
:1035C0002046DA68D960FFF7B6FE2368D868C0B233
:1035D00010BD0000F0B50546C36E85B0986917466A
:1035E0000E46FDF7FAFAE86E4468017DA4F5006323
:1035F0005C425C4103691A688223CDE9014300976C
:1036000023460C328069FDF72BFBE86E0369417D90
:103610001A68C6B91023CDE901430D4B0093234628
:103620000C328069FDF71CFBEB6E0022597D986916
:10363000FDF7D6FA0322EB6E197D986905B0BDE857
:10364000F040FDF7CDBA90230096CDE90143E6E7BF
:10365000A1C0020870B504460D4611B900252846E0
:1036600070BDC36E1A6912689168CE0748BFD268F0
:103670000422DA73C36E2A46197D9869FDF7BCFAF5
:10368000E36E2A46597D9869FDF7B6FAE36E197D17
:103690009869FDF7CDFAE36E597D9869FDF7C8FA90
:1036A000E36E1869FDF7F8FEE36E1869FDF7E8FEB2
:1036B000E26ED369002BD1D193691A491E68537DFC
:1036C0000D68013B9B00DBB23068D840800727D4EF
:1036D0000868401B6428F7D902251069FFF72BFE04
:1036E000E36E1869FDF7D2FEE36E1869FDF7DAFEA6
:1036F000E36E597D9869FDF7A7FAE36E197D986925
:10370000FDF7A2FAE36E197D9869FFF70DFEE36EEF
:10371000597D9869FFF708FE0122E36EDA739EE790
:103720000025DAE7D425002038B504461D46FFF70A
:1037300051FF29462046BDE83840FFF78BBF7FB5D3
:10374000054614460E46C36EE4019869FDF745FA36
:10375000E86E44F012044368417DA3F500625342D1
:10376000534102691268CDE9013400960C32806938
:10377000FDF776FA0022EB6E597D986904B0BDE83A
:103780007040FDF72DBA000070B504460D4611B922
:103790000025284670BDC36E597D9869FFF7C4FDAA
:1037A000E36E2A46597D9869FDF726FA0322E36EF7
:1037B000DA73E36E597D9869FDF73AFAE36E18699A
:1037C000FDF75EFEE26E136A002BE1D193691349A7
:1037D0001E68537D0D68013B9B00DBB23068D8400A
:1037E000800719D40868401B6428F7D9022510699E
:1037F000FFF7A1FDE36E1869FDF748FEE36E597D02
:103800009869FDF721FAE36E597D9869FFF78CFD01
:103810000122E36EDA73BCE70025E8E7D425002037
:1038200038B5044615461A46FFF789FF2946204653
:10383000BDE83840FFF7A8BF08B5FFF7B5FE012087
:1038400008BD000001210148FFF7F6BD5412002019
:103850000821F0B5324B1E78C709324B76BBD3F83E
:10386000D021002F15684FF001020CBF1027002750
:1038700093F8DC4102FA04F424042C6193F8FC511F
:10388000D3F8F04102FA05F52468BD402561D3F86C
:10389000F041256893F8FC4102FA04F4BC402C6125
:1038A000D3F8D04193F8DC3124689A4022614B1E52
:1038B000400013F0FF01C0B2CED1F0BD0022D3F81A
:1038C000D04193F8DCC125684FF48034013204FA0A
:1038D0000CF42C61D4B2A642F1D2002F14BF002701
:1038E00010270024E2B296420BD9D3F8F02193F8C6
:1038F000FCC11568012202FA0CF2BA402A610134B7
:10390000F0E70022D4B2A642D1D9D3F8D04193F83F
:10391000DC7125680124BC402C610132F2E700BF54
:10392000D012002018BC0208013938B514461D46D3
:10393000062950D8DFE801F00C81514F740478005B
:103940002C44A54247D015F8010BFFF781FFF8E79B
:103950000125424C032294F8EC11D4F8E001FDF764
:1039600031FBD4F8E0311A6894F8EC3105FA03F32E
:103970001B04136194F8DC110322D4F8D001FDF785
:1039800021FBD4F8D0311A6894F8DC3105FA03F33E
:103990001B04136194F8FC110322D4F8F001FDF725
:1039A00011FBD4F8F0311A6894F8FC3105FA03F3EE
:1039B0001B04136194F8CC110322D4F8C001FDF765
:1039C00001FB94F8CC21D4F8C031954000221B684B
:1039D0001D61234B1A70012038BD204B8AB1D3F8EA
:1039E000D02193F8DC111068012202FA01F1016183
:1039F000D3F8C01193F8CC3109689A4012040A61D7
:103A0000E9E7D3F8C02193F8CC111068012202FA3B
:103A100001F10161D3F8D01193F8DC310968ECE7CA
:103A20001046FFF715FFD6E7002CD4D015F8010B90
:103A3000013CFFF70DFFE4B2F6E70123074A002C33
:103A400092F8EC11D2F8E02103FA01F314BF00213F
:103A5000102112688B401361BDE700BF18BC02083B
:103A6000D01200200120014B18707047D1120020A5
:103A700008B514F033FB0022014B01201A7008BD79
:103A8000D11200202DE9F8431B4D98462B780646AD
:103A90000C46174683B114F015FB184814F0CAFA07
:103AA000052802D00120BDE8F883154814F0C2FAB9
:103AB0000528F7D100232B70254607EB04094D4557
:103AC000A5EB04030DD0306815F8011B00F18060F0
:103AD00000F5FC301844400014F0CEFA0528EED072
:103AE000E0E7BAB2404621460BF02CF932680020DC
:103AF0003A443260D7E700BFD112002000F003083B
:103B000000F803082DE9F74305460F4690461E4688
:103B100000249DF828902A684445224413D002F1DD
:103B2000806202F5FC32520013788DF80730B9F14B
:103B3000000F00D03B5501220DF1070130460BF07C
:103B400001F90134E7E700202A6003B0BDE8F08303
:103B50000228F8B506460D4639D0052836D100268C
:103B60002C4C0222236801215B0103F184431E6077
:103B70002046FDF7FBFD28494FF6FF70B1FBF5F13C
:103B80001122814228BF014623685E629A62D86290
:103B90009A69204622F0FF029A6159635B0103F1A2
:103BA00084430121DE611D4AFDF742FD01213220DF
:103BB000FDF752FB012223685B0103F18443C3F844
:103BC000802223685B0103F184431A60F8BD00275B
:103BD000134C0246236801215B0103F184431F60FB
:103BE0002046FDF7C3FD40F2E73223680D495F62CE
:103BF000B1FBF5F19A624FF6FF72914228BF114670
:103C0000DA6220465963084A0121FDF711FD314669
:103C10001C20CDE71802002000093D00C132010838
:103C2000AC010020401901003D44010802280CD0DD
:103C300005280CD1074B1B685B0103F18443D3F8C3
:103C40008401003018BF01207047034BF3E70020C8
:103C5000704700BF18020020AC010020013807287F
:103C60009ABF024B53F8200000207047A4C00208FE
:103C7000FDF7EABA70470368C9B21B68184700002D
:103C80000023054A9A56824204D00133162BF8D1FC
:103C9000002070470120704716C2020808B500F0E6
:103CA00089FABDE80840014800F072BAFEC0020877
:103CB00008B50DF0D5FE0DF041FFFE200DF076F8B1
:103CC000BDE808400DF050B8054BD3F8D02293F86A
:103CD000DC124FF4803312688B401361704700BFD1
:103CE00018BC02080E4AD2F8803092F88C1018687E
:103CF000012303FA01F109040161D2F810110868E7
:103D000092F81C1103FA01F109040161D2F82012A2
:103D100092F82C22096893401B040B61FFF7D4BF73
:103D200018BC0208044BD3F8D02293F8DC1201230C
:103D300012688B401361704718BC0208012130B42F
:103D4000124BD3F88020106893F88C2001FA02F20D
:103D500002610F48027822F001040470D3F8104188
:103D6000256893F81C4101FA04F42C6122F0030445
:103D70000470D3F8204293F82C322468994022F042
:103D800007022161027030BCFFF7CCBF18BC0208EB
:103D9000E7170020044B93F9000001281EBF034BD6
:103DA0001878C0F380007047D817002070240020D6
:103DB000094B93F90030022B0CD0084B1B78C3F34E
:103DC000C00040B1064AD07828B1C3F3800080F02B
:103DD0000100704701207047D81700207024002090
:103DE0005024002010B540F2E9330446013B08D0CE
:103DF00000BF00BF00BF42F62F22013A00BFFCD136
:103E0000F4E772B640F2E933013B08D000BF00BFCF
:103E100000BF41F29312013A00BFFCD1F4E70FF06A
:103E2000A9FF24B1FFF78AFFFFF722FFFCE7FFF7A6
:103E300079FFF9E704460E46154608B50FF09AFFDC
:103E400000F0B8F9064800F0A3F906483146002C06
:103E500018BF20460AF05EFC2846FFF7C3FF00BFEC
:103E60000DC102080DC2020870B5384B05461B781B
:103E7000032B01D804F02CF8354B364A1B68146824
:103E8000ABB1354909680B44E31A002B0FDB00F096
:103E900091F9324B3248196800F092F90A21314801
:103EA000FFF7E9FE002211461046FFF7C3FF2E4B35
:103EB0001B6843B12D4908782D49097888420ED0F6
:103EC0001268254B1A602B4D00F0EEFE2B68E31AAA
:103ED000002B03DB64340DF067FD2C6070BD264AB7
:103EE00085BB1D4909680B44E31A002B2ADB1378B4
:103EF000002BE8D101231370204AD2F88010086803
:103F000092F88C1003FA01F101611D48017821F04B
:103F100001050570D2F810512E6892F81C5103FA71
:103F200005F5356121F003050570D2F8205292F8AD
:103F30002C222D68934021F007012B610170FFF7BF
:103F4000F1FEC0E700231370BDE700BFBC140020E2
:103F5000DC120020D4250020F412002000130020E1
:103F6000C4C002085C100020EC050020AD1D00203C
:103F7000AE1D0020D4120020D812002018BC020868
:103F8000E717002008B50AF003FC02F013FC00203C
:103F9000FFF76AFF0FF0D2FF0AF05EFEFFF716F997
:103FA000034B1B781BB9BDE8084010F02FBD08BDBE
:103FB000E012002037B5FFF7FBF84B4A136823F0F7
:103FC000E06343F0007313600FF0E2F94FF4E13166
:103FD0004648FCF703FB464B46481B6800F0D8F800
:103FE00000F0E2F8FFF7F4F8C507044602D54248AE
:103FF00000F0CEF8A00702D5404800F0C9F86107EC
:1040000002D53F4800F0C4F8220702D53D4800F031
:10401000BFF8A30602D53C4800F0BAF8FFF7D7F87E
:104020003A4800F0B5F820213048FFF724FE384820
:1040300000F0AEF80A212D48FFF71DFE00F0B4F89D
:10404000344800F0A5F800F0AFF8334800F0A0F8CD
:1040500000F0AAF80020FCF7DDF90DF10701091ABC
:104060002E4800F0B9F82E4C4FF4A8612D4800F00E
:10407000B3F80A211D48FFF7FEFD00F03BF90AF0F6
:10408000D3FA0AF03DFD05F099F912F0E9FC237826
:1040900023B90CF097FC08B101232370224C234D67
:1040A0002168286814F0BAFD69682060606814F01F
:1040B000B5FDA9686060A06814F0B0FDA0600CF0C8
:1040C00053FE1B480FF062FD0BF02EFA0CF0B6FC0D
:1040D0000EF006FEFFF7CEFD01231A4619461846DC
:1040E00000F0CEFA03B030BD040001405C100020A7
:1040F000D4250020BDE4020831C102083AC10208FB
:104100004BC102085DC102086EC102087FC10208EE
:1041100086C1020894C10208D0C10208E7C10208A2
:10412000D2120020F6C10208F41700201418002053
:104130006420002008B5FFF725FF12F0E1FC0E4BCC
:104140001B785B0613D512F0F5F803F079FBFFF747
:10415000AFFD0BF0C1F90FF00DFE002108460FF086
:104160005FFB0022054B06481A7003F005FC03F0C4
:1041700023FD0CF05FFDDEE770240020F005002039
:104180002DC10208014811F00FBF00BFD912002055
:1041900010B5044614F9011B19B10248FFF76BFD75
:1041A000F8E710BD5C1000200148FFF7F1BF00BF29
:1041B00044C202080148FFF7EBBF00BF3DC202083E
:1041C00010B50C46FFF7E4FF2146BDE8104001485A
:1041D000FCF7D0BA5C10002010B50C46FFF7D8FFF2
:1041E0002146BDE810400A220148FCF729BB00BF68
:1041F0005C10002010B50C46FFF7CAFF2146BDE851
:1042000010400A220148FCF72EBB00BF5C100020C2
:1042100013B50C46FFF7BCFF204614F06FF90223DC
:104220000246009302480B46FCF7F6FB02B010BDB5
:104230005C10002010B50C46FFF7AAFF2146BDE830
:1042400010400A220148FCF725BB00BF5C1000208B
:10425000034A044B002814BF10461846FFF798BFC6
:1042600052C702085EC60208034A044B002814BF66
:1042700010461846FFF78CBF2CC2020831C2020854
:10428000F8B507460E4615461846069CFFF780FF10
:1042900039680B48FFF7BCFF31680A48FFF7B8FFE1
:1042A00029680948FFF7B4FF24B12046BDE8F8406B
:1042B000FFF76EBF0A210548FFF7DDFCF8BD00BF20
:1042C00043DF020837C202083AC202085C1000202D
:1042D00010B50446322C06D93220323CFEF74CFF92
:1042E0000FF02CFEF6E72046FEF746FFBDE8104033
:1042F0000FF024BE10B5254CD4F804319BB1072132
:104300001020FEF77FFED4F87431EBB1072117209F
:10431000FEF778FED4F864313BB3BDE810400721C6
:104320001620FEF76FBE032294F80C11D4F800019A
:10433000FCF748FED4F8003194F80C111A684FF4D9
:1043400080338B401361DEE7032294F87C11D4F8AC
:104350007001FCF737FED4F8703194F87C111A68BC
:104360004FF480338B401361D4E7032294F86C112F
:10437000D4F86001FCF726FED4F8603194F86C1193
:104380001A684FF480338B40136110BD18BC0208CB
:1043900038B52B4C0546D4F80431017833B31020DE
:1043A000FEF754FFD4F874316978002B2CD0172015
:1043B000FEF74CFFD4F86431A978002B32D01620D8
:1043C000FEF744FF2B786A781344AA781344022B33
:1043D000CCBF012200221B4B1A7006DD1A4B9D42F6
:1043E0001FBF2A881A80AA789A7038BD0123002935
:1043F0000CBF1021002194F80C219340D4F8002127
:104400008B4012681361CDE7012300290CBF1021F6
:10441000002194F87C219340D4F870218B401268DD
:104420001361C7E7012300290CBF1021002194F874
:104430006C219340D4F860218B4012681361C1E76E
:1044400018BC0208E6120020E3120020FF22024BF3
:104450001A705A709A707047E31200202DE9F341E8
:10446000D0F800800E684046176814F0A5FE054697
:10447000384614F0A1FE31460446404614F092FE40
:1044800000BB3946304614F08DFEE8B9304614F0D2
:1044900093FEFF26621B401BD31780FB060114F01E
:1044A000D1FE0A4BC0B21A78824208D01870C043BD
:1044B0008DF8060001A8ADF80460FFF769FF02B0AF
:1044C000BDE8F0812846E4E72046E2E7E712002055
:1044D0002DE9F341D0F800800E684046176814F0CB
:1044E0006BFE0546384614F067FE314604464046EA
:1044F00014F058FE10BB3946304614F053FEF8B99C
:10450000304614F059FEFF26621B401BD31780FB78
:10451000060114F097FE0B4BC0B21A7882420AD003
:10452000187000238DF8040001A88DF805308DF86F
:104530000660FFF72DFF02B0BDE8F0812846E2E7F4
:104540002046E0E7E712002010B50B6804461B691F
:10455000084698472379C0F3400210F01E0F60F31D
:10456000000362F3410314BF0122002262F38203BD
:1045700020602371204610BD08B558210148FFF77F
:104580007AFB08BD5C10002008B559210148FFF7EF
:1045900072FB08BD5C10002008B55A210148FFF7E6
:1045A0006AFB08BD5C10002008B545210148FFF7F3
:1045B00062FB08BD5C100020F7B53C2400680D4686
:1045C000B0FBF4F74FF46161B7FBF4F3B0FBF1F12A
:1045D00004FB13738EB2A2B11821B6FBF1F2104C9A
:1045E00001FB1266B0FBF4F400932246B3B20D490E
:1045F000284620F05BF90A2C34BF0820092003B0BC
:10460000F0BD632E8AB205D80749284620F04EF93E
:104610000520F4E70549284620F048F90620EEE792
:10462000805101001CC3020820C302082AC30208EB
:1046300010B504460D48FFF7ABFD102221680C4869
:10464000FCF732F923799A0702D50A48FFF7A0FD53
:1046500023795B0702D50848FFF79AFDBDE81040B3
:10466000002206481146FFF7E5BB00BF89C20208D9
:104670005C100020A4C20208B5C20208C9C2020828
:10468000F8B50D4617461E46002800F095805248A2
:10469000FFF77EFDFFF770FF5048FFF779FD5048A8
:1046A00013F03DFC0446002800F084804D48FFF7DD
:1046B0006FFD012C7CD04C484C4B022C18BF184687
:1046C000FFF766FD0A214A48FFF7D5FA003418BF04
:1046D00001240DB34048FFF75BFDFFF755FF3F484E
:1046E000FFF756FD434813F01AFC0546002867D033
:1046F0003C48FFF74DFD012D60D03B483B4B022D60
:1047000018BF1846FFF744FD002D18BF01340A21D9
:104710003748FFF7B0FAE4B20FB32F48FFF738FD80
:10472000FFF73AFF2D48FFF733FD334813F0F7FB4F
:104730000546002848D02B48FFF72AFD012D41D01F
:1047400029482A4B022D18BF1846FFF721FD002DDE
:1047500018BF01340A212648FFF78DFAE4B206B3E8
:104760001D48FFF715FDFFF71FFF1C48FFF710FD61
:10477000224813F0D4FB054650B31A48FFF708FD52
:10478000012D23D01848194B022D18BF1846FFF7EA
:10479000FFFC002D18BF01340A211548FFF76BFA02
:1047A000E4B2BCB1BDE8F8400021154809F0C6BF2D
:1047B000144885E70D4883E704468AE71148A1E7D6
:1047C0000A489FE70F48C0E70848BEE70D48DEE704
:1047D0000648DCE7F8BD00BFE2C20208EBC20208EF
:1047E000041F0020FBC20208DEC20208D6C2020873
:1047F0005C1000204C1F0020941F0020BC1E0020D5
:1048000007C30208D9C2020830B589B004460D4674
:10481000014602A8FFF798FE029B013B03336FD8C5
:10482000002D6DD09DF80C2094F84330900769D589
:10483000013384F8433094F84330092B08D90A2116
:104840003548FFF718FAFFF797FE02A8FFF7F0FECA
:104850009DF80C30D90723D594F8423003BB0AF0F9
:1048600075FE2E4A0190904294BF0022012204A9B5
:1048700001A8FFF7A1FE0A212748FFF7FCF904A9C8
:104880002548FBF777FF2648FFF782FCFFF774FE09
:104890002448B4F84010FFF79FFC2348FFF778FC4A
:1048A0009DF80C3013F0010F94F842302ED0042BF9
:1048B00020D92046B4F8405013F052F9A0B1642D2D
:1048C00012D9A5F1320189B2A4F84010204613F0A4
:1048D000AFFAFFF751FEB4F840101448FFF77CFC24
:1048E0000A210D48FFF7C7F99DF80C2094F84230D3
:1048F000D2070BD5013384F84230012384F84430C9
:1049000009B030BD002B96D0013B92E7002BF7D0C9
:10491000002384F84230F3E75C100020805101004E
:104920007EE402084AC202086DC2020872C202088E
:1049300030B589B004460D46014602A8FFF704FED3
:10494000029B013B03336FD8002D6DD09DF80C20E6
:1049500094F84330900769D5013384F8433094F8D4
:104960004330092B08D90A213548FFF784F9FFF7AE
:104970000BFE02A8FFF75CFE9DF80C30D90723D58B
:1049800094F8423003BB0AF0E1FD2E4A01909042B8
:1049900094BF0022012204A901A8FFF70DFE0A21FD
:1049A0002748FFF768F904A92548FBF7E3FE2648E6
:1049B000FFF7EEFBFFF7E8FD2448B4F84010FFF7DF
:1049C0000BFC2348FFF7E4FB9DF80C3013F0010FBC
:1049D00094F842302ED0042B20D92046B4F8405011
:1049E00013F0BEF8A0B1642D12D9A5F1320189B23D
:1049F000A4F84010204613F01BFAFFF7C5FDB4F8E9
:104A000040101448FFF7E8FB0A210D48FFF733F97F
:104A10009DF80C2094F84230D2070BD5013384F86E
:104A20004230012384F8443009B030BD002B96D0C9
:104A3000013B92E7002BF7D0002384F84230F3E7E4
:104A40005C100020805101007EE402084AC2020886
:104A50006DC2020872C2020830B589B004460D4624
:104A6000014602A8FFF770FD029B013B03336FD89C
:104A7000002D6DD09DF80C2094F84330900769D537
:104A8000013384F8433094F84330092B08D90A21C4
:104A90003548FFF7F0F8FFF77FFD02A8FFF7C8FDE4
:104AA0009DF80C30D90723D594F8423003BB0AF0A7
:104AB0004DFD2E4A0190904294BF0022012204A98C
:104AC00001A8FFF779FD0A212748FFF7D4F804A9C8
:104AD0002548FBF74FFE2648FFF75AFBFFF75CFD22
:104AE0002448B4F84010FFF777FB2348FFF750FB4A
:104AF0009DF80C3013F0010F94F842302ED0042BA7
:104B000020D92046B4F8405013F02AF8A0B1642D03
:104B100012D9A5F1320189B2A4F84010204613F051
:104B200087F9FFF739FDB4F840101448FFF754FB3C
:104B30000A210D48FFF79FF89DF80C2094F84230A9
:104B4000D2070BD5013384F84230012384F8443076
:104B500009B030BD002B96D0013B92E7002BF7D077
:104B6000002384F84230F3E75C10002080510100FC
:104B70007EE402084AC202086DC2020872C202083C
:104B800030B589B004460D46014602A8FFF7DCFCAB
:104B9000029B013B03336FD8002D6DD09DF80C2094
:104BA00094F84330900769D5013384F8433094F882
:104BB0004330092B08D90A213548FFF75CF8FFF785
:104BC000F3FC02A8FFF734FD9DF80C30D90723D57C
:104BD00094F8423003BB0AF0B9FC2E4A019090428F
:104BE00094BF0022012204A901A8FFF7E5FC0A21D5
:104BF0002748FFF740F804A92548FBF7BBFD2648E6
:104C0000FFF7C6FAFFF7D0FC2448B4F84010FFF7CE
:104C1000E3FA2348FFF7BCFA9DF80C3013F0010FBC
:104C200094F842302ED0042B20D92046B4F84050BE
:104C300012F096FFA0B1642D12D9A5F1320189B20C
:104C4000A4F84010204613F0F3F8FFF7ADFCB4F8D9
:104C500040101448FFF7C0FA0A210D48FFF70BF87F
:104C60009DF80C2094F84230D2070BD5013384F81C
:104C70004230012384F8443009B030BD002B96D077
:104C8000013B92E7002BF7D0002384F84230F3E792
:104C90005C100020805101007EE402084AC2020834
:104CA0006DC2020872C2020808B50F490F4B0A68AC
:104CB0001B689A1A002A16DB03F5FA730B600022B0
:104CC00001210B48FFF7A0FD002201210948FFF751
:104CD0002FFE002201210848FFF7BEFE002201211D
:104CE0000648FFF74DFF08BDEC120020D425002038
:104CF000041F00204C1F0020941F0020BC1E002019
:104D00004138C3B2192B2DD8174A1068D84010F07B
:104D1000010028D0154AD25C12B3154B19688B18C4
:104D20008A56A2F13001C9B2092906D92E2A08D122
:104D30005A78303A092A88BF00230E4A01201360AE
:104D400070472D2A01D02B2A0AD193F90110A1F125
:104D50003002D2B2092AF0D92E2901D19A78E8E797
:104D60000023EAE7002070472413002006130020E8
:104D7000001300202813002008B5FFF7C1FF20B161
:104D8000024B1868003018BF012008BD281300200E
:104D9000034B186818B10A22002121F03FBB70476D
:104DA000281300202DE9F74F4E4B05461B7803F0E2
:104DB0000703072B70D00CF0C1FE0CF081F8012026
:104DC0000BF058FE5820FFF79BFF04465920FFF7D1
:104DD00097FF80465A20FFF793FF81461DB944454F
:104DE00004D1844202D10124A046A1463E4E3F4F49
:104DF000B24697E80F0086E80F005220FFF7BCFF8D
:104E000000286CD03A4B186850B30246934612F90A
:104E1000016B36F020015ED0452E01D0652EF5D114
:104E200000218BF80010186821F018FA05468BF85D
:104E300000600021284614F08DF988B914B9B8F142
:104E4000000F17D0CAF808502946B86814F08CF93A
:104E500030B1002302A941F8043D26480CF00EF8B9
:104E600014B100200CF0FCF9B8F1000F02D00120C1
:104E70000CF0F6F9B9F1000F02D002200CF0F0F9B5
:104E80000BF072FF0BF0ACFD0CF024F803221A4B70
:104E90001A700BF037FF14E04F20FFF76DFF98B149
:104EA000134B1B686BB1FFF773FF002883DBFFF721
:104EB0006FFFFF2805DCFFF76BFF10F0FF0F3FF4DB
:104EC0007AAF03B0BDE8F08F4F20FFF719FF00283D
:104ED0003FF471AFF5E721F0C1F90546A9E7074DA9
:104EE000ACE700BFE617002004180020F4170020EC
:104EF000281300200C1800200E060020000020417E
:104F000038B50D4B1868A8B10246154612F9014B89
:104F100034F020010AD0452C01D0652CF5D10021B8
:104F20002970186821F09AF92C7038BDBDE8384016
:104F300021F094B90020F8E72813002070B501F0A3
:104F400023F9051E26DB4420FFF7DAFED8B1FFF770
:104F5000D7FF002106464FF0010414F0FBF808B11A
:104F60004FF000040C4B00211C70304614F0F2F896
:104F700048B9FFF7C5FF0021044614F0EBF8074BD2
:104F800028B943F82540BDE870400CF02BBD044A19
:104F90001A60F8E770BD00BF05130020981D0020BF
:104FA0000000E03F38B501F0EFF800280FDB0024E7
:104FB000074BE5B21857FFF7A3FE28B1FFF7A0FF94
:104FC000014628460DF078FC0134042CF0D138BDA0
:104FD00032C3020838B501F0D7F800280FDB0024EF
:104FE000074BE5B21857FFF78BFE28B1FFF788FF94
:104FF000014628460DF06EFC0134042CF0D138BD7A
:1050000032C3020810B51E4B1E4A1B681A422ED02E
:105010004220FFF775FE40B11B4B186818B10A22F9
:10502000002121F0B7FA194B18615320FFF768FEF1
:1050300018B1FFF765FF154B18645420FFF760FEA9
:1050400018B1FFF75DFF114B58644A20FFF758FE77
:1050500068B1FFF755FF0E49044614F099F838B1CE
:105060000C49204614F08AF810B10B4B1C6010BD9F
:10507000FFF7A0F8BDE810400848FFF789B800BF67
:105080002413002002020C0028130020E81D002039
:105090000AD7233C9A99993EB41D00204CC30208BC
:1050A00010B51D4B1B6813F4682F12D11B4C1C4804
:1050B000616BFFF7ADF8A16B1A48FFF7A9F8E16B38
:1050C0001948FFF7A5F8BDE810400A211748FBF77B
:1050D00031BA5320FFF750FE20B1FFF711FF0F4BFD
:1050E0005863D8635020FFF747FE18B1FFF708FF59
:1050F0000A4B58635220FFF73FFE18B1FFF700FF3D
:10510000064B98635420FFF737FE18B1FFF7F8FEFF
:10511000024BD86310BD00BF24130020E81D0020FF
:1051200036C3020846C3020849C302085C100020C7
:1051300008B5194B1B685B0304D5184B9A7C184BB8
:105140000AB91A6008BD1749096888188A56A2F179
:105150003001C9B2092905D92E2A0BD14278303A3B
:10516000092A0BD80A220021186021F057F90E4BAA
:105170001880E7E72D2A03D02B2A01D00022E0E790
:1051800090F90110A1F13002D2B2092AEAD92E29F0
:10519000F4D18278E3E700BF241300200613002037
:1051A00028130020001300201C06002038B500F052
:1051B000EBFF041E47DB2D4B2D4D1B6813F4802F96
:1051C00004D02C4B9A7C2C4BCAB91A60FEF7ECFF2A
:1051D00045212A48FEF74FFD04F130012748FEF72C
:1051E0004AFD35F914102648FEF7F6FF252123481D
:1051F000FEF741FD0A212148FEF73DFD23E021494C
:10520000096888188A56A2F13001C9B2092905D95E
:105210002E2A19D14278303A092A19D80A220021B7
:10522000186021F0FBF800B225F8140013F0AAFD75
:10523000154913F0FBFD154B53F8241013F0F6FD40
:10524000134B43F8240038BD2D2A03D02B2A01D05C
:105250000022BAE790F90110A1F13002D2B2092A76
:10526000DCD92E29F4D18278D5E700BF24130020A1
:105270004806002006130020281300205C100020A0
:105280006BC30208001300200AD7233CB81D00207E
:105290004C06002010B54520FFF732FD002837D11D
:1052A0005020FFF72DFD264C10B1FFF729FEE060DE
:1052B0004920FFF725FD28B1FFF722FE214913F011
:1052C000B5FD20614420FFF71BFD28B1FFF718FE54
:1052D0001C4913F05FFE6061FEF766FFE1681A4843
:1052E000FEF796FF2069174913F054FE0146174850
:1052F000FEF78EFF6069134913F098FD01461448CC
:10530000FEF786FFBDE810400A211248FBF712B9EC
:10531000114B1B68002BC3D0FFF73AFD0028BFDB01
:10532000FFF736FDFF2804DCFFF732FD10F0FF0F1A
:10533000B6D0FEF73FFFBDE810400848FEF728BF93
:10534000DC1F00200AD7233E73C3020877C302087C
:105350007BC302085C100020281300207FC30208D2
:1053600070B55320FFF7CCFC0546F0B12F4B186801
:1053700000283AD00246164612F9014B34F02001BB
:1053800030D0452C01D0652CF5D100213170186842
:1053900020F064FF347013F00FFF254B00B218802B
:1053A000B0FA80F0234B400918705020FFF7A8FC9A
:1053B0000446F0B11E4BB3F9003083B11B4B1B68A0
:1053C0006BB1FFF7E5FC002811DBFFF7E1FCFF28DC
:1053D00005DCFFF7DDFCC0B2041C18BF0124154B2F
:1053E0001C7070BD20F03AFFD5E70020D3E7002401
:1053F000F5E7002DF5D1FEF7D7FE0F48FEF7C8FE02
:105400000C4B0E4A18780E4B002814BF1046184655
:10541000FEF7BEFE064B0B48B3F90010FEF7DCFEAC
:10542000BDE870400848FEF7B3BE00BF2813002057
:105430005E0600200C20002095C30208B9E0020897
:1054400091C30208A8C30208B9C3020810B5C0B1CD
:10545000FEF7AAFE0D4C0E486169FEF7D9FEA16960
:105460000C48FEF7D5FEE1690B48FEF7D1FE216A34
:105470000A48FEF7CDFEBDE810400A210848FBF7B8
:1054800059B820210648FBF755F8E3E7E81D00204E
:10549000BDC3020837C202083AC2020893E00208FC
:1054A0005C1000202DE9F04100F06EFE011E3EDB95
:1054B000204B214A1B681A4204D1BDE8F04101206B
:1054C000FFF7C4BF00251D4B5857FFF719FC08B361
:1054D0001B4B1B68F3B1032D1A4C22D1FFF710FDB3
:1054E0001949064613F040FE98B13146206A13F080
:1054F00051FD01468046206B13F098FC134F20634A
:10550000F86813F03BFC414613F090FC13F07AFE70
:10551000F86026620135042DD5D1BDE8F0410DF0CB
:10552000ABB9FFF7EDFC04EB85046061F2E7BDE881
:10553000F08100BF2413002010008003C4C30208C0
:1055400028130020E81D00200000A041C81D0020F5
:105550000023024A1370024A13707047E1120020C0
:10556000F0050020012200210148FEF763BC00BFC6
:10557000C8C30208FEF79CBB70B55320FFF7C0FB01
:10558000204D28B15320FFF7BBFB20BB0020287023
:10559000FEF70AFE1C48FEF7FBFD2B786BB30024D8
:1055A00023462A78E240D2070CD55E1CF6B21BB126
:1055B0002C211648FAF7BEFF154B53F82400FEF7CE
:1055C000E7FD33460134052CEBD1BDE870400A21DC
:1055D0000E48FAF7AFBF0F4B1B68002BD6D0FFF772
:1055E000D7FB0028D2DBFFF7D3FBFF2803DCFFF754
:1055F000CFFBC0B2CBE7FF20C9E70748FEF7C8FDE5
:10560000E3E700BFE2120020D6C302085C100020CE
:1056100008C4020828130020DDC3020801200BF093
:1056200003BA00200BF000BA08B51F4B1F491B68D6
:10563000194031D05820FFF763FB48B11C4BD3F819
:10564000802093F88C104FF4803312688B401361E4
:105650005920FFF755FB48B1154BD3F8102193F8AB
:105660001C114FF4803312688B4013615A20FFF7EE
:1056700047FB48B10E4BD3F8202293F82C124FF47D
:10568000803312688B4013614520FFF739FB50B11E
:10569000BDE80840FEF718BB064809F04FF8BDE822
:1056A0000840FEF71FBB08BD241300201000800334
:1056B00018BC02081CC4020838B55320FFF720FBB1
:1056C000F0B1344B1868D8B10246154612F9014BB7
:1056D00034F0200111D0452C01D0652CF5D10021EA
:1056E0002970186820F0BAFD2C702B4913F09EFB2E
:1056F00013F088FD294B186038BD20F0AFFDF4E7AA
:10570000274B284A1B681A4240D00CF017FA582041
:10571000FFF7F6FA68B1244BD3F8802093F88C1089
:10572000012312688B401361204A137823F0010390
:1057300013705920FFF7E4FA68B11B4BD3F810211E
:1057400093F81C11012312688B401361174A1378D8
:1057500023F0020313705A20FFF7D2FA68B1124BFC
:10576000D3F8202293F82C12012312688B40136186
:105770000E4A137823F0040313704520FFF7C0FA94
:105780000028B9D0BDE83840FEF7CCBABDE83840B3
:105790000CF0AEB92813002000007A44EC0500207C
:1057A000241300201000800318BC0208E717002013
:1057B0002DE9F043434D444C2F6889B020683946A9
:1057C00013F02CFAD4F804906E68029031464846E3
:1057D00013F024FAD4F80880AD68039029464046B7
:1057E00013F01CFA39460490E06813F017FAD4F865
:1057F000109005903146484613F010FAD4F8148002
:1058000029460690404613F009FA0790FEF7CCFCB3
:105810002E48FEF7BDFC2E4B2E4C1B6813F4802F38
:105820001CD02D4B997C2D4B11B91960012014E02F
:105830002B4A106842184156A1F13000C0B2092825
:1058400005D92E2920D151783039092920D81A605C
:10585000FFF79EFA002829DA002020702078FEF752
:10586000F7FC204B04AA009303A902A81E4BFEF7E5
:1058700007FD002307AA009306A91C4B05A8FEF705
:10588000FFFC09B0BDE8F0832D2904D02B2902D0FC
:1058900000221A60CAE792F90100A0F13001C9B2F2
:1058A0000929D4D92E28F3D19178CDE7FFF770FAE2
:1058B000FF28BBDCFFF76CFAC0B2003018BF012034
:1058C000CBE700BF2C1800202006002025C40208CA
:1058D000241300203806002006130020281300207F
:1058E00000130020C4CA020835C402083DC40208DF
:1058F00010B50C46FFF704FA38B1054B186820B113
:105900000A22002120F08AFD04B2204610BD00BF0B
:105910002813002038B55020FFF7F2F990B300218A
:105920005020FFF7E5FF4FF0FF3105465320FFF70A
:10593000DFFF431C022B044624D868B2002821DB79
:10594000FEF79EF918B1BDE83840FEF7A7B9EDB2F1
:105950000CF0F4F802212846FDF754FB621C0AD033
:10596000631E5C425C412846FDF7C2FBA04209D0A1
:10597000FEF708FBF7E72846FDF7BAFBB0FA80F41C
:105980006409F0E738BD0CF0D9B808B5FFF700FAA4
:10599000002807DBFFF7FCF9FF2805DCFFF7F8F923
:1059A000C0B208BD0020FCE7FF20FAE770B5532025
:1059B000FFF7E2F9A0B3FFF7E8FF05465020FFF735
:1059C000DBF968B3FFF7E4F90304044628D446B2D0
:1059D0004920FFF7D1F968B1124B1B687BB1FFF783
:1059E000D4FF60B93046FEF74BF940B1BDE87040D6
:1059F000FEF754B94920FFF783F90028F2D0E4B24A
:105A000000212046FDF7FEFA29462046FDF784FBDB
:105A100029463046FDF71AFC282E04BF024B1D70A4
:105A200070BD00BF281300203020002008B50EF004
:105A3000A1F909F051FD0CF05BF8002108460DF0CA
:105A4000EFFE4FF47A70FEF743FCBDE808400021FA
:105A5000014808F073BE00BF45C4020838B5244BA6
:105A60001B685B030CD5234B9A7C234B4AB900205F
:105A70001A60224913F0DAF913F0C4FB204B1860C6
:105A800038BD2049096888188A56A2F13001C9B288
:105A9000092905D92E2A16D14278303A092A16D872
:105AA00002461860154612F9014B34F020011BD054
:105AB000452C01D0652CF5D100212970186820F003
:105AC000CDFB2C70D5E72D2A03D02B2A01D0002244
:105AD000CDE790F90110A1F13002D2B2092ADFD945
