:020000040800F2
:1000000000C00020A5030008F10D0008F50D000850
:10001000F90D0008FD0D0008010E00080B15000881
:100020000B1500080B1500080B1500080B15000830
:100030000B1500080B1500080B1500081D1500080E
:100040000B1500080B1500080B1500080B15000810
:100050000B1500080B150008450E0008650E00087A
:10006000850E0008A50E0008C50E0008950C0008B6
:10007000AD0C0008C50C0008E10C0008FD0C0008E0
:10008000190D0008350D0008A10A00080B1500081D
:10009000952000080B1500080B150008E50E000858
:1000A00001180008251800084918000881180008E0
:1000B000D518000845190008B5190008FD110008F9
:1000C0001512000809120008211200080B1500087B
:1000D0000B150008011E0008511E0008A11E000893
:1000E000290F00080B1500080B150008DD1A000881
:1000F000011B0008251B00085D1B0008F90A000809
:100100000B1500080B150008251A00080B15000830
:10011000F11E0008411F0008951A0008B91A0008CE
:10012000510D0008690D0008810D00089D0D0008A3
:1001300010B5054C237833B9044B13B10448AFF321
:1001400000800123237010BD40100020000000003B
:1001500048BD020808B5034B1BB103490348AFF380
:10016000008008BD000000004410002048BD0208C7
:1001700010B512490A2309220968114800F0EAF96A
:1001800010490323022209680F4800F0E3F90F49E0
:100190001B231A2209680E4800F0DCF90D492B23B5
:1001A0002A2209680C4800F0D5F9BDE810400B4937
:1001B00032232C2209680A4800F0CCB984020020BE
:1001C0005C10002088020020741000208C020020A7
:1001D0008C1000207C020020A4100020800200204F
:1001E000BC10002010B5044600F0DCFC034B204698
:1001F000BDE81040197800F03DBC00BF160000209B
:10020000F8B50446056801F0E5F9002223685B01B2
:1002100003F184431A6080232B600123AB622A61BF
:10022000EA606B61637973B1012B0FD001222368FF
:100230005B0103F18443C3F8802223685B0103F16F
:1002400084431A60F8BD4FF400436B644FF6FF72AD
:1002500000252368DA626E1CF7B23946204601F0A9
:10026000CEF9E8B148F6FF72236817F0010F03F1E9
:10027000340343F8252014BF6FF0FF026FF47F4270
:1002800023684FEA650503F1180353F8251001EAC6
:10029000020114BF68224FF4D0420A4343F82520DC
:1002A000042E3546D7D1C1E77047000038B5002588
:1002B000264A274C1368022043F01003136000F015
:1002C00055FE002001F016F865602368182023F41D
:1002D0000023236001F01AF8102001F017F800F055
:1002E00043F8A560102001F005F8102001F01CF87B
:1002F0000028FAD000F039F8164801F021F818204B
:1003000000F0F8FF182001F00FF80028FAD00220C2
:1003100000F0E0FF00214FF0006000F0B1FF0E4858
:1003200001F0F4F800F038F80C4B188800F022FCCB
:100330000B4800F023FC0B4801F026F900F02EF8E2
:1003400000F02DF8FFF7B0FF38BD00BF00200240DD
:10035000001002400C0000203F1901001400002092
:10036000E5010008010200087047002108B50846B1
:1003700001F026F84FF48061012001F021F80021FE
:10038000022001F01DF82D2001F02AF8BDE80840F8
:100390000021032001F014B800F0FCBD704700F00C
:1003A00038BE000001498D460149084700C00020C1
:1003B000B503000808B5114B1A68114B9A4213D1C6
:1003C000104B114A934213D324F080FD00221146B2
:1003D000104602F0AFFD0D4B7BB124F013FB52F839
:1003E000041B043343F8041C09498B42F7D3E7E7A5
:1003F0000022043343F8042CE3E7FEE790170308D8
:10040000000000204010002070260020054A02084D
:100410004010002010B50D4B1A680AB90C4A1A603A
:100420001A680C49891A814204DB09494442511A6D
:10043000A14207DA24F0E0FA0C234FF0FF32036008
:10044000104610BD10441860FAE700BFD410002019
:1004500070260020888F0328002070474FF4005337
:1004600000204B607047012070474FF0FF3070470D
:100470000020704710B50C46FFF7FAFF20700120EE
:1004800010BD704770B515460C468E18B44201D1A8
:10049000284670BD14F8010BFFF7F3FFF6E7FEE7FF
:1004A000C38882889B1AC2888188914282BF028950
:1004B00001329B1898B2704710B50369044658681A
:1004C000FFF7EEFF88B123695B689A88196892B2DA
:1004D000885C99881A89C0B292B28A420FBF002202
:1004E0009A88013292B29A8010BD4FF0FF30FBE73C
:1004F00008B503695868FFF7D3FF08BD03695B6857
:100500009988DA8892B28A421FBF9A881B6892B291
:10051000985C14BFC0B24FF0FF3070470269916819
:100520008888CB889BB28342FAD1126813685B0635
:10053000FCD5704713B504698DF8071001220DF141
:100540000701204601F07FFB0028F7D0012002B010
:1005500010BD000030B54FF0000C4FF47A75C0E9C3
:1005600001C5034D016105600275437530BD00BFD3
:10057000C0D202082DE9F74303690446DB688846C8
:100580008B42914625D3067D134D3601AB19477D2D
:10059000586818B10022597B01F0E8F8206901F091
:1005A00007FB39016A18127BAB19CDF804901B7B4D
:1005B000695800932069AB5901F0C1FB206942469C
:1005C000002101F0E2FB206903B0BDE8F04301F037
:1005D00015BB03B0BDE8F08388CF02080022FFF707
:1005E000C9BF0000044B02791B789A4202BF034B3B
:1005F0001B681860704700BFF8100020FC10002036
:10060000002310B50446036072B6054B193119700A
:10061000044B1860044800F0B7FF62B6204610BDD6
:10062000F8100020FC100020E505000800220368F7
:100630001B685B0103F184431A6070470122036861
:100640001B685B0103F184431A607047036801393A
:100650001B6889B29962704703681A68D36A9BB2B3
:10066000994228BF19465162704738B561B90122D5
:1006700003681B68996203681B68DA6203681B6879
:10068000DC6AA4B2204638BD48224A434FF6FF71C7
:10069000B2FBF1F1013189B202EB5102B2FBF1F28E
:1006A00094B2FFF7D3FF036892B21B68DA62E9E7FE
:1006B000012203681B685B0103F18443C3F88022B5
:1006C0007047000008B501211048FFF799FF02218B
:1006D0000F48FFF795FF03210E48FFF791FF042114
:1006E0000D48FFF78DFF05210C48FFF789FF062114
:1006F0000B48FFF785FF07210A48FFF781FFBDE898
:10070000084008210848FFF77BBF00BFD810002031
:10071000DC100020E0100020E4100020E810002091
:10072000EC100020F0100020F4100020F8B5064670
:100730000C4615468F18A74206D0336814F8011BE3
:100740001B6830469847F6E72846F8BD70B5054661
:100750000C46084649B125F075FC2B680246214637
:100760002846BDE870409B68184770BD0368C9B251
:100770001B68184703685B68184738B50D210546A4
:10078000FFF7F4FF0A2104462846FFF7EFFF204455
:1007900038BD38B50546FFF7EDFF04462846FFF79C
:1007A000ECFF204438BD2DE970439046994690B047
:1007B00058EA090306469DF8585007D13021FFF743
:1007C000D5FF0125284610B0BDE8708300244046BF
:1007D00049462A46002319F053FF804689460134D2
:1007E0000DEB040303F8012C58EA0903EFD10025AF
:1007F000013C1DF804103046092994BF30313731CF
:1008000049B2FFF7B3FF0544002CF1D1DAE72DE937
:10081000F0411D46002A75F1000307461446069E66
:1008200005DA2D21FFF7A2FF644265EB4505F6B21C
:10083000069622462B463846BDE8F041FFF7B3BF87
:1008400007B5CB1700920A46FFF7E1FF03B05DF84A
:1008500004FB38B50546FFF7F3FF04462846FFF7CB
:100860008CFF204438BD07B5CB1700920A46FFF72E
:10087000CEFF03B05DF804FB37B5CB1700920A46F4
:100880000546FFF7C4FF04462846FFF776FF2044DD
:1008900003B030BD07B5D2B2009200230A46FFF77D
:1008A00082FF03B05DF804FB37B5D2B2009200239B
:1008B0000A460546FFF777FF04462846FFF75DFF27
:1008C000204403B030BD00002DE9F34717461E4613
:1008D0008246002200233846314619F0AFFA9DF8CF
:1008E00028504FF00104F8B143A3D3E90023384660
:1008F000314619F099FA00B90446E4B20022002307
:1009000038463146C4B119F07BFA18B12D21504652
:10091000FFF72CFF04463C495046FFF72BFF0444E9
:10092000204602B0BDE8F08735A3D3E9002338465E
:10093000314619F06FFADEE719F062FA30B12D2175
:100940005046FFF713FF044606F100464FF000083B
:1009500000202E495FFA88F39D4206D900222C4BD5
:1009600019F006F908F10108F4E73A46334618F0A1
:100970001FFE06460F4619F09BFE0A23024600930F
:1009800080460B4650468946FFF741FF0444002D40
:10099000C6D04046494618F093FF02460B46304603
:1009A000394618F003FE06460F4650461949FFF730
:1009B000E1FE0444013DEDB2FF2DB1D0144B002205
:1009C0003046394618F0AAFF0F46064619F040FA9D
:1009D0000A22014680465046FFF732FF0444404653
:1009E00018F032FF02460B463046394618F0DEFD5D
:1009F00006460F46DEE700BF800350726C92DF436D
:100A0000800350726C92DFC3DCD202080000E03F2A
:100A10000000244039EF02089DF800100091FFF714
:100A200053BF000030B504460D4687B0064901A803
:100A300025F0F4F822462B4601A90A9825F0EEF895
:100A40000A9807B030BD00BFEBD20208704710B55E
:100A50000446007900F082FC2079BDE8104000F0E7
:100A600095BC026841F48011936823F46023194314
:100A700091607047002330B51C461D4603EB4302CE
:100A8000072B01FA02F203F10103D8BF15430A2B29
:100A900044EA0204F2D10368DD6003681C6130BDE2
:100AA00070B5144C23681B681D68A90707D51A6820
:100AB00022F002021A6023689B6803B198476A0714
:100AC00009D523681A68136823F0040313602368A8
:100AD0001B6903B19847EB070BD523681A681368A5
:100AE00023F0010313602368DB6813B1BDE8704095
:100AF000184770BD1C00002070B5144C23681B689B
:100B00001D68A90707D51A6822F002021A60236837
:100B10009B6803B198476A0709D523681A68136868
:100B200023F00403136023681B6903B19847EB07A4
:100B30000BD523681A68136823F001031360236838
:100B4000DB6813B1BDE87040184770BD2400002079
:100B5000012203685B0103F1844303F58673191FC7
:100B60001A6018680028FCD143F8042C0B68002B8D
:100B7000FCD170470146042000F022BC10B50446A9
:100B8000054B1868A047054B1868A047044B186828
:100B90002346BDE8104018471C000020200000201C
:100BA0002400002010B50446FFF751FF20464FF403
:100BB0006021FFF756FF0122236820465B0103F105
:100BC0008443C3F8502123685B0103F18443C3F8D5
:100BD0000021BDE81040FFF7BBBF007900F0BEBBAD
:100BE00014230139594300680830435823F4405313
:100BF00043EA023242507047036814200833013937
:100C000000FB01314A60704700EBC10340F831201E
:100C100093F90430002B08DB0122591103F01F0364
:100C200002FA03F3014A42F82130704700E100E084
:100C300014220368013902FB01310123490101F14A
:100C40008441C1F80031704714220368013902FB66
:100C500001310023490101F18441C1F8003170479D
:100C60002DE9F04114251C4690464B1E5D43066855
:100C7000FFF7EAFF9DF81C30240244EA8324089B16
:100C800008361C43069B77197451FB60C7F808802F
:100C9000BDE8F08110B5044B1C68A3681BB19847F0
:100CA000012223685A6010BD6000002010B5044B7B
:100CB0001C6823691BB19847102223685A6010BD35
:100CC0006000002010B5054B1C68A36923B198474C
:100CD0004FF4807223685A6010BD00BF600000208E
:100CE00010B5054B1C68236A23B198474FF4805216
:100CF00023685A6010BD00BF6000002010B5054B8E
:100D00001C68A36A23B198474FF4803223685A6065
:100D100010BD00BF6000002010B5054B1C68236BA0
:100D200023B198474FF4801223685A6010BD00BF6A
:100D30006000002010B5054B1C68A36B23B19847D9
:100D40004FF0807223685A6010BD00BF6000002021
:100D500010B5044B1C68A3681BB198470122236897
:100D60005A6010BD6400002010B5044B1C68236954
:100D70001BB19847102223685A6010BD6400002000
:100D800010B5054B1C68A36923B198474FF48072D6
:100D900023685A6010BD00BF6400002038B5104CB5
:100DA000636CD8070BD52368D90408D50D4B1D6893
:100DB0002B6A23B198474FF480522B685A60A36D79
:100DC000DA070BD52368DB0308D5064B1C68A36A3A
:100DD00023B198474FF4803223685A6038BD00BF72
:100DE0000004024064000020000000000000000039
:100DF000012007E0022005E0032003E0042001E0D9
:100E00000520FFE70D4A0121116072B60C4A00214E
:100E10001160074902B4084902B486B005498E46FC
:100E2000704700BFAFF30080AFF30080AFF30080E6
:100E300000000061F9FFFFFF012F000814ED00E042
:100E400010E000E008B5054A136833B150689847D0
:100E50000122034B5A6100BF00BF08BD00110020F2
:100E60000004014008B5054A936833B1D06898473B
:100E70000222034B5A6100BF00BF08BD00110020D1
:100E80000004014008B5054A136933B15069984719
:100E90000422034B5A6100BF00BF08BD00110020AF
:100EA0000004014008B5054A936933B1D0699847F9
:100EB0000822034B5A6100BF00BF08BD001100208B
:100EC0000004014008B5054A136A33B1506A9847D7
:100ED0001022034B5A6100BF00BF08BD0011002063
:100EE000000401402DE9F041002705240C4DD5F800
:100EF00014800126A64018EA060F08D0094BE1002D
:100F000053F834201AB10B445868904737430134E2
:100F10000A2CEED16F6100BF00BFBDE8F08100BFB9
:100F200000040140001100202DE9F04100270A24AF
:100F30000C4DD5F814800126A64018EA060F08D0FB
:100F4000094BE10053F834201AB10B44586890471C
:100F500037430134102CEED16F6100BF00BFBDE8F4
:100F6000F08100BF0004014000110020034A136813
:100F700023F0070318431060704700BF00200240B1
:100F800010B50446007900F0E9F92079BDE8104079
:100F900000F0FCB908B50748FFF7F2FF0648FFF775
:100FA000EFFF0648FFF7ECFFBDE808400448FFF7F5
:100FB000E7BF00BFD8000020E0000020E8000020CC
:100FC000F000002070B50F250368CE0801F007007F
:100FD000840053F82600092A05FA04F520EA0505DD
:100FE00014BF10460820A0402843082A43F82600D2
:100FF00007D10120DA6800FA01F122EA0101D96083
:1010000070BD092AFCD10122D86802FA01F101431E
:10101000F5E708B5032000F0A1F9BDE8084003207A
:1010200000F0B4B903681A6812F4985FFBD11A682B
:1010300042F480721A60704703681A6812F4985F6D
:10104000FBD11A6842F400721A600268136813F444
:10105000985FFBD17047000070B502684568516920
:1010600092695A4AAE781268CB07044606F0010628
:10107000C26014D50023EB8000F0D8F822685368D2
:1010800043F48063536026B12268136843F480639D
:10109000136000212B88226846EA4303136111F094
:1010A0000A0F10D0AB88002E45D0012B0AD1226840
:1010B0002046136823F480631360A38B012B37D978
:1010C000FFF7B0FF002101F08402802A03D1A38B37
:1010D000002B49D1002101F08402842A0DD1A18B7B
:1010E0002046002954D0FFF79DFF22685369D90795
:1010F000FCD5002163680C3363604B0661D523681F
:10110000AA681969EB88581CE880D154AB88EA8832
:10111000591E8A424BD122682046136823F480630B
:101120001360A38B022B3ED9BDE87040FFF77ABF56
:10113000FFF782FFC6E7012B08D9EB88A9685A1C84
:10114000EA802268CB5C13613146BCE7002BFBD1FF
:101150002046FFF771FF2268536823F40073536041
:10116000022384F82330ADE7EB88A9685A1CEA8093
:101170002268CB5C1361EA88AB889A42AAD12268C4
:10118000536823F480635360A38B013BA383A1E7DF
:10119000FFF752FF2268536823F400735360022361
:1011A00084F82330A9E7BDE87040FFF745BF9A42B5
:1011B00007D1A38B013B9BB2A3831BB9022384F805
:1011C000233070BD63680C336360FAE70C2600209F
:1011D00008B50268536903F47063836000235361A8
:1011E00002689361FFF728FF0268536823F4E06305
:1011F0005360FF2380F8233008BD00000148FFF74B
:101200002BBF00BFF80000200148FFF725BF00BF3B
:101210001C0100200148FFF7DBBF00BFF8000020E1
:101220000148FFF7D5BF00BF1C01002010B50446E0
:10123000002190F9210000F00FF894F9220000211C
:10124000BDE8104000F008B84AF6AA22014B1A6027
:10125000704700BF003000400028A8BF00F1604088
:101260004FEA0111B8BF054BC9B2B5BF00F00F007E
:1012700000F56140195480F80013704714ED00E048
:1012800010B5002421F0604121F07F01064A01439E
:10129000916060B20F210134FFF7DEFF3C2CF8D1E2
:1012A000F02382F8233010BD00ED00E00449054B27
:1012B000CA6802F4E0621343CB60BFF34F8FFEE7CE
:1012C00000ED00E00400FA05014B13F81000704730
:1012D00010D30208064B5A6822F0030202435A60F8
:1012E00080005A6802F00C028242FAD1704700BFB7
:1012F00000100240030AC2B2012003F1804303F54B
:101300000433196890400843186070470121030AAC
:1013100003F1804303F504331A68C0B201FA00F008
:1013200022EA000018607047030A03F1804303F5C6
:1013300004331A680223C0B203FA00F01040704769
:10134000054A0168536823F474130B434168096824
:101350000B435360704700BF0010024010B50446B5
:10136000FFF7B2FF074B53F82020074800EB44007B
:10137000437803EBC20301229B0003F184431A600C
:1013800010BD00BF4001002010D3020810B5044674
:10139000FFF79AFF084B53F82020084800EB440061
:1013A000437803EBC20301229B0003F184431A60DC
:1013B00000221A6010BD00BF5801002010D302089F
:1013C00010B5054A054C536854F8200023EA000381
:1013D0000B43536010BD00BF00100240FCD2020856
:1013E00010B50446FFF770FF074B53F8202007485D
:1013F00000EB4400437803EBC20300229B0003F19F
:1014000084431A6010BD00BF4C01002010D30208B5
:1014100001EBC000800000F184400260704710B50D
:1014200004460079FFF79AFF2079BDE81040FFF7E6
:10143000ADBF012206210068FFF7EABF00220621A6
:101440000068FFF7E5BF10B50C46016803464A681F
:1014500022F0E0024A6002681268624012F4205FE3
:1014600001D0FFF7EBFF1A6818461460BDE8104082
:10147000FFF7DFBF134343F004031943FFF7E3BF54
:101480000122006811460430FFF7C2BF0068002245
:1014900001210430FFF7BCBF0068012200210430A5
:1014A000FFF7B6BF002203685B0103F18443C3F872
:1014B00080207047F8B51046069C9DF81C709DF87A
:1014C00020609DF8245081B10B2239462046FFF759
:1014D00079FD042231462046FFF774FD0B22294690
:1014E0002046BDE8F840FFF76DBD19460422FFF71E
:1014F00069FD042239462046FFF764FD0B22314680
:101500002046FFF75FFD0422E9E7FEE70722024BD2
:1015100058601A60704700BF10E000E0044A13688A
:1015200001331360034B1B6803B11847704700BFBA
:101530000C2600208011002011F0010F70B501F180
:10154000FF340DBF082500256FF0FF016FF47F41C8
:101550000068C4F34004183050F82460134331404D
:10156000AB400B4340F8243070BD02684B1E02F1C3
:10157000404220329B0003EBC20301229B0003F197
:1015800084431A607047000010B504460948A0471C
:101590000948A0470948A0470948A0470948A0476B
:1015A0000948A0470948A0472346BDE8104008481D
:1015B000184700BF84010020AC010020D0010020AA
:1015C000F4010020180200203C0200204802002004
:1015D0005402002010B504460079FFF7BFFE2079C1
:1015E000BDE81040FFF7D2BE002302681360026816
:1015F000D3604279012A9CBF026813627047037965
:101600001E2B10D9212B0ED0202B0ED9222B01D02E
:10161000252B04D102298CBF0020012070474B1ECE
:101620005842584170470120704700207047000021
:101630008B1C40F82320012342798B4010B5DB43FB
:10164000EAB1012A41F65F6218BF0122134001226C
:1016500004682361036803F140430C3301EBC303C7
:101660009B0003F184431A60427903793ABB07294E
:1016700015D8DFE801F007151515151A1A1F41F6E0
:10168000FF62E3E71A2B0CBF19232C23012259090F
:1016900003F01F0302FA03F3254A42F8213010BD7C
:1016A0001A2B0CBF1B232E23F0E71A2B0CBF1A2377
:1016B0002D23EBE71A2B0CBF18232B23E6E71B3B4C
:1016C0000C2BECD801A252F823F000BF2D17000814
:1016D0000117000805170008091700080D17000872
:1016E000111700089F1600081517000819170008A1
:1016F0001D170008211700082517000829170008E2
:101700001D23C3E71E23C1E73223BFE73623BDE70E
:101710003723BBE71823B9E71923B7E71A23B5E73F
:101720002B23B3E72C23B1E72D23AFE71C23ADE731
:1017300000E100E00022036803F140430C3301EBB9
:10174000C3039B0003F1844302311A6040F8212057
:10175000704738B504460D4613460022FFF7ECFEED
:1017600029462046BDE83840FFF7FFBE38B543792B
:101770000546022B0C4615D0042A13D8DFE802F0E8
:1017800003132A2D3A00FFF7D5FF0268631E02F10A
:10179000404220329B0003EBC20300229B0003F176
:1017A00084431A6038BD0022036803F140430C33C0
:1017B00001EBC3039B0003F184431A6008236022FA
:1017C00021462846FFF7B8FE21462846BDE83840A6
:1017D000FFF7CBBE00231022F2E74FF2F1120368AD
:1017E0009A61032203689A60036801225B0103F196
:1017F0008443D6E70122BDE83840FFF7AABF0000C6
:1018000010B5074A1468E36821690B401B0606D52A
:10181000536A23B19847236923F08003236110BDE5
:101820008401002010B5074A1468E36821690B4061
:10183000DB0706D5936823B19847236923F001039A
:10184000236110BD84010020F8B50C4D2F68FE689F
:101850003B691E4016F0400403D02C6A0CB1A0472F
:101860004024B30604D5EB6913B1984744F0200433
:101870003B6923EA04043C61F8BD00BF84010020F9
:10188000F8B5134D2F68FE683B691E4016F0100432
:1018900003D0AC690CB1A0471024310704D56B69A3
:1018A00013B1984744F00804720704D52B6913B1AB
:1018B000984744F00404B30704D5EB6813B1984784
:1018C00044F002043B6923EA04043C61F8BD00BF14
:1018D00084010020F8B51A4D2F68FE683B691E4050
:1018E00016F0400403D02C6A0CB1A0474024F30644
:1018F00004D5AB6913B1984744F01004300704D500
:101900006B6913B1984744F00804710704D52B693B
:1019100013B1984744F00404B20704D5EB6813B13F
:10192000984744F00204F30704D5AB6813B1984715
:1019300044F001043B6923EA04043C61F8BD00BFA4
:10194000AC010020F8B51A4D2F68FE683B691E40B7
:1019500016F0400403D02C6A0CB1A0474024F306D3
:1019600004D5AB6913B1984744F01004300704D58F
:101970006B6913B1984744F00804710704D52B69CB
:1019800013B1984744F00404B20704D5EB6813B1CF
:10199000984744F00204F30704D5AB6813B19847A5
:1019A00044F001043B6923EA04043C61F8BD00BF34
:1019B000D0010020F8B51A4D2F68FE683B691E4023
:1019C00016F0400403D02C6A0CB1A0474024F30663
:1019D00004D5AB6913B1984744F01004300704D51F
:1019E0006B6913B1984744F00804710704D52B695B
:1019F00013B1984744F00404B20704D5EB6813B15F
:101A0000984744F00204F30704D5AB6813B1984734
:101A100044F001043B6923EA04043C61F8BD00BFC3
:101A2000F4010020F8B51A4D2F68FE683B691E408E
:101A300016F0400403D02C6A0CB1A0474024F306F2
:101A400004D5AB6913B1984744F01004300704D5AE
:101A50006B6913B1984744F00804710704D52B69EA
:101A600013B1984744F00404B20704D5EB6813B1EE
:101A7000984744F00204F30704D5AB6813B19847C4
:101A800044F001043B6923EA04043C61F8BD00BF53
:101A90001802002010B5074A1468E36821690B405A
:101AA000DB0706D5936823B19847236923F0010328
:101AB000236110BD3C02002010B5074A1468E3689A
:101AC00021690B40DB0706D5936823B1984723694A
:101AD00023F00103236110BD4802002010B5074A1E
:101AE0001468E36821690B401B0606D5536A23B1CD
:101AF0009847236923F08003236110BD540200201E
:101B000010B5074A1468E36821690B40DB0706D566
:101B1000936823B19847236923F00103236110BD23
:101B200054020020F8B50C4D2F68FE683B691E403A
:101B300016F0400403D02C6A0CB1A0474024B30631
:101B400004D5EB6913B1984744F020043B6923EABC
:101B500004043C61F8BD00BF54020020F8B5134DE9
:101B60002F68FE683B691E4016F0100403D0AC6974
:101B70000CB1A0471024310704D56B6913B1984705
:101B800044F00804720704D52B6913B1984744F058
:101B90000404B30704D5EB6813B1984744F002047A
:101BA0003B6923EA04043C61F8BD00BF54020020F5
:101BB00000223F2110B50446436810309A80186017
:101BC000DA801981A3689A80DA8004F150021981C1
:101BD0001A6094F89000FFF7C1FB94F99130002B44
:101BE00008DB0122591103F01F0302FA03F3024A32
:101BF00042F8213010BD00BF00E100E00368DA6860
:101C000042F02C02DA60DA6842F40052DA6070477F
:101C100010B5036881688C88CA8892B2A242FAD152
:101C2000DA68910402D51A685206F9D5DA6822F406
:101C30000052DA60426893889BB2D38082689388AE
:101C40009BB2D38010BDF0B50B4606460468B5685C
:101C5000581AAF88ED88ADB2BD4204D125682D0673
:101C600001D5824210D8E36823F08003E3609042FC
:101C7000B3680DD39A88DB889BB293421EBFE3689A
:101C800043F08003E360F0BD13F8010B6060DEE712
:101C9000DD889F880135BD42ECD0DF881D89ADB25B
:101CA000BD4203D19D88ADB2002DE3D0DD8811F88F
:101CB00000C01F68ADB207F805C0DF881D8901307C
:101CC000ADB2BD420FBF0025DD880135ADB2DD806C
:101CD000CDE703468288016892B2885C99881A89A8
:101CE000C0B292B28A420FBF00229A88013292B2E9
:101CF0009A80704738B5C38882880133934204467E
:101D00000D4607D0C28803899BB2934214D18388C1
:101D10009BB28BB92046FFF7DCFFE38822689BB2B9
:101D2000D554E28823899BB293420FBF0023E388F6
:101D300001339BB2E38038BD4FF0FF30EDE770B563
:101D40001E460546084611460422059CFFF73AF94F
:101D50000B229DF810103046FFF734F92968630212
:101D6000CA6803F4F05322F4F0521204120C134325
:101D7000CB602A682402136904F4405423F44053CE
:101D80001B041B0C1C43146170BD38B5054614467A
:101D900011B900F0FDF8014619235943A200B1FB27
:101DA000F2F26421B2FBF1F001FB10231B0132338C
:101DB000B3FBF1F303F00F032C6843EA00139BB26B
:101DC000A36038BD10B50446084B1868A047084BFF
:101DD0001868A047074B1868A047074B1868A0472A
:101DE000064B18682346BDE81040184784020020BF
:101DF000880200208C0200207C020020800200204B
:101E000010B5104CE368980607D52368990604D5E9
:101E100061680D48C9B2FFF76DFFE3681A060BD57C
:101E200023681B0608D509488288C3889BB2934261
:101E300003D0FFF74EFF606010BDE36823F080031E
:101E4000E360F9E700380140B4110020C011002020
:101E500010B5104CE368980607D52368990604D599
:101E600061680D48C9B2FFF745FFE3681A060BD554
:101E700023681B0608D509488288C3889BB2934211
:101E800003D0FFF726FF606010BDE36823F08003F6
:101E9000E360F9E700440040CC110020D811002095
:101EA00010B5104CE368980607D52368990604D549
:101EB00061680D48C9B2FFF71DFFE3681A060BD52C
:101EC00023681B0608D509488288C3889BB29342C1
:101ED00003D0FFF7FEFE606010BDE36823F08003CF
:101EE000E360F9E700480040E4110020F011002011
:101EF00010B5104CE368980607D52368990604D5F9
:101F000061680D48C9B2FFF7F5FEE3681A060BD504
:101F100023681B0608D509488288C3889BB2934270
:101F200003D0FFF7D6FE606010BDE36823F08003A6
:101F3000E360F9E7004C004084110020901100207C
:101F400010B5104CE368980607D52368990604D5A8
:101F500061680D48C9B2FFF7CDFEE3681A060BD5DC
:101F600023681B0608D509488288C3889BB2934220
:101F700003D0FFF7AEFE606010BDE36823F080037E
:101F8000E360F9E7005000409C110020A8110020F8
:101F900008B590F89000FFF797F920B101280348A1
:101FA00018BF002008BD0248FCE700BF00A24A0499
:101FB0000051250230B548F28005094C226822F410
:101FC000804222F070022A4342402260236823F4B8
:101FD000E04323F040032B434B40236030BD00BF60
:101FE000005C0040284B072818BF18701A78052A93
:101FF00048D8DFE802F003131E232B364FF6FB719F
:10200000224A106C014011644FF43F4111640622D2
:102010001A701F4B1B685A7B1A7370474FF6FB717F
:102020001A4A106C014011644FF43F4111640422BC
:1020300002E002225A7003221A7006E05A78013A2E
:10204000D2B25A705A78002AF1D070470F490A6C00
:1020500092B242F010020A6405221A700A225A70E3
:1020600070475A78013AD2B25A705A78002AECD1A5
:102070004FF6EF720549086C02400A64044A126880
:10208000517B11730622D7E710260020005C004028
:10209000740500202DE9F0415F4D604A2B68546CB7
:1020A0001B68A4B223405E0506D56FF480635364B9
:1020B0005B4B1B685B6898472A6813682340980449
:1020C00042BF6FF40051554B596413682340D90443
:1020D00006D56FF4C052514B00205A64FFF782FFBF
:1020E0002B681A68224012050FD54C490A6C92B22F
:1020F00042F0080042F00C0208640A641A7B5A732A
:1021000003221A736FF4C0524A641A68224097057A
:1021100042BF6FF40071414A51641B682340DE05E1
:1021200006D56FF480723D4B07205A64FFF75AFFC3
:102130002B681B681C40240403D5384C676C3B0497
:1021400001D4BDE8F0816FF4004317F00F0663641B
:1021500038D148F68003D4F8008018EA030FECD099
:102160001FFA88F32F4D304E03F440524FF40050C5
:1021700003F03003202133802A80FFF71BFFF8068D
:1021800023680ED423F4E14323F070031B041B0CDB
:10219000236000F09BFD31882888BDE8F041FFF7FF
:1021A00009BF18F0800FEDD123F070031B051B0D44
:1021B00018F4006F236002D000F0A6FBEBE700F0FC
:1021C00003FDE8E7B40004F1804404F5B84427684F
:1021D00039040DD5236823F070031B051B0D236004
:1021E0002A6806F180439268013B52F823309847F1
:1021F0003A06A2D5236806F1804623F4E14323F092
:1022000070031B041B0C23602B68013E5B6853F8B2
:102210002630984791E700BF74050020005C00401D
:10222000182600201226002014260020800000F12D
:10223000804000F5B840036823F4804323F0700326
:1022400043F4004343F080035940016070470000AD
:1022500018B90722024B1B681A820248704700BF58
:1022600020260020E40500200022012110B5104B9B
:102270001B689A720F4B19640F490868026008685E
:1022800004681C644FF4E0545A64046008680468ED
:102290001C644FF43F445A64046008680068186482
:1022A0004FF48010054B18600B681A7310BD00BF07
:1022B00020260020005C00407405002000E100E0C2
:1022C00013B5104B1A68137803F07F03212B16D136
:1022D000022808D0222801D0022405E093780A4A77
:1022E00003F0030313700024084B1B6823B102A9F9
:1022F00001F8010D02209847204602B010BD0224CB
:10230000FAE700BF2026002000120020FC11002068
:1023100021B901288CBF022000207047022070479D
:10232000054B1B689B78032B04D8044901EBC301C0
:1023300000F0BCBA0020704720260020CC05002009
:10234000014900F0B3BA00BF88050020014900F040
:10235000ADBA00BF9005002037B5114C2268127845
:1023600002F07F02212A02D0022003B030BDA0F18A
:102370002003012B0B4B0C4D1B6888BF002523B19C
:1023800002A901F8010D02209847002DECD0236826
:1023900000249D615C822046A8472046E5E700BFF7
:1023A00020260020FC110020512200082DE9F047D2
:1023B00000254FF0C00948F68F1648F280074FF00D
:1023C000400A434B434C1B68DFF838819D7283F809
:1023D0000990256523682846334043F40073236041
:1023E000236803EA08033B4383F010032360226D54
:1023F000394B520043F802A08022236D5B0003F1A9
:10240000804303F5C0431A60236823F4E24323F0BA
:1024100070031B041B0C2360304B1B6893F82C10BB
:1024200000F072F84FF440512846FFF7FFFEA36812
:102430002946334043F4C063A360226D284B520009
:1024400013444FF480721A60A268022002EA080264
:102450003A4382F02002A260FFF7E8FEE3685146AB
:102460003340E360226D1F4B520013444FF48872D7
:1024700003201A6000F048F84FF440510320FFF7A2
:10248000D5FE636829461E406660226D164B5200D9
:1024900043F802906368012003EA08033B4383F09A
:1024A00020036360FFF7C2FE0122104B28461B6821
:1024B0001A7300F0EBFBFF220D4B1D600D4B1D60EE
:1024C0000D4B1D600D4B1D600D4B1A70BDE8F08764
:1024D00020260020005C00400860004018260020F4
:1024E000206000403860004010600040740500200B
:1024F00004120020081200201012002014120020E4
:102500000C120020BF8FFFFF0D4B0E4A1B6D3E29A2
:1025100003EBC0004FEA400002440AD94B09C80649
:1025200004BF03F1FF339BB29B0243F400431360EB
:1025300070474B08C90748BF01339B02F7E700BF4C
:10254000005C00400C60004010B5064C18B9012238
:1025500023681A8210BD044B1B681B6898472068CB
:102560000A30F7E7202600201C26002010B5064C74
:1025700018B9012223681A8210BD044B1B689B689E
:10258000984720680C30F7E7202600201C26002002
:1025900010B51E4B1C68002310B90223238210BD06
:1025A0001B4803802178024611F07F0112D1617A25
:1025B0008C0644BF02230370037848064CBF23F007
:1025C000010343F001031370124B1B681B6998470A
:1025D0000F48E4E70129E2D0022915D1217901F061
:1025E0000F039B0003F1804303F5B84309061B6802
:1025F00005D503F03003102BE6D10123E3E703F404
:102600004053B3F5805FF7E71846C8E7202600205F
:10261000162600201C2600202DE9F843234FDFF862
:10262000A0803D682C8AD4B92E7A042E17D1204977
:102630000B78012B0ED11F4B1A681F4B92B213441B
:102640005B001C6030230C70A8F800303B681E72E1
:10265000BDE8F88310230726A8F80030F6E7AB8A18
:102660009C4294BF042602269C4228BF1C46AB69AC
:10267000204698478146002000F0B4FB22460146E0
:10268000484600F052FB2146002000F0C7FB2B8A91
:102690004FF440521B1B2B826B8A1C443023A8F83A
:1026A0000030064B6C821A80D0E700BF2026002045
:1026B00018120020505C004002300020122600203A
:1026C0001426002010B50A4B0A491B6849789A78ED
:1026D00091420AD3D97841B99C8834B99A72064B91
:1026E0001B685B689847204610BD0220FCE700BFCE
:1026F00020260020C80500201C26002038B50F4ADF
:102700000F4D12682B6892699978187990472B6859
:1027100004469A7A7AB170B95A7962B9DB7853B9BA
:10272000084B1B68DB6898472B681A79DA729A782D
:102730001A73204638BD0224FBE700BF182600208C
:10274000202600201C26002038B52B4B1B6818784B
:1027500010F07F0004D15A7A22F020025A7238BD5C
:10276000022847D15A88002AF9D15A79002AF6D18D
:102770001979224D21F08000840004F1804404F591
:10278000B844226849B22D780029B4BF02F0300263
:1027900002F4405285422DD962B39B7A53B300298B
:1027A000236811DA03F03003102B07D1C4B220469E
:1027B00000F004FB3021204600F0D8FA104B1B68D3
:1027C0005B6998470020CAE703F44053B3F5805F84
:1027D000F4D10C4D58B90C4B93F82C1000F02CFB95
:1027E00023682B409BB283F440532360E6E700F05C
:1027F000D2FAF5E70220B2E720260020C805002023
:102800001C2600208FBFFFFF9805002038B51B4B0A
:102810001B4D18682D78017921F08004A30003F185
:10282000804303F5B8431A6849B20029B4BF02F0E7
:10283000300202F44052A5421DD94488DCB9D2B11D
:10284000827AC2B11A680029B5BF22F4E04222F4AC
:10285000804222F0400222F07002B5BF92B292B2E2
:1028600082F0100282F480521A60064B1B689B694A
:102870009847002038BD0220FCE700BF202600203A
:10288000C80500201C26002008B5064B1A68537A9C
:1028900043F020035372044B1B68DB699847002008
:1028A00008BD00BF202600201C26002010B5054BC7
:1028B0001C68628A18B98B889B1A238210BD08682D
:1028C0001044FBE72026002008B50B4B002093F8AE
:1028D0002C1000F0B1FA094B1B68187A082806D1B1
:1028E0004FF48052064B1A801022064B1A80A0F13A
:1028F00009035842584108BD9805002020260020B1
:10290000122600201426002073B5964C964E21689E
:1029100032680B7A092B16D0944B92B213445B00A9
:102920001B885B0003F1804303F5C0431A780A70EB
:1029300059782268517099882268518019892268D3
:1029400091809B89D380012223681A72DA885D788E
:10295000002A64D11A7812F07F024DD1092D03D1DB
:10296000FFF7B0FE40BB16E0052D20D193F9022001
:10297000002A07DA08232268137202B0BDE870400B
:10298000FFF7A2BFDA78002AF4D19A88002AF1D1A1
:102990009B7A002BEED13268754B92B21344002221
:1029A0005B001A603022734B1A800623E3E7032D85
:1029B00014D19A78012A08D06F4B28461B685B69AE
:1029C0009847032828D10923D5E79A88002AF3D10C
:1029D0005B7A9A06F0D5FFF757FFC3E7012DEBD1DD
:1029E0009A78012AE8D19A88002AE5D15B7A9B0679
:1029F000E2D5FFF7A9FEB5E7012A04D10B2DDBD103
:102A0000FFF77CFEAEE7022AD6D1012DF1D0032DCF
:102A1000D2D1FFF7FBFEA5E70028ABD1BBE7062D1F
:102A200012D11A7855065AD1DB78534A012B126815
:102A300002D1D369DBB952E0022B01D1136AF9E765
:102A4000032B4CD1536AF5E7002D54D15988002946
:102A500045D15A6822F0FF02B2F5003F3FD11A7803
:102A600012F07F0216D19B88002B38D1434B0025F2
:102A70002268284655829361984728464FF6FF7191
:102A800023681A8A8A4233D0022801D0002A55D1FD
:102A900008222EE0012A0AD1374A18791268926971
:102AA0009047E0B923689B7A002BDFD117E0022A18
:102AB00015D11A7902F00F018B00100603F1804343
:102AC0002F4803F5B8431B6800784CBF03F0300370
:102AD00003F44053884202D912F0700FE4D0264B21
:102AE00022681B6850781B6998470328C6D1236861
:102AF00009221A7241E7082D04D11B785B06EED13A
:102B0000204BB4E70A2DEAD11A7802F07F02012A9D
:102B1000E5D19A7A002AE2D059880029DFD15A6893
:102B200022F0FF02B2F5803FD9D1134A187912681A
:102B3000926990470028D2D1134B98E793F900107F
:102B4000002936DAD9880C4C019101982468824218
:102B50001CD9019A1A8294F82C209A82FFF75CFD06
:102B60000BE700BF20260020505C0040043000200E
:102B7000023000201426002018260020912500088D
:102B8000C8050020492500086D2500088A42E2D2C8
:102B900094F82C00824203D20021094A1170DAE72E
:102BA00092FBF0F100FB1122002AD4D1044A01214A
:102BB000F4E703221A724FF44052024B1A80DCE60B
:102BC0001812002012260020F8B52A4E3468237A05
:102BD000032B01D0052B44D1A369B3B1258AA5B13C
:102BE000A28A954228BF154628469847238A074659
:102BF0005B1B2382638A00202B44638200F000F970
:102C00002A460146384600F09FF8238A53B1002136
:102C10004FF44052184B08461A8000F0FFF830225B
:102C2000164B1A80228AA18A3368914209D803225E
:102C30001A7233681B7A32681372BDE8F840FFF7E6
:102C400043BE0AB10522F3E7062119720C4B19683D
:102C50000C4B89B20B445B001A603022074B1A8080
:102C6000E7E7072B03D1084B1B68DB68984708236D
:102C7000E1E700BF202600201226002014260020B5
:102C8000505C00400230002018260020002210B5C1
:102C90000C4B1C78A24204D30B4B40F08000186010
:102CA00010BD02F1805303F5B8539B00196821F45D
:102CB000E04121F070010904090C1143196001324F
:102CC000E8E700BFC80500204C5C004010B5134C7D
:102CD00023681A7A022A01D0042A09D1FFF79CFC42
:102CE00023681B7A22681372BDE81040FFF7ECBD21
:102CF000062A10D15A78052A09D11A78520606D127
:102D00009878FFF7C3FF064B1B681B6A9847054B73
:102D10001B689B6898470823E4E700BF2026002033
:102D20001C26002018260020704701F100510132B6
:102D300001F540515210490002B9704730F8023B8A
:102D4000013A21F8043BF7E7002310B501F10051E7
:102D5000013201F54051521049009A4200D110BD94
:102D600051F8234020F813400133F6E7800000F1CA
:102D7000804000F5B8400368CA0623F4E04323F01E
:102D800040039BB248BF83F010038A0648BF83F01C
:102D9000200303607047800000F1804000F5B840D8
:102DA00003685B0409D5036823F4E04323F0700350
:102DB0001B041B0C43F4804303607047800000F148
:102DC000804000F5B84003685B0609D5036823F42A
:102DD000E04323F070031B041B0C43F0400303602B
:102DE00070470000054B1B689BB203EBC00000F16D
:102DF000005000F54050400000887047505C004093
:102E0000044B1B689BB203EBC000034B03445B0005
:102E100018887047505C004004300020044B1B6849
:102E20009BB203EBC000034B03445B001960704787
:102E3000505C0040023000200D4B0E4A1B683E29BA
:102E40009BB203EBC00002444FEA42020AD94B098D
:102E5000C80604BF03F1FF339BB29B0243F4004357
:102E6000136070474B08C90748BF01339B02F7E75F
:102E7000505C00400630002013B504468DF8071062
:102E800001220DF107012046FEF7DDFE0028F7D0F4
:102E900002B010BD38B505464C1E14F9011F01B92A
:102EA00038BDC9B22846FFF7E7FFF6E708B5134B70
:102EB00003221C6801212046FEF784F8002301212B
:102EC0001A46B2F5007F0CD072B1B3F5007F01D184
:102ED00000230A449A420CD9022520680561013377
:102EE000EFE74FF0FF31F0E7B3F5007F4FF001015E
:102EF000EED020684FF40035F0E700BFF8D20208AA
:102F000008B5034B0BB100F045F862B6FFF7CEFFF2
:102F1000952F000808B5044B23B100F05BF8034976
:102F2000FFF7B8FFFFF7ECFFD52F0008E3D3020847
:102F3000FDF7BCB908B501F02BFA01F0F3FAFCE794
:102F400022F00AB832280BD8064B03EB0010436876
:102F50001A68437B343203F18043013B42F823106B
:102F6000704700BF88CF020838B50C4605460721D8
:102F700004EB042400F046F8A1B22846BDE838402E
:102F8000FFF7E0BF002203685B0103F18443C3F84D
:102F9000002170474FF0FF3310B50A4C0A48C4F8BF
:102FA0008030C4F88430FEF7EFFA0848FDF7E6FDFC
:102FB0000748FEF707FF4FF4002323604FF4801308
:102FC000236010BD00E100E0E9150008852F00082E
:102FD000111C000810B5094B094C18680B2202217E
:102FE000FDF7F0FF2068FEF7E3FD20684FF416526E
:102FF0000021FEF7CAFE206810BD00BFF4D202080F
:1030000088020020322838B53BD8082939D8DFE8B3
:1030100001F00529171A1D2017232600002403227A
:10302000184B00011D18297B1858FDF7CBFF686865
:1030300038B3697BCCB1BDE838400122FEF796BBBE
:1030400000240422ECE700242246E9E700240922B8
:10305000E6E700240822E3E701240B22E0E701244D
:103060000F22DDE700240722DAE702684B1E02F197
:10307000404220329B0003EBC2039B0003F18443D8
:103080001C6038BD88CF020808B501211048FDF743
:10309000B7FA02210F48FDF7B3FA03210E48FDF7F6
:1030A000AFFA04210D48FDF7ABFA05210C48FDF7F6
:1030B000A7FA06210B48FDF7A3FA07210A48FDF7F6
:1030C0009FFABDE8084008210848FDF799BA00BFFB
:1030D0001C120020201200202412002028120020A0
:1030E0002C12002030120020341200203812002050
:1030F00032280DD8074B000119181B58097B1B6893
:103100009A6801238B40134214BF012000207047AE
:103110000020704788CF0208322810B50ED8084B1F
:1031200000011C181B58B1FA81F11A680123207B99
:1031300049098340090103FA01F1116110BD00BF83
:1031400088CF02080A4A0B4B11689B6800BF00BF7A
:1031500012688A42F6D14820C3F58C3303F5A07378
:10316000B3FBF0F34FF47A7000FB0230704700BFFE
:103170000C26002010E000E038B50446FFF7E2FF1F
:1031800005465CB1FDF762FCFFF7DCFF401BB0F5C4
:103190007A7FF6D3013C05F57A75F5D138BD28B1B3
:1031A0000C234343013B18460138FDD8704700000B
:1031B0000449054BCA6822F4E0621204120C13435E
:1031C000CB60704700ED00E00003FA0570477047E0
:1031D0000120704713B5104C204616F0A8F9204680
:1031E000042116F03DF9204602220C4916F03CF964
:1031F000002302220A4900932046A02316F09AF9E0
:10320000204616F08DF9204616F07CF9204602B0D3
:10321000BDE8104016F07DB94412002008D4020821
:103220003E12002024280AD0252807D10123054A70
:1032300032F81330044AC3F3890313807047002324
:10324000F5E700BF3E1200203C120020044B03EBC8
:1032500000135B6813B1C0B2FFF786BE704700BFB2
:1032600088CF0208FEF722B8024B0348196816F00F
:10327000F5B800BF1C0000204412002010B5074C18
:10328000032294F84C10206CFDF79CFE236C94F8FC
:103290004C101A6801238B40136110BD88CF0208BF
:1032A000062838B58CBF00250A4B0B4C98BF1D5C17
:1032B0002046E46600F03FF92946204600F04DF92B
:1032C0002046012100F056F92046BDE83840002193
:1032D00000F05DB90AD4020854120020FF21014811
:1032E00000F06AB9541200200B4602460021014842
:1032F00000F01ABA541200200146014800F09CBAAE
:103300005412002070B50D46064C0146204600F0D0
:1033100093FA29462046BDE8704001234FF400721D
:1033200000F07EBA5412002001398B00012102689E
:1033300099405160704703689A689107FCD59A6874
:103340001206FCD47047436823B1417B0022184623
:10335000FEF70CBA70470000172806D0182806D0D0
:103360001628044818BF00207047034870470348D8
:10337000704700BF7C1703088017030884170308F1
:103380002DE9F04F814687B000798A46FFF7E4FFC8
:1033900060B30578174C46782D012B1987783601D4
:1033A00090F8038006EB040B1846059304EB07170F
:1033B000FFF7C9FF5846FFF7C6FF04EB0818384669
:1033C000FFF7C1FF4046FFF7BEFF98F80C20059BB2
:1033D00051461B7B03923A7B484602929BF80C2095
:1033E0000192325900922A59FEF764F807B0BDE8FD
:1033F000F08F00BF88CF020810B50C46FDF764FFC0
:1034000090B10228094B88BF002300225B089C4230
:10341000D0B205D20132072A4FEA5303F7D1104642
:10342000034B0344187B10BD024BEEE700A24A0495
:103430007C170308005125022DE9F041034604469C
:103440006C302C4D00221D6001255A731D735A608B
:10345000C3E9072224339842F3D124224B1E02FBF6
:1034600003430229E366DFF8AC80234E39D00329F9
:103470003CD0A94201D1214B1C60214B214F1B683C
:10348000216823611879FFF7B7FF3B680225A36124
:1034900003236375D8F80030A06063632575616A03
:1034A0001879FFF7A9FF3B68E062E363052384F81E
:1034B0003930042384F838303368A16CA365187957
:1034C000FFF79AFF104B00221B682065236601233B
:1034D00084F85C30E36E84F85D50DA732046BDE812
:1034E000F081D8F800306363084BC5E73368A36503
:1034F000074BC1E700093D0068010020C41200200D
:10350000600100206000002064000020C81200203C
:10351000CC12002064010020C06E037B4268012BA6
:103520000CBF0023802342F440721343017A427B94
:103530000069FDF79FBF10B50446C36E1869FDF71B
:103540006EFFE36E01211869FFF71AFF2046FFF7AF
:10355000E3FF0122E36EDA7310BDC36E9960C36EA0
:1035600001F038011B691A68136823F03803194306
:1035700011607047C36E1973C36E1B691A681368B4
:1035800023F0800309B943F0800313607047C36ED2
:103590005973C36E01F003011B691A68136823F0A5
:1035A0000303194311607047C36E1B691B68D96020
:1035B000C36E1869FFF7BFBE10B5C36E1C692368E0
:1035C0002046DA68D960FFF7B6FE2368D868C0B233
:1035D00010BD0000F0B50546C36E85B0986917466A
:1035E0000E46FDF7FAFAE86E4468017DA4F5006323
:1035F0005C425C4103691A688223CDE9014300976C
:1036000023460C328069FDF72BFBE86E0369417D90
:103610001A68C6B91023CDE901430D4B0093234628
:103620000C328069FDF71CFBEB6E0022597D986916
:10363000FDF7D6FA0322EB6E197D986905B0BDE857
:10364000F040FDF7CDBA90230096CDE90143E6E7BF
:1036500011D4020870B504460D4611B9002528465C
:1036600070BDC36E1A6912689168CE0748BFD268F0
:103670000422DA73C36E2A46197D9869FDF7BCFAF5
:10368000E36E2A46597D9869FDF7B6FAE36E197D17
:103690009869FDF7CDFAE36E597D9869FDF7C8FA90
:1036A000E36E1869FDF7F8FEE36E1869FDF7E8FEB2
:1036B000E26ED369002BD1D193691A491E68537DFC
:1036C0000D68013B9B00DBB23068D840800727D4EF
:1036D0000868401B6428F7D902251069FFF72BFE04
:1036E000E36E1869FDF7D2FEE36E1869FDF7DAFEA6
:1036F000E36E597D9869FDF7A7FAE36E197D986925
:10370000FDF7A2FAE36E197D9869FFF70DFEE36EEF
:10371000597D9869FFF708FE0122E36EDA739EE790
:103720000025DAE70C26002038B504461D46FFF7D1
:1037300051FF29462046BDE83840FFF78BBF7FB5D3
:10374000054614460E46C36EE4019869FDF745FA36
:10375000E86E44F012044368417DA3F500625342D1
:10376000534102691268CDE9013400960C32806938
:10377000FDF776FA0022EB6E597D986904B0BDE83A
:103780007040FDF72DBA000070B504460D4611B922
:103790000025284670BDC36E597D9869FFF7C4FDAA
:1037A000E36E2A46597D9869FDF726FA0322E36EF7
:1037B000DA73E36E597D9869FDF73AFAE36E18699A
:1037C000FDF75EFEE26E136A002BE1D193691349A7
:1037D0001E68537D0D68013B9B00DBB23068D8400A
:1037E000800719D40868401B6428F7D9022510699E
:1037F000FFF7A1FDE36E1869FDF748FEE36E597D02
:103800009869FDF721FAE36E597D9869FFF78CFD01
:103810000122E36EDA73BCE70025E8E70C260020FE
:1038200038B5044615461A46FFF789FF2946204653
:10383000BDE83840FFF7A8BF08B5FFF7B5FE012087
:1038400008BD000001210148FFF7F6BD5412002019
:10385000012342798B4010B5DB439AB1012A41F62E
:103860005F6218BF0122046813402361036803F1FB
:1038700040430C3301EBC3010123890001F1844172
:103880000B6010BD41F6FF62EDE7002203685B01AB
:1038900003F184431A607047012203685B0103F15E
:1038A0008443C3F88022704770B5224D224C2B7898
:1038B000BFF35B8F13F0010F0AD1284617F048F9C8
:1038C00030B1012000F092FB2060284617F05CF92F
:1038D00023681B681E69B20714D5184D0322297B83
:1038E0002868FDF76FFB2B68297B1A684FF480333B
:1038F0008B401361002223681B685B0103F1844342
:10390000C3F80422730713D50C4D0322297B2868C2
:10391000FDF758FB2B68297B1A6801238B40136144
:10392000002223681B685B0103F18443C3F808226B
:1039300070BD00BFD4120020D812002088CF02082A
:103940004FF0FF33044A43601378022B8EBFFF23EE
:10395000591C117003707047D012002038B54268AE
:103960000546531C28D003780BB9006938BD84681C
:1039700044F62060114B03EB02135A685B7B12681C
:1039800003F180433432013B52F823104FF6AF72FB
:1039900089B20023A1FB000116F022FEE968A0F520
:1039A0000870091B4FF4E862002380FB010116F048
:1039B00017FE204400B2D9E70020D7E788CF0208DD
:1039C000F8B501200D4600F011FB044600283ED05A
:1039D0001F4E2D017719397B70590322FDF7F2FA3A
:1039E000735901251A683B7B204605FA03F31B0433
:1039F0001361FFF74AFF02222946FDF7B7FE22684E
:103A000029469369204623F0FF0393612268936956
:103A100023F47F439361152223689A624FF6AF73B4
:103A20002268D3622268536322689363094AFDF7D0
:103A3000FFFD084A02212046FDF7FAFD2046FFF768
:103A40002BFF284623685B0103F184431D60F8BD0A
:103A500088CF0208A938000870B5054601200E4637
:103A600000F0C4FA03685E63FFF716FF3EB1012160
:103A7000FFF7EEFEBDE870400221FFF7E9BE0368E4
:103A80000F4C5B0103F18443C3F884610368032294
:103A90005B0103F18443C3F888616B681B01E11883
:103AA000097BE058FDF78EFA6B681B01E118E358BB
:103AB000097B1A684FF480338B40136170BD00BFDF
:103AC00088CF0208037813B91146FFF7C5BF074B2B
:103AD00003EB0113596839B15B7B086803F180433C
:103AE0003430013B40F82320704700BF88CF0208E4
:103AF000F8B505780446022D0E4601D90020F8BD20
:103B00003229FBDCC0E902234FF0FF33036125B902
:103B1000FFF756FF08B16660F1E7114B03EB0613A0
:103B20005D68002DEAD0F7B207213846FFF76AFA40
:103B3000002239462046FFF7C5FF2846FFF7A5FEBD
:103B400015222B689A624FF6AF722B68DA62FFF784
:103B5000A3FE01202B685B0103F184431860DAE7C0
:103B600088CF020808B541684A1C08D04FF0FF32E0
:103B7000C9B202610022FFF7A5FF012008BD0020A5
:103B8000FCE738B5456804466B1C28D0D0E9023202
:103B90008B4222DC9142A8BF11464FF4E8602161BC
:103BA000D21AC91A81FB0001D31716F019FD4FF67E
:103BB000AF7100F5087080B2002344F62062A0FBCC
:103BC000010116F00DFDE9B282B22046FFF77AFF3F
:103BD000BDE83840322000F073BD1946DDE738BD3E
:103BE0000821F0B5324B1E78C709324B76BBD3F8AB
:103BF000D021002F15684FF001020CBF10270027BD
:103C000093F8DC4102FA04F424042C6193F8FC518B
:103C1000D3F8F04102FA05F52468BD402561D3F8D8
:103C2000F041256893F8FC4102FA04F4BC402C6191
:103C3000D3F8D04193F8DC3124689A4022614B1EBE
:103C4000400013F0FF01C0B2CED1F0BD0022D3F886
:103C5000D04193F8DCC125684FF48034013204FA76
:103C60000CF42C61D4B2A642F1D2002F14BF00276D
:103C700010270024E2B296420BD9D3F8F02193F832
:103C8000FCC11568012202FA0CF2BA402A61013423
:103C9000F0E70022D4B2A642D1D9D3F8D04193F8AC
:103CA000DC7125680124BC402C610132F2E700BFC1
:103CB000DC12002088CF0208013938B514461D46B1
:103CC000062950D8DFE801F00C81514F74047800C8
:103CD0002C44A54247D015F8010BFFF781FFF8E708
:103CE0000125424C032294F8EC11D4F8E001FDF7D1
:103CF00069F9D4F8E0311A6894F8EC3105FA03F365
:103D00001B04136194F8DC110322D4F8D001FDF7F1
:103D100059F9D4F8D0311A6894F8DC3105FA03F374
:103D20001B04136194F8FC110322D4F8F001FDF791
:103D300049F9D4F8F0311A6894F8FC3105FA03F324
:103D40001B04136194F8CC110322D4F8C001FDF7D1
:103D500039F994F8CC21D4F8C031954000221B6881
:103D60001D61234B1A70012038BD204B8AB1D3F856
:103D7000D02193F8DC111068012202FA01F10161EF
:103D8000D3F8C01193F8CC3109689A4012040A6143
:103D9000E9E7D3F8C02193F8CC111068012202FAA8
:103DA00001F10161D3F8D01193F8DC310968ECE737
:103DB0001046FFF715FFD6E7002CD4D015F8010BFD
:103DC000013CFFF70DFFE4B2F6E70123074A002CA0
:103DD00092F8EC11D2F8E02103FA01F314BF0021AC
:103DE000102112688B401361BDE700BF88CF020825
:103DF000DC1200200120014B18707047DD120020FA
:103E000008B515F023FB0022014B01201A7008BDF4
:103E1000DD1200202DE9F8431B4D98462B7806460D
:103E20000C46174683B115F005FB184815F0BAFA91
:103E3000052802D00120BDE8F883154815F0B2FA34
:103E40000528F7D100232B70254607EB04094D45C3
:103E5000A5EB04030DD0306815F8011B00F180605C
:103E600000F5FC301844400015F0BEFA0528EED0ED
:103E7000E0E7BAB2404621460BF070FE32680020FF
:103E80003A443260D7E700BFDD12002000F003089B
:103E900000F803082DE9F74305460F4690461E46F5
:103EA00000249DF828902A684445224413D002F14A
:103EB000806202F5FC32520013788DF80730B9F1B8
:103EC000000F00D03B5501220DF1070130460BF0E9
:103ED00045FE0134E7E700202A6003B0BDE8F08327
:103EE0000228F8B506460D4639D0052836D10026F9
:103EF0002C4C0222236801215B0103F184431E60E4
:103F00002046FDF733FC28494FF6FF70B1FBF5F171
:103F10001122814228BF014623685E629A62D862FC
:103F20009A69204622F0FF029A6159635B0103F10E
:103F300084430121DE611D4AFDF77AFB0121322015
:103F4000FDF78AF9012223685B0103F18443C3F87A
:103F5000802223685B0103F184431A60F8BD0027C7
:103F6000134C0246236801215B0103F184431F6067
:103F70002046FDF7FBFB40F2E73223680D495F6204
:103F8000B1FBF5F19A624FF6FF72914228BF1146DC
:103F9000DA6220465963084A0121FDF749FB3146A0
:103FA0001C20CDE71802002000093D002D46010825
:103FB000AC01002040190100A957010802280CD0CB
:103FC00005280CD1074B1B685B0103F18443D3F830
:103FD0008401003018BF01207047034BF3E7002035
:103FE000704700BF18020020AC01002001380728EC
:103FF0009ABF024B53F820000020704714D40208E7
:10400000FDF722B970470368C9B21B681847000062
:104010000023054A9A56824204D00133162BF8D168
:10402000002070470120704707D6020808B500F04D
:10403000B9FABDE80840014800F0A2BA6ED40208FF
:1040400008B50EF0D3FC0EF03FFDFE200DF010FE83
:10405000BDE808400DF0EABD054BD3F8D02293F837
:10406000DC124FF4803312688B401361704700BF3D
:1040700088CF02080E4AD2F8803092F88C10186867
:10408000012303FA01F109040161D2F81011086853
:1040900092F81C1103FA01F109040161D2F820120F
:1040A00092F82C22096893401B040B61FFF7D4BFE0
:1040B00088CF0208044BD3F8D02293F8DC120123F6
:1040C00012688B401361704788CF0208012130B419
:1040D000124BD3F88020106893F88C2001FA02F27A
:1040E00002610F48027822F001040470D3F81041F5
:1040F000256893F81C4101FA04F42C6122F00304B2
:104100000470D3F8204293F82C322468994022F0AE
:1041100007022161027030BCFFF7CCBF88CF0208D4
:10412000FF170020044B93F9000001281EBF034B2A
:104130001878C0F380007047EC170020A8240020F6
:10414000094B93F90030022B0CD0084B1B78C3F3BA
:10415000C00040B1064AD07828B1C3F3800080F097
:104160000100704701207047EC170020A8240020B0
:104170008824002010B540F2E9330446013B08D002
:1041800000BF00BF00BF42F62F22013A00BFFCD1A2
:10419000F4E772B640F2E933013B08D000BF00BF3C
:1041A00000BF41F29312013A00BFFCD1F4E710F0D6
:1041B00097FF24B1FFF78AFFFFF722FFFCE7FFF725
:1041C00079FFF9E704460E46154608B510F088FF5A
:1041D00000F0E8F9064800F0D3F906483146002C13
:1041E00018BF20460BF0A2F92846FFF7C3FF00BF17
:1041F0007DD40208F4D5020870B5384B05461B780B
:10420000032B01D804F0ACFB354B364A1B6814680D
:10421000ABB1354909680B44E31A002B0FDB00F002
:10422000C1F9324B3248196800F0C2F90A2131480D
:10423000FFF7E9FE002211461046FFF7C3FF2E4BA1
:104240001B6843B12D4908782D49097888420ED062
:104250001268254B1A602B4D00F0F8FF2B68E31A0B
:10426000002B03DB64340EF065FB2C6070BD264A26
:1042700085BB1D4909680B44E31A002B2ADB137820
:10428000002BE8D101231370204AD2F8801008686F
:1042900092F88C1003FA01F101611D48017821F0B8
:1042A00001050570D2F810512E6892F81C5103FADE
:1042B00005F5356121F003050570D2F8205292F81A
:1042C0002C222D68934021F007012B610170FFF72C
:1042D000F1FEC0E700231370BDE700BFC814002043
:1042E000E81200200C260020001300200C130020F0
:1042F00034D402085C100020EC050020C51D00200D
:10430000C61D0020E0120020E412002088CF020821
:10431000FF17002008B50BF047F902F003FE00205C
:10432000FFF76AFF10F0C0FF0BF0A2FBFEF74EFF95
:10433000034B1B781BB9BDE8084011F01DBD08BD3B
:10434000EC12002010B50D4C10F0CAFE0BF0D0FF9F
:10435000237893B10A4B1A680A4B1A6000F022F9CD
:10436000094800F00DF9002108480BF0F3F84FF46C
:10437000AF7000F0A5F90023237010BDEB050020FD
:10438000C4140020CC140020A1D40208FDD50208DA
:1043900037B5FEF70DFF504A136823F0E06343F092
:1043A0000073136010F0AAF94FF4E1314B48FCF7A9
:1043B00015F94B4B4B481B6800F0E2F800F0ECF8A5
:1043C000FEF706FFC507044602D5474800F0D8F8B7
:1043D000A00702D5454800F0D3F8610702D544484C
:1043E00000F0CEF8220702D5424800F0C9F8A30633
:1043F00002D5414800F0C4F8FEF7E9FE3F4800F05E
:10440000BFF820213548FFF7FEFD3D4800F0B8F821
:104410000A213248FFF7F7FD00F0BEF8394800F0F6
:10442000AFF800F0B9F8384800F0AAF800F0B4F896
:104430000020FBF7EFFF0DF10701091A334800F0E8
:10444000C3F8334C4FF4A861324800F0BDF80A219C
:104450002248FFF7D8FD00F01FFA0AF0F1FF0BF039
:104460005BFA05F0F3FC13F0B1FC237823B90DF0EF
:10447000E1F908B101232370274C284D21682868F1
:1044800015F084FD69682060606815F07FFDA968FB
:104490006060A06815F07AFDA0600DF0C7FB2048B1
:1044A00010F02AFD0BF04CFF0DF004FA0FF0CEFDDA
:1044B0000FF0E2FB0FF06CFA00200DF01DFA012066
:1044C00000F0CCF9FFF79EFD01231A461946184665
:1044D00000F0A8FB03B030BD040001405C100020D8
:1044E0000C260020A5F9020818D5020821D50208DB
:1044F00032D5020844D5020855D5020866D502080F
:104500006DD502087BD50208B7D50208CED50208C2
:10451000DE120020DDD502080C1800202C18002027
:104520009C20002008B5FFF7F5FE13F09FFC0E4B12
:104530001B785B0613D513F0B3F803F0C9FEFFF741
:104540007FFD0BF0D5FE10F0CBFD0021084610F0EA
:104550001DFB0022054B06481A7003F055FF04F0BE
:1045600073F80DF0C9FADEE7A8240020F00500205A
:104570009DD40208014812F0CDBE00BFE512002014
:1045800010B5044614F9011B19B10248FFF73BFDB1
:10459000F8E710BD5C1000200148FFF7F1BF00BF35
:1045A00035D602080148FFF7EBBF00BF2ED6020840
:1045B00010B50C46FFF7E4FF2146BDE81040014866
:1045C000FCF7D8B85C10002010B50C46FFF7D8FFF8
:1045D0002146BDE810400A220148FCF731B900BF6E
:1045E0005C10002010B50C46FFF7CAFF2146BDE85D
:1045F00010400A220148FCF736B900BF5C100020C9
:1046000013B50C46FFF7BCFF204615F02FF9022327
:104610000246009302480B46FCF7FEF902B010BDBB
:104620005C10002010B50C46FFF7AAFF2146BDE83C
:1046300010400A220148FCF72DB900BF5C10002091
:10464000034A044B002814BF10461846FFF798BFD2
:10465000D5DB0208E1DA0208034A044B002814BF44
:1046600010461846FFF78CBF1DD6020822D6020856
:10467000F8B507460E4615461846069CFFF780FF1C
:1046800039680B48FFF7BCFF31680A48FFF7B8FFED
:1046900029680948FFF7B4FF24B12046BDE8F84077
:1046A000FFF76EBF0A210548FFF7ADFCF8BD00BF5C
:1046B000F3F3020828D602082BD602085C1000206B
:1046C00010B50446322C06D93220323CFEF754FD98
:1046D00010F0EAFDF6E72046FEF74EFDBDE810407B
:1046E00010F0E2BD064BD3F8F02093F8FC10012344
:1046F00012688B409268134214BF0120002070475B
:1047000088CF020810B50C4601460748FFF739FA72
:104710002068B0F5FA7F38BF4FF4FA70FFF7D0FF8A
:10472000BDE81040FFF7DEBF6C1E00204FF4FA73A7
:1047300037B540F2EE2502AC44F8043D2146A020F6
:10474000FFF7E0FF21465A200195FFF7DBFF2146E6
:104750000A200195FFF7D6FF21465A200195FFF761
:10476000D1FF03B030BD000037B540F2EE2502ACFA
:1047700044F8045D21460A20FFF7C4FF18B900245D
:10478000204603B030BDFFF7D1FF21460A20019536
:10479000FFF7B8FF04460028F1D0FFF703FF0348F6
:1047A000FFF7EEFEFFF7CEFDEAE700BF3BD60208BB
:1047B00037B540F2EE2502AC44F8045D21465A209C
:1047C000FFF7A0FF18B90024204603B030BD4FF416
:1047D000FA732146A0200193FFF794FF21465A2047
:1047E0000195FFF78FFF04460028ECD0FFF7DAFEB3
:1047F0000248FFF7C5FEFFF7A5FDE5E73BD6020837
:1048000040F2EE2373B502AC44F8043D214606465F
:104810000A20FFF777FF96202146019006B18C20F1
:104820009625FFF76FFF214682200195FFF76AFF6B
:10483000019521466EB18C20FFF764FF40F2EE2314
:1048400021465A200193FFF75DFF034B1E7002B013
:1048500070BD2846F0E700BFEF1200204FF4FA7356
:1048600037B502AC44F8043D21460546A020FFF7C9
:1048700049FF40F2EE2321465A200193FFF742FF01
:10488000044B1B781BB115B10020FFF7B9FF03B033
:1048900030BD00BFEF12002010B5254CD4F8043114
:1048A0009BB107211020FEF7ADFBD4F87431EBB1BA
:1048B00007211720FEF7A6FBD4F864313BB3BDE80F
:1048C000104007211620FEF79DBB032294F80C111F
:1048D000D4F80001FCF776FBD4F8003194F80C1101
:1048E0001A684FF480338B401361DEE7032294F89B
:1048F0007C11D4F87001FCF765FBD4F8703194F8A2
:104900007C111A684FF480338B401361D4E7032283
:1049100094F86C11D4F86001FCF754FBD4F86031C2
:1049200094F86C111A684FF480338B40136110BDFA
:1049300088CF020838B52B4C0546D4F804310178ED
:1049400033B31020FEF782FCD4F874316978002B61
:104950002CD01720FEF77AFCD4F86431A978002B0C
:1049600032D01620FEF772FC2B786A781344AA78AE
:104970001344022BCCBF012200221B4B1A7006DD10
:104980001A4B9D421FBF2A881A80AA789A7038BD98
:10499000012300290CBF1021002194F80C21934021
:1049A000D4F800218B4012681361CDE70123002960
:1049B0000CBF1021002194F87C219340D4F8702181
:1049C0008B4012681361C7E7012300290CBF102137
:1049D000002194F86C219340D4F860218B40126838
:1049E0001361C1E788CF0208F3120020F012002003
:1049F000FF22024B1A705A709A707047F012002012
:104A00002DE9F341D0F800800E684046176815F094
:104A1000A1FD0546384615F09DFD31460446404649
:104A200015F078FD00BB3946304615F073FDE8B946
:104A3000304615F08FFDFF26621B401BD31780FB0D
:104A4000060115F0CDFD0A4BC0B21A78824208D09B
:104A50001870C0438DF8060001A8ADF80460FFF798
:104A600069FF02B0BDE8F0812846E4E72046E2E7AE
:104A7000F41200202DE9F341D0F800800E68404682
:104A8000176815F067FD0546384615F063FD314699
:104A90000446404615F03EFD10BB3946304615F041
:104AA00039FDF8B9304615F055FDFF26621B401B55
:104AB000D31780FB060115F093FD0B4BC0B21A789B
:104AC00082420AD0187000238DF8040001A88DF8E6
:104AD00005308DF80660FFF72DFF02B0BDE8F081CC
:104AE0002846E2E72046E0E7F412002010B50B6804
:104AF00004461B69084698472379C0F3400210F02A
:104B00001E0F60F3000362F3410314BF0122002271
:104B100062F3820320602371204610BD08B558213E
:104B20000148FFF770FA08BD5C10002008B5592154
:104B30000148FFF768FA08BD5C10002008B55A214B
:104B40000148FFF760FA08BD5C10002008B5452158
:104B50000148FFF758FA08BD5C100020F7B53C2467
:104B600000680D46B0FBF4F74FF46161B7FBF4F356
:104B7000B0FBF1F104FB13738EB2A2B11821B6FBA6
:104B8000F1F2104C01FB1266B0FBF4F400932246E4
:104B9000B3B20D49284621F041F80A2C34BF082051
:104BA000092003B0F0BD632E8AB205D80749284614
:104BB00021F034F80520F4E70549284621F02EF8C5
:104BC0000620EEE78051010047D702084BD70208C4
:104BD00055D7020810B504460D48FFF7D1FC102246
:104BE00021680C48FBF760FE23799A0702D50A4832
:104BF000FFF7C6FC23795B0702D50848FFF7C0FC26
:104C0000BDE81040002206481146FFF7DBBA00BF9E
:104C1000B4D602085C100020CFD60208E0D6020805
:104C2000F4D60208F8B50D4617461E46002800F0D7
:104C300095805248FFF7A4FCFFF770FF5048FFF73C
:104C40009FFC504814F023FB0446002800F08480A9
:104C50004D48FFF795FC012C7CD04C484C4B022C66
:104C600018BF1846FFF78CFC0A214A48FFF7CBF91A
:104C7000003418BF01240DB34048FFF781FCFFF753
:104C800055FF3F48FFF77CFC434814F000FB054606
:104C9000002867D03C48FFF773FC012D60D03B48EB
:104CA0003B4B022D18BF1846FFF76AFC002D18BFBA
:104CB00001340A213748FFF7A6F9E4B20FB32F48B1
:104CC000FFF75EFCFFF73AFF2D48FFF759FC33482A
:104CD00014F0DDFA0546002848D02B48FFF750FCB9
:104CE000012D41D029482A4B022D18BF1846FFF745
:104CF00047FC002D18BF01340A212648FFF783F92D
:104D0000E4B206B31D48FFF73BFCFFF71FFF1C484A
:104D1000FFF736FC224814F0BAFA054650B31A4899
:104D2000FFF72EFC012D23D01848194B022D18BF78
:104D30001846FFF725FC002D18BF01340A2115483D
:104D4000FFF761F9E4B2BCB1BDE8F84000211548B5
:104D50000AF000BC144885E70D4883E704468AE75B
:104D60001148A1E70A489FE70F48C0E70848BEE797
:104D70000D48DEE70648DCE7F8BD00BF0DD70208A6
:104D800016D702083C1F002026D7020809D70208C0
:104D900001D702085C100020841F0020CC1F0020D7
:104DA000F41E002032D7020804D7020830B589B0BB
:104DB00004460D46014602A8FFF798FE029B013B00
:104DC00003336FD8002D6DD09DF80C2094F843303C
:104DD000900769D5013384F8433094F84330092BA8
:104DE00008D90A213548FFF70EF9FFF797FE02A808
:104DF000FFF7F0FE9DF80C30D90723D594F8423028
:104E000003BB0BF0AFFA2E4A0190904294BF0022F0
:104E1000012204A901A8FFF7A1FE0A212748FFF7F4
:104E2000F2F804A92548FBF7A5FC2648FFF7A8FBE4
:104E3000FFF774FE2448B4F84010FFF7C5FB234881
:104E4000FFF79EFB9DF80C3013F0010F94F84230F1
:104E50002ED0042B20D92046B4F8405014F036F858
:104E6000A0B1642D12D9A5F1320189B2A4F8401085
:104E7000204614F095F9FFF751FEB4F8401014489D
:104E8000FFF7A2FB0A210D48FFF7BDF89DF80C20A3
:104E900094F84230D2070BD5013384F84230012315
:104EA00084F8443009B030BD002B96D0013B92E726
:104EB000002BF7D0002384F84230F3E75C10002089
:104EC0008051010066F9020875D6020898D60208DA
:104ED0009DD6020830B589B004460D46014602A8A9
:104EE000FFF704FE029B013B03336FD8002D6DD00A
:104EF0009DF80C2094F84330900769D5013384F86D
:104F0000433094F84330092B08D90A213548FFF77C
:104F10007AF8FFF70BFE02A8FFF75CFE9DF80C3055
:104F2000D90723D594F8423003BB0BF01BFA2E4A65
:104F30000190904294BF0022012204A901A8FFF72A
:104F40000DFE0A212748FFF75EF804A92548FBF764
:104F500011FC2648FFF714FBFFF7E8FD2448B4F8DE
:104F60004010FFF731FB2348FFF70AFB9DF80C3098
:104F700013F0010F94F842302ED0042B20D9204694
:104F8000B4F8405013F0A2FFA0B1642D12D9A5F1DE
:104F9000320189B2A4F84010204614F001F9FFF75D
:104FA000C5FDB4F840101448FFF70EFB0A210D4868
:104FB000FFF729F89DF80C2094F84230D2070BD562
:104FC000013384F84230012384F8443009B030BD05
:104FD000002B96D0013B92E7002BF7D0002384F8FA
:104FE0004230F3E75C1000208051010066F90208AE
:104FF00075D6020898D602089DD6020830B589B049
:1050000004460D46014602A8FFF770FD029B013BD6
:1050100003336FD8002D6DD09DF80C2094F84330E9
:10502000900769D5013384F8433094F84330092B55
:1050300008D90A213548FEF7E6FFFFF77FFD02A8F1
:10504000FFF7C8FD9DF80C30D90723D594F84230FE
:1050500003BB0BF087F92E4A0190904294BF0022C7
:10506000012204A901A8FFF779FD0A212748FEF7CC
:10507000CAFF04A92548FBF77DFB2648FFF780FA05
:10508000FFF75CFD2448B4F84010FFF79DFA234871
:10509000FFF776FA9DF80C3013F0010F94F84230C8
:1050A0002ED0042B20D92046B4F8405013F00EFF28
:1050B000A0B1642D12D9A5F1320189B2A4F8401033
:1050C000204614F06DF8FFF739FDB4F8401014488D
:1050D000FFF77AFA0A210D48FEF795FF9DF80C209C
:1050E00094F84230D2070BD5013384F842300123C3
:1050F00084F8443009B030BD002B96D0013B92E7D4
:10510000002BF7D0002384F84230F3E75C10002036
:105110008051010066F9020875D6020898D6020887
:105120009DD6020830B589B004460D46014602A856
:10513000FFF7DCFC029B013B03336FD8002D6DD0E1
:105140009DF80C2094F84330900769D5013384F81A
:10515000433094F84330092B08D90A213548FEF72B
:1051600052FFFFF7F3FC02A8FFF734FD9DF80C3067
:10517000D90723D594F8423003BB0BF0F3F82E4A3D
:105180000190904294BF0022012204A901A8FFF7D8
:10519000E5FC0A212748FEF736FF04A92548FBF75E
:1051A000E9FA2648FFF7ECF9FFF7D0FC2448B4F8F9
:1051B0004010FFF709FA2348FFF7E2F99DF80C3099
:1051C00013F0010F94F842302ED0042B20D9204642
:1051D000B4F8405013F07AFEA0B1642D12D9A5F1B5
:1051E000320189B2A4F84010204613F0D9FFFFF72E
:1051F000ADFCB4F840101448FFF7E6F90A210D4859
:10520000FEF701FF9DF80C2094F84230D2070BD531
:10521000013384F84230012384F8443009B030BDB2
:10522000002B96D0013B92E7002BF7D0002384F8A7
:105230004230F3E75C1000208051010066F902085B
:1052400075D6020898D602089DD6020808B50F49FF
:105250000F4B0A681B689A1A002A16DB03F5FA73CB
:105260000B60002201210B48FFF7A0FD0022012165
:105270000948FFF72FFE002201210848FFF7BEFE74
:10528000002201210648FFF74DFF08BDF81200205B
:105290000C2600203C1F0020841F0020CC1F002073
:1052A000F41E00204138C3B2192B2DD8174A1068BC
:1052B000D84010F0010028D0154AD25C12B3154B2B
:1052C00019688B188A56A2F13001C9B2092906D98A
:1052D0002E2A08D15A78303A092A88BF00230E4A6C
:1052E0000120136070472D2A01D02B2A0AD193F98F
:1052F0000110A1F13002D2B2092AF0D92E2901D130
:105300009A78E8E70023EAE700207047301300208E
:10531000121300200C1300203413002008B5FFF7EF
:10532000C1FF20B1024B1868003018BF012008BD32
:1053300034130020034B186818B10A22002122F010
:1053400025BA7047341300202DE9FF412A4B1B7802
:1053500003F00303032B09D0284800210AF0FAF8D0
:10536000FFF71AF92648FFF70BF939E0254F0CF043
:105370005DFC254B39682548D3F8088014F004FEFD
:10538000234C796820600546204814F0FDFDB9687B
:1053900006466060404614F0F7FD1E49A0603046A6
:1053A00015F0AEF8F8B11C49304615F09FF8D0B1B1
:1053B0001849284615F0A4F8A8B11749284615F051
:1053C00095F880B194E803000023019302AB83E8D1
:1053D0000300184601A90CF0C7FC02200CF0D2FE15
:1053E00004B0BDE8F0810D4800210AF0B3F8FFF7E2
:1053F000D3F80B48B7E700BFFF1700208FD702088C
:105400005DD70208601E00200C1800200000EA4250
:105410001C18002017B7D1B807006B437ED70208CD
:105420006CD702082DE9F74F4F4B05461B7803F068
:105430000703072B72D00DF047FB0CF0C1FC0120D5
:105440000CF054FA5820FFF72DFF04465920FFF7BF
:1054500029FF80465A20FFF725FF81461DB94445A4
:1054600004D1844202D10124A046A1463F4E404FC0
:10547000B24697E80F0086E80F005220FFF74EFF74
:1054800000286ED03B4B186850B30246934612F981
:10549000016B36F0200160D0452E01D0652EF5D18C
:1054A00000218BF80010186822F090F805468BF860
:1054B00000600021284615F005F888B914B9B8F144
:1054C000000F17D0CAF808502946B86815F004F83C
:1054D00030B1002302A941F8043D27480CF04EFCEE
:1054E00014B100200CF04EFEB8F1000F02D00120E4
:1054F0000CF048FEB9F1000F04D00020FFF7AEF920
:10550000FFF722FF0CF092FB0CF0A2F90CF062FC0A
:1055100003221A4B1A700CF057FB14E04F20FFF7D0
:10552000FDFE98B1134B1B686BB1FFF703FF00281A
:1055300081DBFFF7FFFEFF2805DCFFF7FBFE10F025
:10554000FF0F3FF478AF03B0BDE8F08F4F20FFF7B7
:10555000A9FE00283FF46FAFF5E722F037F80546C3
:10556000A7E7074DAAE700BFFE1700201C18002080
:105570000C18002034130020241800200E060020F0
:105580000000204138B50D4B1868A8B102461546F9
:1055900012F9014B34F020010AD0452C01D0652CC2
:1055A000F5D100212970186822F010F82C7038BD50
:1055B000BDE8384022F00AB80020F8E73413002094
:1055C00070B501F06DF9051E26DB4420FFF76AFE79
:1055D000D8B1FFF7D7FF002106464FF0010414F0C1
:1055E00071FF08B14FF000040C4B00211C703046D5
:1055F00014F068FF48B9FFF7C5FF0021044614F016
:1056000061FF074B28B943F82540BDE870400DF015
:10561000AFB9044A1A60F8E770BD00BF111300204B
:10562000B01D00200000E03F38B501F039F9002836
:105630000FDB0024074BE5B21857FFF733FE28B104
:10564000FFF7A0FF014628460EF0FCF80134042CB9
:10565000F0D138BD9DD7020838B501F021F90028F6
:105660000FDB0024074BE5B21857FFF71BFE28B1EC
:10567000FFF788FF014628460EF0F2F80134042CAB
:10568000F0D138BD9DD7020810B51E4B1E4A1B68CD
:105690001A422ED04220FFF705FE40B11B4B18687E
:1056A00018B10A22002122F02DF9194B186153205C
:1056B000FFF7F8FD18B1FFF765FF154B186454208C
:1056C000FFF7F0FD18B1FFF75DFF114B58644A205A
:1056D000FFF7E8FD68B1FFF755FF0E49044614F0E7
:1056E0000FFF38B10C49204614F000FF10B10B4BEE
:1056F0001C6010BDFEF756FFBDE810400848FEF7DD
:105700003FBF00BF3013002002020C003413002002
:10571000001E00200AD7233C9A99993ECC1D0020F8
:10572000B7D7020810B51D4B1B6813F4682F12D1B0
:105730001B4C1C48616BFEF763FFA16B1A48FEF718
:105740005FFFE16B1948FEF75BFFBDE810400A21DF
:105750001748FAF7EFBE5320FFF7E0FD20B1FFF73F
:1057600011FF0F4B5863D8635020FFF7D7FD18B1D6
:10577000FFF708FF0A4B58635220FFF7CFFD18B11F
:10578000FFF700FF064B98635420FFF7C7FD18B1E1
:10579000FFF7F8FE024BD86310BD00BF30130020A6
:1057A000001E0020A1D70208B1D70208B4D7020812
:1057B0005C10002008B5194B1B685B0304D5184B1F
:1057C0009A7C184B0AB91A6008BD174909688818ED
:1057D0008A56A2F13001C9B2092905D92E2A0BD166
:1057E0004278303A092A0BD80A220021186021F0A9
:1057F000CDFF0E4B1880E7E72D2A03D02B2A01D0CE
:105800000022E0E790F90110A1F13002D2B2092A9A
:10581000EAD92E29F4D18278E3E700BF30130020C3
:1058200012130020341300200C1300201C0600204B
:1058300038B501F035F8041E47DB2D4B2D4D1B68A4
:1058400013F4802F04D02C4B9A7C2C4BCAB91A60CD
:10585000FEF7A2FE45212A48FEF7D5FB04F13001F0
:105860002748FEF7D0FB35F914102648FEF7ACFEAA
:1058700025212348FEF7C7FB0A212148FEF7C3FB79
:1058800023E02149096888188A56A2F13001C9B27B
:10589000092905D92E2A19D14278303A092A19D86E
:1058A0000A220021186021F071FF00B225F81400CF
:1058B00014F020FC154914F071FC154B53F824101A
:1058C00014F06CFC134B43F8240038BD2D2A03D090
:1058D0002B2A01D00022BAE790F90110A1F1300281
:1058E000D2B2092ADCD92E29F4D18278D5E700BFBB
:1058F000301300204806002012130020341300202B
:105900005C100020D6D702080C1300200AD7233CD5
:10591000D01D00204C06002010B54520FFF7C2FC2A
:10592000002837D15020FFF7BDFC264C10B1FFF7FF
:1059300029FEE0604920FFF7B5FC28B1FFF722FE01
:10594000214914F02BFC20614420FFF7ABFC28B167
:10595000FFF718FE1C4914F0D5FC6061FEF71CFE31
:10596000E1681A48FEF74CFE2069174914F0CAFC9A
:1059700001461748FEF744FE6069134914F00EFC17
:1059800001461448FEF73CFEBDE810400A211248CB
:10599000FAF7D0BD114B1B68002BC3D0FFF7CAFC30
:1059A0000028BFDBFFF7C6FCFF2804DCFFF7C2FCC2
:1059B00010F0FF0FB6D0FEF7F5FDBDE81040084827
:1059C000FEF7DEBD142000200AD7233EDED70208F2
:1059D000E2D70208E6D702085C100020341300204A
:1059E000EAD7020870B55320FFF75CFC0546F0B11A
:1059F0002F4B186800283AD00246164612F9014B80
:105A000034F0200130D0452C01D0652CF5D1002197
:105A10003170186821F0DAFD347014F09BFD254BCD
:105A200000B21880B0FA80F0234B40091870502063
:105A3000FFF738FC0446F0B11E4BB3F9003083B1D8
:105A40001B4B1B686BB1FFF775FC002811DBFFF7E0
:105A500071FCFF2805DCFFF76DFCC0B2041C18BF09
:105A60000124154B1C7070BD21F0B0FDD5E700205E
:105A7000D3E70024F5E7002DF5D1FEF78DFD0F48A3
:105A8000FEF77EFD0C4B0E4A18780E4B002814BF13
:105A900010461846FEF774FD064B0B48B3F900108C
:105AA000FEF792FDBDE870400848FEF769BD00BFF3
:105AB000341300205E0600204420002000D8020895
:105AC00081F50208FCD7020813D8020824D802087E
:105AD00010B5C0B1FEF760FD0D4C0E486169FEF7D0
